{
  "address": "0xf1BefDa1Be7E8C2dEe839488b0C4754408eEF942",
  "abi": [
    {
      "inputs": [],
      "stateMutability": "nonpayable",
      "type": "constructor"
    },
    {
      "anonymous": false,
      "inputs": [
        {
          "indexed": true,
          "internalType": "address",
          "name": "owner",
          "type": "address"
        },
        {
          "indexed": true,
          "internalType": "address",
          "name": "approved",
          "type": "address"
        },
        {
          "indexed": true,
          "internalType": "uint256",
          "name": "tokenId",
          "type": "uint256"
        }
      ],
      "name": "Approval",
      "type": "event"
    },
    {
      "anonymous": false,
      "inputs": [
        {
          "indexed": true,
          "internalType": "address",
          "name": "owner",
          "type": "address"
        },
        {
          "indexed": true,
          "internalType": "address",
          "name": "operator",
          "type": "address"
        },
        {
          "indexed": false,
          "internalType": "bool",
          "name": "approved",
          "type": "bool"
        }
      ],
      "name": "ApprovalForAll",
      "type": "event"
    },
    {
      "anonymous": false,
      "inputs": [
        {
          "indexed": true,
          "internalType": "address",
          "name": "from",
          "type": "address"
        },
        {
          "indexed": true,
          "internalType": "address",
          "name": "to",
          "type": "address"
        },
        {
          "indexed": true,
          "internalType": "uint256",
          "name": "tokenId",
          "type": "uint256"
        }
      ],
      "name": "Transfer",
      "type": "event"
    },
    {
      "anonymous": false,
      "inputs": [
        {
          "indexed": false,
          "internalType": "uint256",
          "name": "priceMarket",
          "type": "uint256"
        }
      ],
      "name": "listPriceUpdated",
      "type": "event"
    },
    {
      "anonymous": false,
      "inputs": [
        {
          "indexed": false,
          "internalType": "address",
          "name": "owner",
          "type": "address"
        },
        {
          "indexed": false,
          "internalType": "uint256",
          "name": "tokenId",
          "type": "uint256"
        },
        {
          "indexed": false,
          "internalType": "bool",
          "name": "isInSale",
          "type": "bool"
        },
        {
          "indexed": false,
          "internalType": "bool",
          "name": "firstSale",
          "type": "bool"
        },
        {
          "indexed": false,
          "internalType": "bool",
          "name": "isDeleted",
          "type": "bool"
        }
      ],
      "name": "releaseExecuted",
      "type": "event"
    },
    {
      "anonymous": false,
      "inputs": [
        {
          "indexed": false,
          "internalType": "address",
          "name": "owner",
          "type": "address"
        },
        {
          "indexed": false,
          "internalType": "uint256",
          "name": "price",
          "type": "uint256"
        },
        {
          "indexed": false,
          "internalType": "uint256",
          "name": "tokenId",
          "type": "uint256"
        },
        {
          "indexed": false,
          "internalType": "bool",
          "name": "isInSale",
          "type": "bool"
        },
        {
          "indexed": false,
          "internalType": "bool",
          "name": "firstSale",
          "type": "bool"
        },
        {
          "indexed": false,
          "internalType": "bool",
          "name": "isDeleted",
          "type": "bool"
        }
      ],
      "name": "saleExecuted",
      "type": "event"
    },
    {
      "anonymous": false,
      "inputs": [
        {
          "indexed": false,
          "internalType": "uint256",
          "name": "price",
          "type": "uint256"
        },
        {
          "indexed": false,
          "internalType": "uint256",
          "name": "tokenId",
          "type": "uint256"
        },
        {
          "indexed": false,
          "internalType": "bool",
          "name": "isInSale",
          "type": "bool"
        },
        {
          "indexed": false,
          "internalType": "bool",
          "name": "firstSale",
          "type": "bool"
        },
        {
          "indexed": false,
          "internalType": "bool",
          "name": "isDeleted",
          "type": "bool"
        }
      ],
      "name": "sneakerSelled",
      "type": "event"
    },
    {
      "anonymous": false,
      "inputs": [
        {
          "indexed": false,
          "internalType": "uint256",
          "name": "tokenId",
          "type": "uint256"
        },
        {
          "indexed": false,
          "internalType": "string",
          "name": "name",
          "type": "string"
        },
        {
          "indexed": false,
          "internalType": "string",
          "name": "description",
          "type": "string"
        },
        {
          "indexed": false,
          "internalType": "address",
          "name": "owner",
          "type": "address"
        },
        {
          "indexed": false,
          "internalType": "uint256",
          "name": "price",
          "type": "uint256"
        },
        {
          "indexed": false,
          "internalType": "bool",
          "name": "firstSale",
          "type": "bool"
        },
        {
          "indexed": false,
          "internalType": "bool",
          "name": "isInSale",
          "type": "bool"
        },
        {
          "indexed": false,
          "internalType": "bool",
          "name": "isDeleted",
          "type": "bool"
        }
      ],
      "name": "tokenCreated",
      "type": "event"
    },
    {
      "inputs": [
        {
          "internalType": "address",
          "name": "to",
          "type": "address"
        },
        {
          "internalType": "uint256",
          "name": "tokenId",
          "type": "uint256"
        }
      ],
      "name": "approve",
      "outputs": [],
      "stateMutability": "nonpayable",
      "type": "function"
    },
    {
      "inputs": [
        {
          "internalType": "address",
          "name": "owner",
          "type": "address"
        }
      ],
      "name": "balanceOf",
      "outputs": [
        {
          "internalType": "uint256",
          "name": "",
          "type": "uint256"
        }
      ],
      "stateMutability": "view",
      "type": "function"
    },
    {
      "inputs": [
        {
          "internalType": "string",
          "name": "tokenURI",
          "type": "string"
        },
        {
          "internalType": "string",
          "name": "name",
          "type": "string"
        },
        {
          "internalType": "string",
          "name": "description",
          "type": "string"
        },
        {
          "internalType": "uint256",
          "name": "price",
          "type": "uint256"
        }
      ],
      "name": "createToken",
      "outputs": [
        {
          "internalType": "uint256",
          "name": "",
          "type": "uint256"
        }
      ],
      "stateMutability": "payable",
      "type": "function"
    },
    {
      "inputs": [
        {
          "internalType": "uint256",
          "name": "tokenId",
          "type": "uint256"
        }
      ],
      "name": "deleteSneakers",
      "outputs": [],
      "stateMutability": "nonpayable",
      "type": "function"
    },
    {
      "inputs": [
        {
          "internalType": "uint256",
          "name": "tokenId",
          "type": "uint256"
        }
      ],
      "name": "executeRelease",
      "outputs": [],
      "stateMutability": "payable",
      "type": "function"
    },
    {
      "inputs": [
        {
          "internalType": "uint256",
          "name": "tokenId",
          "type": "uint256"
        }
      ],
      "name": "executeSale",
      "outputs": [],
      "stateMutability": "payable",
      "type": "function"
    },
    {
      "inputs": [],
      "name": "getAllNFTs",
      "outputs": [
        {
          "components": [
            {
              "internalType": "uint256",
              "name": "tokenId",
              "type": "uint256"
            },
            {
              "internalType": "string",
              "name": "name",
              "type": "string"
            },
            {
              "internalType": "string",
              "name": "description",
              "type": "string"
            },
            {
              "internalType": "address payable",
              "name": "owner",
              "type": "address"
            },
            {
              "internalType": "uint256",
              "name": "price",
              "type": "uint256"
            },
            {
              "internalType": "bool",
              "name": "firstSale",
              "type": "bool"
            },
            {
              "internalType": "bool",
              "name": "isInSale",
              "type": "bool"
            },
            {
              "internalType": "bool",
              "name": "isDeleted",
              "type": "bool"
            }
          ],
          "internalType": "struct Snyker.Sneaker[]",
          "name": "",
          "type": "tuple[]"
        }
      ],
      "stateMutability": "view",
      "type": "function"
    },
    {
      "inputs": [
        {
          "internalType": "uint256",
          "name": "tokenId",
          "type": "uint256"
        }
      ],
      "name": "getApproved",
      "outputs": [
        {
          "internalType": "address",
          "name": "",
          "type": "address"
        }
      ],
      "stateMutability": "view",
      "type": "function"
    },
    {
      "inputs": [],
      "name": "getCurrentToken",
      "outputs": [
        {
          "internalType": "uint256",
          "name": "",
          "type": "uint256"
        }
      ],
      "stateMutability": "view",
      "type": "function"
    },
    {
      "inputs": [
        {
          "internalType": "uint256",
          "name": "tokenId",
          "type": "uint256"
        }
      ],
      "name": "getDeletedSneakers",
      "outputs": [
        {
          "internalType": "bool",
          "name": "",
          "type": "bool"
        }
      ],
      "stateMutability": "view",
      "type": "function"
    },
    {
      "inputs": [],
      "name": "getLatestIdToListedToken",
      "outputs": [
        {
          "components": [
            {
              "internalType": "uint256",
              "name": "tokenId",
              "type": "uint256"
            },
            {
              "internalType": "string",
              "name": "name",
              "type": "string"
            },
            {
              "internalType": "string",
              "name": "description",
              "type": "string"
            },
            {
              "internalType": "address payable",
              "name": "owner",
              "type": "address"
            },
            {
              "internalType": "uint256",
              "name": "price",
              "type": "uint256"
            },
            {
              "internalType": "bool",
              "name": "firstSale",
              "type": "bool"
            },
            {
              "internalType": "bool",
              "name": "isInSale",
              "type": "bool"
            },
            {
              "internalType": "bool",
              "name": "isDeleted",
              "type": "bool"
            }
          ],
          "internalType": "struct Snyker.Sneaker",
          "name": "",
          "type": "tuple"
        }
      ],
      "stateMutability": "view",
      "type": "function"
    },
    {
      "inputs": [],
      "name": "getListPrice",
      "outputs": [
        {
          "internalType": "uint256",
          "name": "",
          "type": "uint256"
        }
      ],
      "stateMutability": "view",
      "type": "function"
    },
    {
      "inputs": [
        {
          "internalType": "uint256",
          "name": "tokenId",
          "type": "uint256"
        }
      ],
      "name": "getListedTokenForId",
      "outputs": [
        {
          "components": [
            {
              "internalType": "uint256",
              "name": "tokenId",
              "type": "uint256"
            },
            {
              "internalType": "string",
              "name": "name",
              "type": "string"
            },
            {
              "internalType": "string",
              "name": "description",
              "type": "string"
            },
            {
              "internalType": "address payable",
              "name": "owner",
              "type": "address"
            },
            {
              "internalType": "uint256",
              "name": "price",
              "type": "uint256"
            },
            {
              "internalType": "bool",
              "name": "firstSale",
              "type": "bool"
            },
            {
              "internalType": "bool",
              "name": "isInSale",
              "type": "bool"
            },
            {
              "internalType": "bool",
              "name": "isDeleted",
              "type": "bool"
            }
          ],
          "internalType": "struct Snyker.Sneaker",
          "name": "",
          "type": "tuple"
        }
      ],
      "stateMutability": "view",
      "type": "function"
    },
    {
      "inputs": [],
      "name": "getMyNFTs",
      "outputs": [
        {
          "components": [
            {
              "internalType": "uint256",
              "name": "tokenId",
              "type": "uint256"
            },
            {
              "internalType": "string",
              "name": "name",
              "type": "string"
            },
            {
              "internalType": "string",
              "name": "description",
              "type": "string"
            },
            {
              "internalType": "address payable",
              "name": "owner",
              "type": "address"
            },
            {
              "internalType": "uint256",
              "name": "price",
              "type": "uint256"
            },
            {
              "internalType": "bool",
              "name": "firstSale",
              "type": "bool"
            },
            {
              "internalType": "bool",
              "name": "isInSale",
              "type": "bool"
            },
            {
              "internalType": "bool",
              "name": "isDeleted",
              "type": "bool"
            }
          ],
          "internalType": "struct Snyker.Sneaker[]",
          "name": "",
          "type": "tuple[]"
        }
      ],
      "stateMutability": "view",
      "type": "function"
    },
    {
      "inputs": [
        {
          "internalType": "address",
          "name": "owner",
          "type": "address"
        },
        {
          "internalType": "address",
          "name": "operator",
          "type": "address"
        }
      ],
      "name": "isApprovedForAll",
      "outputs": [
        {
          "internalType": "bool",
          "name": "",
          "type": "bool"
        }
      ],
      "stateMutability": "view",
      "type": "function"
    },
    {
      "inputs": [],
      "name": "name",
      "outputs": [
        {
          "internalType": "string",
          "name": "",
          "type": "string"
        }
      ],
      "stateMutability": "view",
      "type": "function"
    },
    {
      "inputs": [
        {
          "internalType": "uint256",
          "name": "tokenId",
          "type": "uint256"
        }
      ],
      "name": "ownerOf",
      "outputs": [
        {
          "internalType": "address",
          "name": "",
          "type": "address"
        }
      ],
      "stateMutability": "view",
      "type": "function"
    },
    {
      "inputs": [
        {
          "internalType": "address",
          "name": "from",
          "type": "address"
        },
        {
          "internalType": "address",
          "name": "to",
          "type": "address"
        },
        {
          "internalType": "uint256",
          "name": "tokenId",
          "type": "uint256"
        }
      ],
      "name": "safeTransferFrom",
      "outputs": [],
      "stateMutability": "nonpayable",
      "type": "function"
    },
    {
      "inputs": [
        {
          "internalType": "address",
          "name": "from",
          "type": "address"
        },
        {
          "internalType": "address",
          "name": "to",
          "type": "address"
        },
        {
          "internalType": "uint256",
          "name": "tokenId",
          "type": "uint256"
        },
        {
          "internalType": "bytes",
          "name": "data",
          "type": "bytes"
        }
      ],
      "name": "safeTransferFrom",
      "outputs": [],
      "stateMutability": "nonpayable",
      "type": "function"
    },
    {
      "inputs": [
        {
          "internalType": "uint256",
          "name": "tokenId",
          "type": "uint256"
        },
        {
          "internalType": "uint256",
          "name": "price",
          "type": "uint256"
        }
      ],
      "name": "sellSneaker",
      "outputs": [
        {
          "internalType": "string",
          "name": "",
          "type": "string"
        }
      ],
      "stateMutability": "payable",
      "type": "function"
    },
    {
      "inputs": [
        {
          "internalType": "address",
          "name": "operator",
          "type": "address"
        },
        {
          "internalType": "bool",
          "name": "approved",
          "type": "bool"
        }
      ],
      "name": "setApprovalForAll",
      "outputs": [],
      "stateMutability": "nonpayable",
      "type": "function"
    },
    {
      "inputs": [
        {
          "internalType": "bytes4",
          "name": "interfaceId",
          "type": "bytes4"
        }
      ],
      "name": "supportsInterface",
      "outputs": [
        {
          "internalType": "bool",
          "name": "",
          "type": "bool"
        }
      ],
      "stateMutability": "view",
      "type": "function"
    },
    {
      "inputs": [],
      "name": "symbol",
      "outputs": [
        {
          "internalType": "string",
          "name": "",
          "type": "string"
        }
      ],
      "stateMutability": "view",
      "type": "function"
    },
    {
      "inputs": [
        {
          "internalType": "uint256",
          "name": "tokenId",
          "type": "uint256"
        }
      ],
      "name": "tokenURI",
      "outputs": [
        {
          "internalType": "string",
          "name": "",
          "type": "string"
        }
      ],
      "stateMutability": "view",
      "type": "function"
    },
    {
      "inputs": [
        {
          "internalType": "address",
          "name": "from",
          "type": "address"
        },
        {
          "internalType": "address",
          "name": "to",
          "type": "address"
        },
        {
          "internalType": "uint256",
          "name": "tokenId",
          "type": "uint256"
        }
      ],
      "name": "transferFrom",
      "outputs": [],
      "stateMutability": "nonpayable",
      "type": "function"
    },
    {
      "inputs": [
        {
          "internalType": "uint256",
          "name": "_priceMarket",
          "type": "uint256"
        }
      ],
      "name": "updateListPrice",
      "outputs": [],
      "stateMutability": "payable",
      "type": "function"
    },
    {
      "inputs": [],
      "name": "withdrawAll",
      "outputs": [],
      "stateMutability": "nonpayable",
      "type": "function"
    }
  ],
  "transactionHash": "0xb71eb3c7eac24f10680ec37db885721f1ba2f03019634f48a565200fe5f785ae",
  "args": [],
  "numDeployments": 7,
  "solcInputHash": "0f8d01b185c4a7417c6d237b078f234f",
  "bytecode": "0x6080604052662386f26fc10000600a553480156200001c57600080fd5b506040518060400160405280600681526020017f536e796b657200000000000000000000000000000000000000000000000000008152506040518060400160405280600381526020017f53544b00000000000000000000000000000000000000000000000000000000008152508160009080519060200190620000a192919062000104565b508060019080519060200190620000ba92919062000104565b50505033600960006101000a81548173ffffffffffffffffffffffffffffffffffffffff021916908373ffffffffffffffffffffffffffffffffffffffff16021790555062000219565b8280546200011290620001e3565b90600052602060002090601f01602090048101928262000136576000855562000182565b82601f106200015157805160ff191683800117855562000182565b8280016001018555821562000182579182015b828111156200018157825182559160200191906001019062000164565b5b50905062000191919062000195565b5090565b5b80821115620001b057600081600090555060010162000196565b5090565b7f4e487b7100000000000000000000000000000000000000000000000000000000600052602260045260246000fd5b60006002820490506001821680620001fc57607f821691505b60208210811415620002135762000212620001b4565b5b50919050565b61532880620002296000396000f3fe60806040526004361061019c5760003560e01c8063853828b6116100ec578063c87b56dd1161008a578063e2825e0811610064578063e2825e08146105c3578063e985e9c5146105df578063ef2d17461461061c578063efbe8fd1146106475761019c565b8063c87b56dd14610530578063d1a88ae51461056d578063e0391b09146105985761019c565b80639b1225c4116100c65780639b1225c4146104a6578063a22cb465146104c2578063b88d4fde146104eb578063c322579c146105145761019c565b8063853828b6146104275780638e2645901461043e57806395d89b411461047b5761019c565b806342842e0e116101595780636352211e116101335780636352211e1461035957806368f1945f1461039657806370a08231146103c15780637241eeed146103fe5761019c565b806342842e0e146102c85780635e6c65a7146102f1578063629cb2e41461032e5761019c565b806301ffc9a7146101a157806306fdde03146101de578063081812fc14610209578063095ea7b31461024657806323b872dd1461026f5780632fab29b314610298575b600080fd5b3480156101ad57600080fd5b506101c860048036038101906101c39190613947565b610677565b6040516101d5919061398f565b60405180910390f35b3480156101ea57600080fd5b506101f3610759565b6040516102009190613a43565b60405180910390f35b34801561021557600080fd5b50610230600480360381019061022b9190613a9b565b6107eb565b60405161023d9190613b09565b60405180910390f35b34801561025257600080fd5b5061026d60048036038101906102689190613b50565b610831565b005b34801561027b57600080fd5b5061029660048036038101906102919190613b90565b610949565b005b6102b260048036038101906102ad9190613be3565b6109a9565b6040516102bf9190613a43565b60405180910390f35b3480156102d457600080fd5b506102ef60048036038101906102ea9190613b90565b610c0a565b005b3480156102fd57600080fd5b5061031860048036038101906103139190613a9b565b610c2a565b604051610325919061398f565b60405180910390f35b34801561033a57600080fd5b50610343610c57565b6040516103509190613e25565b60405180910390f35b34801561036557600080fd5b50610380600480360381019061037b9190613a9b565b611149565b60405161038d9190613b09565b60405180910390f35b3480156103a257600080fd5b506103ab6111d0565b6040516103b89190613e56565b60405180910390f35b3480156103cd57600080fd5b506103e860048036038101906103e39190613e71565b6111da565b6040516103f59190613e56565b60405180910390f35b34801561040a57600080fd5b5061042560048036038101906104209190613a9b565b611292565b005b34801561043357600080fd5b5061043c61135d565b005b34801561044a57600080fd5b5061046560048036038101906104609190613a9b565b611458565b6040516104729190613f55565b60405180910390f35b34801561048757600080fd5b50610490611665565b60405161049d9190613a43565b60405180910390f35b6104c060048036038101906104bb9190613a9b565b6116f7565b005b3480156104ce57600080fd5b506104e960048036038101906104e49190613fa3565b611911565b005b3480156104f757600080fd5b50610512600480360381019061050d9190614118565b611927565b005b61052e60048036038101906105299190613a9b565b611989565b005b34801561053c57600080fd5b5061055760048036038101906105529190613a9b565b611a5a565b6040516105649190613a43565b60405180910390f35b34801561057957600080fd5b50610582611b6d565b60405161058f9190613f55565b60405180910390f35b3480156105a457600080fd5b506105ad611d87565b6040516105ba9190613e25565b60405180910390f35b6105dd60048036038101906105d89190613a9b565b6120da565b005b3480156105eb57600080fd5b506106066004803603810190610601919061419b565b6122bc565b604051610613919061398f565b60405180910390f35b34801561062857600080fd5b50610631612350565b60405161063e9190613e56565b60405180910390f35b610661600480360381019061065c919061427c565b612361565b60405161066e9190613e56565b60405180910390f35b60007f80ac58cd000000000000000000000000000000000000000000000000000000007bffffffffffffffffffffffffffffffffffffffffffffffffffffffff1916827bffffffffffffffffffffffffffffffffffffffffffffffffffffffff1916148061074257507f5b5e139f000000000000000000000000000000000000000000000000000000007bffffffffffffffffffffffffffffffffffffffffffffffffffffffff1916827bffffffffffffffffffffffffffffffffffffffffffffffffffffffff1916145b806107525750610751826123a7565b5b9050919050565b60606000805461076890614366565b80601f016020809104026020016040519081016040528092919081815260200182805461079490614366565b80156107e15780601f106107b6576101008083540402835291602001916107e1565b820191906000526020600020905b8154815290600101906020018083116107c457829003601f168201915b5050505050905090565b60006107f682612411565b6004600083815260200190815260200160002060009054906101000a900473ffffffffffffffffffffffffffffffffffffffff169050919050565b600061083c82611149565b90508073ffffffffffffffffffffffffffffffffffffffff168373ffffffffffffffffffffffffffffffffffffffff1614156108ad576040517f08c379a00000000000000000000000000000000000000000000000000000000081526004016108a49061440a565b60405180910390fd5b8073ffffffffffffffffffffffffffffffffffffffff166108cc61245c565b73ffffffffffffffffffffffffffffffffffffffff1614806108fb57506108fa816108f561245c565b6122bc565b5b61093a576040517f08c379a00000000000000000000000000000000000000000000000000000000081526004016109319061449c565b60405180910390fd5b6109448383612464565b505050565b61095a61095461245c565b8261251d565b610999576040517f08c379a00000000000000000000000000000000000000000000000000000000081526004016109909061452e565b60405180910390fd5b6109a48383836125b2565b505050565b6060600a543410156109f0576040517f08c379a00000000000000000000000000000000000000000000000000000000081526004016109e7906145c0565b60405180910390fd5b600b600084815260200190815260200160002060030160009054906101000a900473ffffffffffffffffffffffffffffffffffffffff1673ffffffffffffffffffffffffffffffffffffffff163373ffffffffffffffffffffffffffffffffffffffff1614610a94576040517f08c379a0000000000000000000000000000000000000000000000000000000008152600401610a8b90614652565b60405180910390fd5b6001600b600085815260200190815260200160002060050160016101000a81548160ff0219169083151502179055506000600b600085815260200190815260200160002060050160006101000a81548160ff021916908315150217905550670de0b6b3a764000082610b0691906146a1565b600b600085815260200190815260200160002060040181905550600960009054906101000a900473ffffffffffffffffffffffffffffffffffffffff1673ffffffffffffffffffffffffffffffffffffffff166108fc600a549081150290604051600060405180830381858888f19350505050158015610b8a573d6000803e3d6000fd5b507f82d70f834664ddabab98bd2565392c2f69825b13f22c78510bbfc46de4d52e3a82846001600080604051610bc49594939291906146fb565b60405180910390a16040518060400160405280600f81526020017f536e65616b657220696e2073656c6c0000000000000000000000000000000000815250905092915050565b610c2583838360405180602001604052806000815250611927565b505050565b6000600b600083815260200190815260200160002060050160029054906101000a900460ff169050919050565b60606000610c6560076128ac565b9050600080600080600090505b84811015610d91573373ffffffffffffffffffffffffffffffffffffffff16600b6000600184610ca2919061474e565b815260200190815260200160002060030160009054906101000a900473ffffffffffffffffffffffffffffffffffffffff1673ffffffffffffffffffffffffffffffffffffffff16148015610d2a575060001515600b6000600184610d07919061474e565b815260200190815260200160002060050160019054906101000a900460ff161515145b8015610d69575060001515600b6000600184610d46919061474e565b815260200190815260200160002060050160029054906101000a900460ff161515145b15610d7e57600184610d7b919061474e565b93505b8080610d89906147a4565b915050610c72565b5060008367ffffffffffffffff811115610dae57610dad613fed565b5b604051908082528060200260200182016040528015610de757816020015b610dd4613797565b815260200190600190039081610dcc5790505b50905060005b8581101561113d573373ffffffffffffffffffffffffffffffffffffffff16600b6000600184610e1d919061474e565b815260200190815260200160002060030160009054906101000a900473ffffffffffffffffffffffffffffffffffffffff1673ffffffffffffffffffffffffffffffffffffffff16148015610ea5575060001515600b6000600184610e82919061474e565b815260200190815260200160002060050160019054906101000a900460ff161515145b8015610ee4575060001515600b6000600184610ec1919061474e565b815260200190815260200160002060050160029054906101000a900460ff161515145b1561112a57600181610ef6919061474e565b92506000600b60008581526020019081526020016000209050806040518061010001604052908160008201548152602001600182018054610f3690614366565b80601f0160208091040260200160405190810160405280929190818152602001828054610f6290614366565b8015610faf5780601f10610f8457610100808354040283529160200191610faf565b820191906000526020600020905b815481529060010190602001808311610f9257829003601f168201915b50505050508152602001600282018054610fc890614366565b80601f0160208091040260200160405190810160405280929190818152602001828054610ff490614366565b80156110415780601f1061101657610100808354040283529160200191611041565b820191906000526020600020905b81548152906001019060200180831161102457829003601f168201915b505050505081526020016003820160009054906101000a900473ffffffffffffffffffffffffffffffffffffffff1673ffffffffffffffffffffffffffffffffffffffff1673ffffffffffffffffffffffffffffffffffffffff168152602001600482015481526020016005820160009054906101000a900460ff161515151581526020016005820160019054906101000a900460ff161515151581526020016005820160029054906101000a900460ff16151515158152505083868151811061110e5761110d6147ed565b5b6020026020010181905250600185611126919061474e565b9450505b8080611135906147a4565b915050610ded565b50809550505050505090565b600080611155836128ba565b9050600073ffffffffffffffffffffffffffffffffffffffff168173ffffffffffffffffffffffffffffffffffffffff1614156111c7576040517f08c379a00000000000000000000000000000000000000000000000000000000081526004016111be90614868565b60405180910390fd5b80915050919050565b6000600a54905090565b60008073ffffffffffffffffffffffffffffffffffffffff168273ffffffffffffffffffffffffffffffffffffffff16141561124b576040517f08c379a0000000000000000000000000000000000000000000000000000000008152600401611242906148fa565b60405180910390fd5b600360008373ffffffffffffffffffffffffffffffffffffffff1673ffffffffffffffffffffffffffffffffffffffff168152602001908152602001600020549050919050565b600960009054906101000a900473ffffffffffffffffffffffffffffffffffffffff1673ffffffffffffffffffffffffffffffffffffffff163373ffffffffffffffffffffffffffffffffffffffff1614611322576040517f08c379a000000000000000000000000000000000000000000000000000000000815260040161131990614966565b60405180910390fd5b6001600b600083815260200190815260200160002060050160026101000a81548160ff02191690831515021790555061135a816128f7565b50565b600960009054906101000a900473ffffffffffffffffffffffffffffffffffffffff1673ffffffffffffffffffffffffffffffffffffffff163373ffffffffffffffffffffffffffffffffffffffff16146113ed576040517f08c379a00000000000000000000000000000000000000000000000000000000081526004016113e4906149d2565b60405180910390fd5b600960009054906101000a900473ffffffffffffffffffffffffffffffffffffffff1673ffffffffffffffffffffffffffffffffffffffff166108fc479081150290604051600060405180830381858888f19350505050158015611455573d6000803e3d6000fd5b50565b611460613797565b600b6000838152602001908152602001600020604051806101000160405290816000820154815260200160018201805461149990614366565b80601f01602080910402602001604051908101604052809291908181526020018280546114c590614366565b80156115125780601f106114e757610100808354040283529160200191611512565b820191906000526020600020905b8154815290600101906020018083116114f557829003601f168201915b5050505050815260200160028201805461152b90614366565b80601f016020809104026020016040519081016040528092919081815260200182805461155790614366565b80156115a45780601f10611579576101008083540402835291602001916115a4565b820191906000526020600020905b81548152906001019060200180831161158757829003601f168201915b505050505081526020016003820160009054906101000a900473ffffffffffffffffffffffffffffffffffffffff1673ffffffffffffffffffffffffffffffffffffffff1673ffffffffffffffffffffffffffffffffffffffff168152602001600482015481526020016005820160009054906101000a900460ff161515151581526020016005820160019054906101000a900460ff161515151581526020016005820160029054906101000a900460ff1615151515815250509050919050565b60606001805461167490614366565b80601f01602080910402602001604051908101604052809291908181526020018280546116a090614366565b80156116ed5780601f106116c2576101008083540402835291602001916116ed565b820191906000526020600020905b8154815290600101906020018083116116d057829003601f168201915b5050505050905090565b600b600082815260200190815260200160002060050160019054906101000a900460ff1661175a576040517f08c379a000000000000000000000000000000000000000000000000000000000815260040161175190614a3e565b60405180910390fd5b6000600b6000838152602001908152602001600020600401549050803410156117b8576040517f08c379a00000000000000000000000000000000000000000000000000000000081526004016117af90614aaa565b60405180910390fd5b6000600b600084815260200190815260200160002060030160009054906101000a900473ffffffffffffffffffffffffffffffffffffffff1690506117fe8133856125b2565b8073ffffffffffffffffffffffffffffffffffffffff166108fc839081150290604051600060405180830381858888f19350505050158015611844573d6000803e3d6000fd5b5033600b600085815260200190815260200160002060030160006101000a81548173ffffffffffffffffffffffffffffffffffffffff021916908373ffffffffffffffffffffffffffffffffffffffff1602179055506000600b600085815260200190815260200160002060050160016101000a81548160ff0219169083151502179055507f2e89f35fbf6add41069c5f61049772889cd3f7a9aa533f4818e029f4c647370d338385600080600060405161190496959493929190614aca565b60405180910390a1505050565b61192361191c61245c565b838361294a565b5050565b61193861193261245c565b8361251d565b611977576040517f08c379a000000000000000000000000000000000000000000000000000000000815260040161196e9061452e565b60405180910390fd5b61198384848484612ab7565b50505050565b3373ffffffffffffffffffffffffffffffffffffffff16600960009054906101000a900473ffffffffffffffffffffffffffffffffffffffff1673ffffffffffffffffffffffffffffffffffffffff1614611a19576040517f08c379a0000000000000000000000000000000000000000000000000000000008152600401611a1090614b9d565b60405180910390fd5b80600a819055507f47cce1c40535876723d9c860d6f17d3a8edfbc2d34acfeb5fcb27ebe02dfb1cb81604051611a4f9190613e56565b60405180910390a150565b6060611a6582612411565b6000600660008481526020019081526020016000208054611a8590614366565b80601f0160208091040260200160405190810160405280929190818152602001828054611ab190614366565b8015611afe5780601f10611ad357610100808354040283529160200191611afe565b820191906000526020600020905b815481529060010190602001808311611ae157829003601f168201915b505050505090506000611b0f612b13565b9050600081511415611b25578192505050611b68565b600082511115611b5a578082604051602001611b42929190614bf9565b60405160208183030381529060405292505050611b68565b611b6384612b2a565b925050505b919050565b611b75613797565b6000611b8160076128ac565b9050600b60008281526020019081526020016000206040518061010001604052908160008201548152602001600182018054611bbc90614366565b80601f0160208091040260200160405190810160405280929190818152602001828054611be890614366565b8015611c355780601f10611c0a57610100808354040283529160200191611c35565b820191906000526020600020905b815481529060010190602001808311611c1857829003601f168201915b50505050508152602001600282018054611c4e90614366565b80601f0160208091040260200160405190810160405280929190818152602001828054611c7a90614366565b8015611cc75780601f10611c9c57610100808354040283529160200191611cc7565b820191906000526020600020905b815481529060010190602001808311611caa57829003601f168201915b505050505081526020016003820160009054906101000a900473ffffffffffffffffffffffffffffffffffffffff1673ffffffffffffffffffffffffffffffffffffffff1673ffffffffffffffffffffffffffffffffffffffff168152602001600482015481526020016005820160009054906101000a900460ff161515151581526020016005820160019054906101000a900460ff161515151581526020016005820160029054906101000a900460ff16151515158152505091505090565b60606000611d9560076128ac565b905060008167ffffffffffffffff811115611db357611db2613fed565b5b604051908082528060200260200182016040528015611dec57816020015b611dd9613797565b815260200190600190039081611dd15790505b50905060008080600090505b848110156120cf5760011515600b6000600184611e15919061474e565b815260200190815260200160002060050160019054906101000a900460ff161515148015611e76575060001515600b6000600184611e53919061474e565b815260200190815260200160002060050160029054906101000a900460ff161515145b156120bc57600181611e88919061474e565b91506000600b60008481526020019081526020016000209050806040518061010001604052908160008201548152602001600182018054611ec890614366565b80601f0160208091040260200160405190810160405280929190818152602001828054611ef490614366565b8015611f415780601f10611f1657610100808354040283529160200191611f41565b820191906000526020600020905b815481529060010190602001808311611f2457829003601f168201915b50505050508152602001600282018054611f5a90614366565b80601f0160208091040260200160405190810160405280929190818152602001828054611f8690614366565b8015611fd35780601f10611fa857610100808354040283529160200191611fd3565b820191906000526020600020905b815481529060010190602001808311611fb657829003601f168201915b505050505081526020016003820160009054906101000a900473ffffffffffffffffffffffffffffffffffffffff1673ffffffffffffffffffffffffffffffffffffffff1673ffffffffffffffffffffffffffffffffffffffff168152602001600482015481526020016005820160009054906101000a900460ff161515151581526020016005820160019054906101000a900460ff161515151581526020016005820160029054906101000a900460ff1615151515815250508585815181106120a05761209f6147ed565b5b60200260200101819052506001846120b8919061474e565b9350505b80806120c7906147a4565b915050611df8565b508294505050505090565b600b600082815260200190815260200160002060040154341015612133576040517f08c379a000000000000000000000000000000000000000000000000000000000815260040161212a90614aaa565b60405180910390fd5b600b600082815260200190815260200160002060030160009054906101000a900473ffffffffffffffffffffffffffffffffffffffff1673ffffffffffffffffffffffffffffffffffffffff166108fc349081150290604051600060405180830381858888f193505050501580156121af573d6000803e3d6000fd5b506121bb3033836125b2565b6121c53082610831565b33600b600083815260200190815260200160002060030160006101000a81548173ffffffffffffffffffffffffffffffffffffffff021916908373ffffffffffffffffffffffffffffffffffffffff1602179055506000600b600083815260200190815260200160002060050160016101000a81548160ff0219169083151502179055506000600b600083815260200190815260200160002060050160006101000a81548160ff0219169083151502179055507fbfb65628138c09651e2d128ff7666423c766f5abf98df843204ee859d30af4b3338260008060006040516122b1959493929190614c1d565b60405180910390a150565b6000600560008473ffffffffffffffffffffffffffffffffffffffff1673ffffffffffffffffffffffffffffffffffffffff16815260200190815260200160002060008373ffffffffffffffffffffffffffffffffffffffff1673ffffffffffffffffffffffffffffffffffffffff16815260200190815260200160002060009054906101000a900460ff16905092915050565b600061235c60076128ac565b905090565b600061236d6007612b92565b600061237960076128ac565b90506123853382612ba8565b61238f8187612bc6565b61239b81868686612c3a565b80915050949350505050565b60007f01ffc9a7000000000000000000000000000000000000000000000000000000007bffffffffffffffffffffffffffffffffffffffffffffffffffffffff1916827bffffffffffffffffffffffffffffffffffffffffffffffffffffffff1916149050919050565b61241a81612e7e565b612459576040517f08c379a000000000000000000000000000000000000000000000000000000000815260040161245090614868565b60405180910390fd5b50565b600033905090565b816004600083815260200190815260200160002060006101000a81548173ffffffffffffffffffffffffffffffffffffffff021916908373ffffffffffffffffffffffffffffffffffffffff160217905550808273ffffffffffffffffffffffffffffffffffffffff166124d783611149565b73ffffffffffffffffffffffffffffffffffffffff167f8c5be1e5ebec7d5bd14f71427d1e84f3dd0314c0f7b2291e5b200ac8c7c3b92560405160405180910390a45050565b60008061252983611149565b90508073ffffffffffffffffffffffffffffffffffffffff168473ffffffffffffffffffffffffffffffffffffffff16148061256b575061256a81856122bc565b5b806125a957508373ffffffffffffffffffffffffffffffffffffffff16612591846107eb565b73ffffffffffffffffffffffffffffffffffffffff16145b91505092915050565b8273ffffffffffffffffffffffffffffffffffffffff166125d282611149565b73ffffffffffffffffffffffffffffffffffffffff1614612628576040517f08c379a000000000000000000000000000000000000000000000000000000000815260040161261f90614ce2565b60405180910390fd5b600073ffffffffffffffffffffffffffffffffffffffff168273ffffffffffffffffffffffffffffffffffffffff161415612698576040517f08c379a000000000000000000000000000000000000000000000000000000000815260040161268f90614d74565b60405180910390fd5b6126a58383836001612ebf565b8273ffffffffffffffffffffffffffffffffffffffff166126c582611149565b73ffffffffffffffffffffffffffffffffffffffff161461271b576040517f08c379a000000000000000000000000000000000000000000000000000000000815260040161271290614ce2565b60405180910390fd5b6004600082815260200190815260200160002060006101000a81549073ffffffffffffffffffffffffffffffffffffffff02191690556001600360008573ffffffffffffffffffffffffffffffffffffffff1673ffffffffffffffffffffffffffffffffffffffff168152602001908152602001600020600082825403925050819055506001600360008473ffffffffffffffffffffffffffffffffffffffff1673ffffffffffffffffffffffffffffffffffffffff16815260200190815260200160002060008282540192505081905550816002600083815260200190815260200160002060006101000a81548173ffffffffffffffffffffffffffffffffffffffff021916908373ffffffffffffffffffffffffffffffffffffffff160217905550808273ffffffffffffffffffffffffffffffffffffffff168473ffffffffffffffffffffffffffffffffffffffff167fddf252ad1be2c89b69c2b068fc378daa952ba7f163c4a11628f55a4df523b3ef60405160405180910390a46128a78383836001612fe5565b505050565b600081600001549050919050565b60006002600083815260200190815260200160002060009054906101000a900473ffffffffffffffffffffffffffffffffffffffff169050919050565b61290081612feb565b600060066000838152602001908152602001600020805461292090614366565b9050146129475760066000828152602001908152602001600020600061294691906137f8565b5b50565b8173ffffffffffffffffffffffffffffffffffffffff168373ffffffffffffffffffffffffffffffffffffffff1614156129b9576040517f08c379a00000000000000000000000000000000000000000000000000000000081526004016129b090614de0565b60405180910390fd5b80600560008573ffffffffffffffffffffffffffffffffffffffff1673ffffffffffffffffffffffffffffffffffffffff16815260200190815260200160002060008473ffffffffffffffffffffffffffffffffffffffff1673ffffffffffffffffffffffffffffffffffffffff16815260200190815260200160002060006101000a81548160ff0219169083151502179055508173ffffffffffffffffffffffffffffffffffffffff168373ffffffffffffffffffffffffffffffffffffffff167f17307eab39ab6107e8899845ad3d59bd9653f200f220920489ca2b5937696c3183604051612aaa919061398f565b60405180910390a3505050565b612ac28484846125b2565b612ace84848484613139565b612b0d576040517f08c379a0000000000000000000000000000000000000000000000000000000008152600401612b0490614e72565b60405180910390fd5b50505050565b606060405180602001604052806000815250905090565b6060612b3582612411565b6000612b3f612b13565b90506000815111612b5f5760405180602001604052806000815250612b8a565b80612b69846132d0565b604051602001612b7a929190614bf9565b6040516020818303038152906040525b915050919050565b6001816000016000828254019250508190555050565b612bc28282604051806020016040528060008152506133a8565b5050565b612bcf82612e7e565b612c0e576040517f08c379a0000000000000000000000000000000000000000000000000000000008152600401612c0590614f04565b60405180910390fd5b80600660008481526020019081526020016000209080519060200190612c35929190613838565b505050565b600a54341015612c7f576040517f08c379a0000000000000000000000000000000000000000000000000000000008152600401612c7690614f96565b60405180910390fd5b60008111612cc2576040517f08c379a0000000000000000000000000000000000000000000000000000000008152600401612cb990615028565b60405180910390fd5b6040518061010001604052808581526020018481526020018381526020013373ffffffffffffffffffffffffffffffffffffffff16815260200182815260200160011515815260200160011515815260200160001515815250600b6000868152602001908152602001600020600082015181600001556020820151816001019080519060200190612d54929190613838565b506040820151816002019080519060200190612d71929190613838565b5060608201518160030160006101000a81548173ffffffffffffffffffffffffffffffffffffffff021916908373ffffffffffffffffffffffffffffffffffffffff1602179055506080820151816004015560a08201518160050160006101000a81548160ff02191690831515021790555060c08201518160050160016101000a81548160ff02191690831515021790555060e08201518160050160026101000a81548160ff021916908315150217905550905050612e313330866125b2565b7f5727b12237e80d9214b2661c2a41ba39d27fb93c2008820e559063f931728c1184848433856001806000604051612e70989796959493929190615048565b60405180910390a150505050565b60008073ffffffffffffffffffffffffffffffffffffffff16612ea0836128ba565b73ffffffffffffffffffffffffffffffffffffffff1614159050919050565b6001811115612fdf57600073ffffffffffffffffffffffffffffffffffffffff168473ffffffffffffffffffffffffffffffffffffffff1614612f535780600360008673ffffffffffffffffffffffffffffffffffffffff1673ffffffffffffffffffffffffffffffffffffffff1681526020019081526020016000206000828254612f4b91906150d4565b925050819055505b600073ffffffffffffffffffffffffffffffffffffffff168373ffffffffffffffffffffffffffffffffffffffff1614612fde5780600360008573ffffffffffffffffffffffffffffffffffffffff1673ffffffffffffffffffffffffffffffffffffffff1681526020019081526020016000206000828254612fd6919061474e565b925050819055505b5b50505050565b50505050565b6000612ff682611149565b9050613006816000846001612ebf565b61300f82611149565b90506004600083815260200190815260200160002060006101000a81549073ffffffffffffffffffffffffffffffffffffffff02191690556001600360008373ffffffffffffffffffffffffffffffffffffffff1673ffffffffffffffffffffffffffffffffffffffff168152602001908152602001600020600082825403925050819055506002600083815260200190815260200160002060006101000a81549073ffffffffffffffffffffffffffffffffffffffff021916905581600073ffffffffffffffffffffffffffffffffffffffff168273ffffffffffffffffffffffffffffffffffffffff167fddf252ad1be2c89b69c2b068fc378daa952ba7f163c4a11628f55a4df523b3ef60405160405180910390a4613135816000846001612fe5565b5050565b600061315a8473ffffffffffffffffffffffffffffffffffffffff16613403565b156132c3578373ffffffffffffffffffffffffffffffffffffffff1663150b7a0261318361245c565b8786866040518563ffffffff1660e01b81526004016131a5949392919061515d565b602060405180830381600087803b1580156131bf57600080fd5b505af19250505080156131f057506040513d601f19601f820116820180604052508101906131ed91906151be565b60015b613273573d8060008114613220576040519150601f19603f3d011682016040523d82523d6000602084013e613225565b606091505b5060008151141561326b576040517f08c379a000000000000000000000000000000000000000000000000000000000815260040161326290614e72565b60405180910390fd5b805181602001fd5b63150b7a0260e01b7bffffffffffffffffffffffffffffffffffffffffffffffffffffffff1916817bffffffffffffffffffffffffffffffffffffffffffffffffffffffff1916149150506132c8565b600190505b949350505050565b6060600060016132df84613426565b01905060008167ffffffffffffffff8111156132fe576132fd613fed565b5b6040519080825280601f01601f1916602001820160405280156133305781602001600182028036833780820191505090505b509050600082602001820190505b60011561339d578080600190039150507f3031323334353637383961626364656600000000000000000000000000000000600a86061a8153600a8581613387576133866151eb565b5b04945060008514156133985761339d565b61333e565b819350505050919050565b6133b28383613579565b6133bf6000848484613139565b6133fe576040517f08c379a00000000000000000000000000000000000000000000000000000000081526004016133f590614e72565b60405180910390fd5b505050565b6000808273ffffffffffffffffffffffffffffffffffffffff163b119050919050565b600080600090507a184f03e93ff9f4daa797ed6e38ed64bf6a1f0100000000000000008310613484577a184f03e93ff9f4daa797ed6e38ed64bf6a1f010000000000000000838161347a576134796151eb565b5b0492506040810190505b6d04ee2d6d415b85acef810000000083106134c1576d04ee2d6d415b85acef810000000083816134b7576134b66151eb565b5b0492506020810190505b662386f26fc1000083106134f057662386f26fc1000083816134e6576134e56151eb565b5b0492506010810190505b6305f5e1008310613519576305f5e100838161350f5761350e6151eb565b5b0492506008810190505b612710831061353e576127108381613534576135336151eb565b5b0492506004810190505b606483106135615760648381613557576135566151eb565b5b0492506002810190505b600a8310613570576001810190505b80915050919050565b600073ffffffffffffffffffffffffffffffffffffffff168273ffffffffffffffffffffffffffffffffffffffff1614156135e9576040517f08c379a00000000000000000000000000000000000000000000000000000000081526004016135e090615266565b60405180910390fd5b6135f281612e7e565b15613632576040517f08c379a0000000000000000000000000000000000000000000000000000000008152600401613629906152d2565b60405180910390fd5b613640600083836001612ebf565b61364981612e7e565b15613689576040517f08c379a0000000000000000000000000000000000000000000000000000000008152600401613680906152d2565b60405180910390fd5b6001600360008473ffffffffffffffffffffffffffffffffffffffff1673ffffffffffffffffffffffffffffffffffffffff16815260200190815260200160002060008282540192505081905550816002600083815260200190815260200160002060006101000a81548173ffffffffffffffffffffffffffffffffffffffff021916908373ffffffffffffffffffffffffffffffffffffffff160217905550808273ffffffffffffffffffffffffffffffffffffffff16600073ffffffffffffffffffffffffffffffffffffffff167fddf252ad1be2c89b69c2b068fc378daa952ba7f163c4a11628f55a4df523b3ef60405160405180910390a4613793600083836001612fe5565b5050565b604051806101000160405280600081526020016060815260200160608152602001600073ffffffffffffffffffffffffffffffffffffffff168152602001600081526020016000151581526020016000151581526020016000151581525090565b50805461380490614366565b6000825580601f106138165750613835565b601f01602090049060005260206000209081019061383491906138be565b5b50565b82805461384490614366565b90600052602060002090601f01602090048101928261386657600085556138ad565b82601f1061387f57805160ff19168380011785556138ad565b828001600101855582156138ad579182015b828111156138ac578251825591602001919060010190613891565b5b5090506138ba91906138be565b5090565b5b808211156138d75760008160009055506001016138bf565b5090565b6000604051905090565b600080fd5b600080fd5b60007fffffffff0000000000000000000000000000000000000000000000000000000082169050919050565b613924816138ef565b811461392f57600080fd5b50565b6000813590506139418161391b565b92915050565b60006020828403121561395d5761395c6138e5565b5b600061396b84828501613932565b91505092915050565b60008115159050919050565b61398981613974565b82525050565b60006020820190506139a46000830184613980565b92915050565b600081519050919050565b600082825260208201905092915050565b60005b838110156139e45780820151818401526020810190506139c9565b838111156139f3576000848401525b50505050565b6000601f19601f8301169050919050565b6000613a15826139aa565b613a1f81856139b5565b9350613a2f8185602086016139c6565b613a38816139f9565b840191505092915050565b60006020820190508181036000830152613a5d8184613a0a565b905092915050565b6000819050919050565b613a7881613a65565b8114613a8357600080fd5b50565b600081359050613a9581613a6f565b92915050565b600060208284031215613ab157613ab06138e5565b5b6000613abf84828501613a86565b91505092915050565b600073ffffffffffffffffffffffffffffffffffffffff82169050919050565b6000613af382613ac8565b9050919050565b613b0381613ae8565b82525050565b6000602082019050613b1e6000830184613afa565b92915050565b613b2d81613ae8565b8114613b3857600080fd5b50565b600081359050613b4a81613b24565b92915050565b60008060408385031215613b6757613b666138e5565b5b6000613b7585828601613b3b565b9250506020613b8685828601613a86565b9150509250929050565b600080600060608486031215613ba957613ba86138e5565b5b6000613bb786828701613b3b565b9350506020613bc886828701613b3b565b9250506040613bd986828701613a86565b9150509250925092565b60008060408385031215613bfa57613bf96138e5565b5b6000613c0885828601613a86565b9250506020613c1985828601613a86565b9150509250929050565b600081519050919050565b600082825260208201905092915050565b6000819050602082019050919050565b613c5881613a65565b82525050565b600082825260208201905092915050565b6000613c7a826139aa565b613c848185613c5e565b9350613c948185602086016139c6565b613c9d816139f9565b840191505092915050565b6000613cb382613ac8565b9050919050565b613cc381613ca8565b82525050565b613cd281613974565b82525050565b600061010083016000830151613cf16000860182613c4f565b5060208301518482036020860152613d098282613c6f565b91505060408301518482036040860152613d238282613c6f565b9150506060830151613d386060860182613cba565b506080830151613d4b6080860182613c4f565b5060a0830151613d5e60a0860182613cc9565b5060c0830151613d7160c0860182613cc9565b5060e0830151613d8460e0860182613cc9565b508091505092915050565b6000613d9b8383613cd8565b905092915050565b6000602082019050919050565b6000613dbb82613c23565b613dc58185613c2e565b935083602082028501613dd785613c3f565b8060005b85811015613e135784840389528151613df48582613d8f565b9450613dff83613da3565b925060208a01995050600181019050613ddb565b50829750879550505050505092915050565b60006020820190508181036000830152613e3f8184613db0565b905092915050565b613e5081613a65565b82525050565b6000602082019050613e6b6000830184613e47565b92915050565b600060208284031215613e8757613e866138e5565b5b6000613e9584828501613b3b565b91505092915050565b600061010083016000830151613eb76000860182613c4f565b5060208301518482036020860152613ecf8282613c6f565b91505060408301518482036040860152613ee98282613c6f565b9150506060830151613efe6060860182613cba565b506080830151613f116080860182613c4f565b5060a0830151613f2460a0860182613cc9565b5060c0830151613f3760c0860182613cc9565b5060e0830151613f4a60e0860182613cc9565b508091505092915050565b60006020820190508181036000830152613f6f8184613e9e565b905092915050565b613f8081613974565b8114613f8b57600080fd5b50565b600081359050613f9d81613f77565b92915050565b60008060408385031215613fba57613fb96138e5565b5b6000613fc885828601613b3b565b9250506020613fd985828601613f8e565b9150509250929050565b600080fd5b600080fd5b7f4e487b7100000000000000000000000000000000000000000000000000000000600052604160045260246000fd5b614025826139f9565b810181811067ffffffffffffffff8211171561404457614043613fed565b5b80604052505050565b60006140576138db565b9050614063828261401c565b919050565b600067ffffffffffffffff82111561408357614082613fed565b5b61408c826139f9565b9050602081019050919050565b82818337600083830152505050565b60006140bb6140b684614068565b61404d565b9050828152602081018484840111156140d7576140d6613fe8565b5b6140e2848285614099565b509392505050565b600082601f8301126140ff576140fe613fe3565b5b813561410f8482602086016140a8565b91505092915050565b60008060008060808587031215614132576141316138e5565b5b600061414087828801613b3b565b945050602061415187828801613b3b565b935050604061416287828801613a86565b925050606085013567ffffffffffffffff811115614183576141826138ea565b5b61418f878288016140ea565b91505092959194509250565b600080604083850312156141b2576141b16138e5565b5b60006141c085828601613b3b565b92505060206141d185828601613b3b565b9150509250929050565b600067ffffffffffffffff8211156141f6576141f5613fed565b5b6141ff826139f9565b9050602081019050919050565b600061421f61421a846141db565b61404d565b90508281526020810184848401111561423b5761423a613fe8565b5b614246848285614099565b509392505050565b600082601f83011261426357614262613fe3565b5b813561427384826020860161420c565b91505092915050565b60008060008060808587031215614296576142956138e5565b5b600085013567ffffffffffffffff8111156142b4576142b36138ea565b5b6142c08782880161424e565b945050602085013567ffffffffffffffff8111156142e1576142e06138ea565b5b6142ed8782880161424e565b935050604085013567ffffffffffffffff81111561430e5761430d6138ea565b5b61431a8782880161424e565b925050606061432b87828801613a86565b91505092959194509250565b7f4e487b7100000000000000000000000000000000000000000000000000000000600052602260045260246000fd5b6000600282049050600182168061437e57607f821691505b6020821081141561439257614391614337565b5b50919050565b7f4552433732313a20617070726f76616c20746f2063757272656e74206f776e6560008201527f7200000000000000000000000000000000000000000000000000000000000000602082015250565b60006143f46021836139b5565b91506143ff82614398565b604082019050919050565b60006020820190508181036000830152614423816143e7565b9050919050565b7f4552433732313a20617070726f76652063616c6c6572206973206e6f7420746f60008201527f6b656e206f776e6572206f7220617070726f76656420666f7220616c6c000000602082015250565b6000614486603d836139b5565b91506144918261442a565b604082019050919050565b600060208201905081810360008301526144b581614479565b9050919050565b7f4552433732313a2063616c6c6572206973206e6f7420746f6b656e206f776e6560008201527f72206f7220617070726f76656400000000000000000000000000000000000000602082015250565b6000614518602d836139b5565b9150614523826144bc565b604082019050919050565b600060208201905081810360008301526145478161450b565b9050919050565b7f53656e6420656e6f75676820657468657220746f2073656c6c206120736e656160008201527f6b6572732028302e303120657468657229000000000000000000000000000000602082015250565b60006145aa6031836139b5565b91506145b58261454e565b604082019050919050565b600060208201905081810360008301526145d98161459d565b9050919050565b7f596f75277265206e6f742061206f776e6572206f66207468697320736e65616b60008201527f6572000000000000000000000000000000000000000000000000000000000000602082015250565b600061463c6022836139b5565b9150614647826145e0565b604082019050919050565b6000602082019050818103600083015261466b8161462f565b9050919050565b7f4e487b7100000000000000000000000000000000000000000000000000000000600052601160045260246000fd5b60006146ac82613a65565b91506146b783613a65565b9250817fffffffffffffffffffffffffffffffffffffffffffffffffffffffffffffffff04831182151516156146f0576146ef614672565b5b828202905092915050565b600060a0820190506147106000830188613e47565b61471d6020830187613e47565b61472a6040830186613980565b6147376060830185613980565b6147446080830184613980565b9695505050505050565b600061475982613a65565b915061476483613a65565b9250827fffffffffffffffffffffffffffffffffffffffffffffffffffffffffffffffff0382111561479957614798614672565b5b828201905092915050565b60006147af82613a65565b91507fffffffffffffffffffffffffffffffffffffffffffffffffffffffffffffffff8214156147e2576147e1614672565b5b600182019050919050565b7f4e487b7100000000000000000000000000000000000000000000000000000000600052603260045260246000fd5b7f4552433732313a20696e76616c696420746f6b656e2049440000000000000000600082015250565b60006148526018836139b5565b915061485d8261481c565b602082019050919050565b6000602082019050818103600083015261488181614845565b9050919050565b7f4552433732313a2061646472657373207a65726f206973206e6f74206120766160008201527f6c6964206f776e65720000000000000000000000000000000000000000000000602082015250565b60006148e46029836139b5565b91506148ef82614888565b604082019050919050565b60006020820190508181036000830152614913816148d7565b9050919050565b7f596f75277265206e6f74207468652061646d696e000000000000000000000000600082015250565b60006149506014836139b5565b915061495b8261491a565b602082019050919050565b6000602082019050818103600083015261497f81614943565b9050919050565b7f4f6e6c79206f776e65722063616e207769746864726177000000000000000000600082015250565b60006149bc6017836139b5565b91506149c782614986565b602082019050919050565b600060208201905081810360008301526149eb816149af565b9050919050565b7f536e65616b6572206973206e6f7420696e2073656c6c00000000000000000000600082015250565b6000614a286016836139b5565b9150614a33826149f2565b602082019050919050565b60006020820190508181036000830152614a5781614a1b565b9050919050565b7f4e6f7420656e6f7567682066756e647300000000000000000000000000000000600082015250565b6000614a946010836139b5565b9150614a9f82614a5e565b602082019050919050565b60006020820190508181036000830152614ac381614a87565b9050919050565b600060c082019050614adf6000830189613afa565b614aec6020830188613e47565b614af96040830187613e47565b614b066060830186613980565b614b136080830185613980565b614b2060a0830184613980565b979650505050505050565b7f4f6e6c79206f776e65722063616e20757064617465206c697374696e6720707260008201527f6963650000000000000000000000000000000000000000000000000000000000602082015250565b6000614b876023836139b5565b9150614b9282614b2b565b604082019050919050565b60006020820190508181036000830152614bb681614b7a565b9050919050565b600081905092915050565b6000614bd3826139aa565b614bdd8185614bbd565b9350614bed8185602086016139c6565b80840191505092915050565b6000614c058285614bc8565b9150614c118284614bc8565b91508190509392505050565b600060a082019050614c326000830188613afa565b614c3f6020830187613e47565b614c4c6040830186613980565b614c596060830185613980565b614c666080830184613980565b9695505050505050565b7f4552433732313a207472616e736665722066726f6d20696e636f72726563742060008201527f6f776e6572000000000000000000000000000000000000000000000000000000602082015250565b6000614ccc6025836139b5565b9150614cd782614c70565b604082019050919050565b60006020820190508181036000830152614cfb81614cbf565b9050919050565b7f4552433732313a207472616e7366657220746f20746865207a65726f2061646460008201527f7265737300000000000000000000000000000000000000000000000000000000602082015250565b6000614d5e6024836139b5565b9150614d6982614d02565b604082019050919050565b60006020820190508181036000830152614d8d81614d51565b9050919050565b7f4552433732313a20617070726f766520746f2063616c6c657200000000000000600082015250565b6000614dca6019836139b5565b9150614dd582614d94565b602082019050919050565b60006020820190508181036000830152614df981614dbd565b9050919050565b7f4552433732313a207472616e7366657220746f206e6f6e20455243373231526560008201527f63656976657220696d706c656d656e7465720000000000000000000000000000602082015250565b6000614e5c6032836139b5565b9150614e6782614e00565b604082019050919050565b60006020820190508181036000830152614e8b81614e4f565b9050919050565b7f45524337323155524953746f726167653a2055524920736574206f66206e6f6e60008201527f6578697374656e7420746f6b656e000000000000000000000000000000000000602082015250565b6000614eee602e836139b5565b9150614ef982614e92565b604082019050919050565b60006020820190508181036000830152614f1d81614ee1565b9050919050565b7f486f706566756c6c792073656e64696e672074686520636f727265637420707260008201527f6963650000000000000000000000000000000000000000000000000000000000602082015250565b6000614f806023836139b5565b9150614f8b82614f24565b604082019050919050565b60006020820190508181036000830152614faf81614f73565b9050919050565b7f4d616b652073757265207468652070726963652069736e2774206e656761746960008201527f7665000000000000000000000000000000000000000000000000000000000000602082015250565b60006150126022836139b5565b915061501d82614fb6565b604082019050919050565b6000602082019050818103600083015261504181615005565b9050919050565b60006101008201905061505e600083018b613e47565b8181036020830152615070818a613a0a565b905081810360408301526150848189613a0a565b90506150936060830188613afa565b6150a06080830187613e47565b6150ad60a0830186613980565b6150ba60c0830185613980565b6150c760e0830184613980565b9998505050505050505050565b60006150df82613a65565b91506150ea83613a65565b9250828210156150fd576150fc614672565b5b828203905092915050565b600081519050919050565b600082825260208201905092915050565b600061512f82615108565b6151398185615113565b93506151498185602086016139c6565b615152816139f9565b840191505092915050565b60006080820190506151726000830187613afa565b61517f6020830186613afa565b61518c6040830185613e47565b818103606083015261519e8184615124565b905095945050505050565b6000815190506151b88161391b565b92915050565b6000602082840312156151d4576151d36138e5565b5b60006151e2848285016151a9565b91505092915050565b7f4e487b7100000000000000000000000000000000000000000000000000000000600052601260045260246000fd5b7f4552433732313a206d696e7420746f20746865207a65726f2061646472657373600082015250565b60006152506020836139b5565b915061525b8261521a565b602082019050919050565b6000602082019050818103600083015261527f81615243565b9050919050565b7f4552433732313a20746f6b656e20616c7265616479206d696e74656400000000600082015250565b60006152bc601c836139b5565b91506152c782615286565b602082019050919050565b600060208201905081810360008301526152eb816152af565b905091905056fea2646970667358221220859232b9f2cc85cfff413ee68ac659be85e590df2f5a6517c4c10264181dcba564736f6c63430008090033",
  "devdoc": {
    "kind": "dev",
    "methods": {
      "approve(address,uint256)": {
        "details": "See {IERC721-approve}."
      },
      "balanceOf(address)": {
        "details": "See {IERC721-balanceOf}."
      },
      "getApproved(uint256)": {
        "details": "See {IERC721-getApproved}."
      },
      "isApprovedForAll(address,address)": {
        "details": "See {IERC721-isApprovedForAll}."
      },
      "name()": {
        "details": "See {IERC721Metadata-name}."
      },
      "ownerOf(uint256)": {
        "details": "See {IERC721-ownerOf}."
      },
      "safeTransferFrom(address,address,uint256)": {
        "details": "See {IERC721-safeTransferFrom}."
      },
      "safeTransferFrom(address,address,uint256,bytes)": {
        "details": "See {IERC721-safeTransferFrom}."
      },
      "setApprovalForAll(address,bool)": {
        "details": "See {IERC721-setApprovalForAll}."
      },
      "supportsInterface(bytes4)": {
        "details": "See {IERC165-supportsInterface}."
      },
      "symbol()": {
        "details": "See {IERC721Metadata-symbol}."
      },
      "tokenURI(uint256)": {
        "details": "See {IERC721Metadata-tokenURI}."
      },
      "transferFrom(address,address,uint256)": {
        "details": "See {IERC721-transferFrom}."
      }
    },
    "version": 1
  },
  "userdoc": {
    "kind": "user",
    "methods": {},
    "version": 1
  },
  "storageLayout": {
    "storage": [
      {
        "astId": 25,
        "contract": "contracts/Snyker.sol:Snyker",
        "label": "_name",
        "offset": 0,
        "slot": "0",
        "type": "t_string_storage"
      },
      {
        "astId": 27,
        "contract": "contracts/Snyker.sol:Snyker",
        "label": "_symbol",
        "offset": 0,
        "slot": "1",
        "type": "t_string_storage"
      },
      {
        "astId": 31,
        "contract": "contracts/Snyker.sol:Snyker",
        "label": "_owners",
        "offset": 0,
        "slot": "2",
        "type": "t_mapping(t_uint256,t_address)"
      },
      {
        "astId": 35,
        "contract": "contracts/Snyker.sol:Snyker",
        "label": "_balances",
        "offset": 0,
        "slot": "3",
        "type": "t_mapping(t_address,t_uint256)"
      },
      {
        "astId": 39,
        "contract": "contracts/Snyker.sol:Snyker",
        "label": "_tokenApprovals",
        "offset": 0,
        "slot": "4",
        "type": "t_mapping(t_uint256,t_address)"
      },
      {
        "astId": 45,
        "contract": "contracts/Snyker.sol:Snyker",
        "label": "_operatorApprovals",
        "offset": 0,
        "slot": "5",
        "type": "t_mapping(t_address,t_mapping(t_address,t_bool))"
      },
      {
        "astId": 1091,
        "contract": "contracts/Snyker.sol:Snyker",
        "label": "_tokenURIs",
        "offset": 0,
        "slot": "6",
        "type": "t_mapping(t_uint256,t_string_storage)"
      },
      {
        "astId": 2747,
        "contract": "contracts/Snyker.sol:Snyker",
        "label": "_tokenIds",
        "offset": 0,
        "slot": "7",
        "type": "t_struct(Counter)1588_storage"
      },
      {
        "astId": 2750,
        "contract": "contracts/Snyker.sol:Snyker",
        "label": "_itemsSold",
        "offset": 0,
        "slot": "8",
        "type": "t_struct(Counter)1588_storage"
      },
      {
        "astId": 2752,
        "contract": "contracts/Snyker.sol:Snyker",
        "label": "admin",
        "offset": 0,
        "slot": "9",
        "type": "t_address_payable"
      },
      {
        "astId": 2755,
        "contract": "contracts/Snyker.sol:Snyker",
        "label": "priceMarket",
        "offset": 0,
        "slot": "10",
        "type": "t_uint256"
      },
      {
        "astId": 2837,
        "contract": "contracts/Snyker.sol:Snyker",
        "label": "idOfSneaker",
        "offset": 0,
        "slot": "11",
        "type": "t_mapping(t_uint256,t_struct(Sneaker)2772_storage)"
      }
    ],
    "types": {
      "t_address": {
        "encoding": "inplace",
        "label": "address",
        "numberOfBytes": "20"
      },
      "t_address_payable": {
        "encoding": "inplace",
        "label": "address payable",
        "numberOfBytes": "20"
      },
      "t_bool": {
        "encoding": "inplace",
        "label": "bool",
        "numberOfBytes": "1"
      },
      "t_mapping(t_address,t_bool)": {
        "encoding": "mapping",
        "key": "t_address",
        "label": "mapping(address => bool)",
        "numberOfBytes": "32",
        "value": "t_bool"
      },
      "t_mapping(t_address,t_mapping(t_address,t_bool))": {
        "encoding": "mapping",
        "key": "t_address",
        "label": "mapping(address => mapping(address => bool))",
        "numberOfBytes": "32",
        "value": "t_mapping(t_address,t_bool)"
      },
      "t_mapping(t_address,t_uint256)": {
        "encoding": "mapping",
        "key": "t_address",
        "label": "mapping(address => uint256)",
        "numberOfBytes": "32",
        "value": "t_uint256"
      },
      "t_mapping(t_uint256,t_address)": {
        "encoding": "mapping",
        "key": "t_uint256",
        "label": "mapping(uint256 => address)",
        "numberOfBytes": "32",
        "value": "t_address"
      },
      "t_mapping(t_uint256,t_string_storage)": {
        "encoding": "mapping",
        "key": "t_uint256",
        "label": "mapping(uint256 => string)",
        "numberOfBytes": "32",
        "value": "t_string_storage"
      },
      "t_mapping(t_uint256,t_struct(Sneaker)2772_storage)": {
        "encoding": "mapping",
        "key": "t_uint256",
        "label": "mapping(uint256 => struct Snyker.Sneaker)",
        "numberOfBytes": "32",
        "value": "t_struct(Sneaker)2772_storage"
      },
      "t_string_storage": {
        "encoding": "bytes",
        "label": "string",
        "numberOfBytes": "32"
      },
      "t_struct(Counter)1588_storage": {
        "encoding": "inplace",
        "label": "struct Counters.Counter",
        "members": [
          {
            "astId": 1587,
            "contract": "contracts/Snyker.sol:Snyker",
            "label": "_value",
            "offset": 0,
            "slot": "0",
            "type": "t_uint256"
          }
        ],
        "numberOfBytes": "32"
      },
      "t_struct(Sneaker)2772_storage": {
        "encoding": "inplace",
        "label": "struct Snyker.Sneaker",
        "members": [
          {
            "astId": 2757,
            "contract": "contracts/Snyker.sol:Snyker",
            "label": "tokenId",
            "offset": 0,
            "slot": "0",
            "type": "t_uint256"
          },
          {
            "astId": 2759,
            "contract": "contracts/Snyker.sol:Snyker",
            "label": "name",
            "offset": 0,
            "slot": "1",
            "type": "t_string_storage"
          },
          {
            "astId": 2761,
            "contract": "contracts/Snyker.sol:Snyker",
            "label": "description",
            "offset": 0,
            "slot": "2",
            "type": "t_string_storage"
          },
          {
            "astId": 2763,
            "contract": "contracts/Snyker.sol:Snyker",
            "label": "owner",
            "offset": 0,
            "slot": "3",
            "type": "t_address_payable"
          },
          {
            "astId": 2765,
            "contract": "contracts/Snyker.sol:Snyker",
            "label": "price",
            "offset": 0,
            "slot": "4",
            "type": "t_uint256"
          },
          {
            "astId": 2767,
            "contract": "contracts/Snyker.sol:Snyker",
            "label": "firstSale",
            "offset": 0,
            "slot": "5",
            "type": "t_bool"
          },
          {
            "astId": 2769,
            "contract": "contracts/Snyker.sol:Snyker",
            "label": "isInSale",
            "offset": 1,
            "slot": "5",
            "type": "t_bool"
          },
          {
            "astId": 2771,
            "contract": "contracts/Snyker.sol:Snyker",
            "label": "isDeleted",
            "offset": 2,
            "slot": "5",
            "type": "t_bool"
          }
        ],
        "numberOfBytes": "192"
      },
      "t_uint256": {
        "encoding": "inplace",
        "label": "uint256",
        "numberOfBytes": "32"
      }
    }
  }
}