{
  "address": "0x5FbDB2315678afecb367f032d93F642f64180aa3",
  "abi": [
    {
      "inputs": [],
      "stateMutability": "nonpayable",
      "type": "constructor"
    },
    {
      "anonymous": false,
      "inputs": [
        {
          "indexed": true,
          "internalType": "address",
          "name": "owner",
          "type": "address"
        },
        {
          "indexed": true,
          "internalType": "address",
          "name": "approved",
          "type": "address"
        },
        {
          "indexed": true,
          "internalType": "uint256",
          "name": "tokenId",
          "type": "uint256"
        }
      ],
      "name": "Approval",
      "type": "event"
    },
    {
      "anonymous": false,
      "inputs": [
        {
          "indexed": true,
          "internalType": "address",
          "name": "owner",
          "type": "address"
        },
        {
          "indexed": true,
          "internalType": "address",
          "name": "operator",
          "type": "address"
        },
        {
          "indexed": false,
          "internalType": "bool",
          "name": "approved",
          "type": "bool"
        }
      ],
      "name": "ApprovalForAll",
      "type": "event"
    },
    {
      "anonymous": false,
      "inputs": [
        {
          "indexed": true,
          "internalType": "address",
          "name": "from",
          "type": "address"
        },
        {
          "indexed": true,
          "internalType": "address",
          "name": "to",
          "type": "address"
        },
        {
          "indexed": true,
          "internalType": "uint256",
          "name": "tokenId",
          "type": "uint256"
        }
      ],
      "name": "Transfer",
      "type": "event"
    },
    {
      "anonymous": false,
      "inputs": [
        {
          "indexed": false,
          "internalType": "uint256",
          "name": "priceMarket",
          "type": "uint256"
        }
      ],
      "name": "listPriceUpdated",
      "type": "event"
    },
    {
      "anonymous": false,
      "inputs": [
        {
          "indexed": false,
          "internalType": "address",
          "name": "owner",
          "type": "address"
        },
        {
          "indexed": false,
          "internalType": "uint256",
          "name": "tokenId",
          "type": "uint256"
        },
        {
          "indexed": false,
          "internalType": "bool",
          "name": "isInSale",
          "type": "bool"
        },
        {
          "indexed": false,
          "internalType": "bool",
          "name": "firstSale",
          "type": "bool"
        }
      ],
      "name": "releaseExecuted",
      "type": "event"
    },
    {
      "anonymous": false,
      "inputs": [
        {
          "indexed": false,
          "internalType": "address",
          "name": "owner",
          "type": "address"
        },
        {
          "indexed": false,
          "internalType": "uint256",
          "name": "price",
          "type": "uint256"
        },
        {
          "indexed": false,
          "internalType": "uint256",
          "name": "tokenId",
          "type": "uint256"
        },
        {
          "indexed": false,
          "internalType": "bool",
          "name": "isInSale",
          "type": "bool"
        },
        {
          "indexed": false,
          "internalType": "bool",
          "name": "firstSale",
          "type": "bool"
        }
      ],
      "name": "saleExecuted",
      "type": "event"
    },
    {
      "anonymous": false,
      "inputs": [
        {
          "indexed": false,
          "internalType": "uint256",
          "name": "price",
          "type": "uint256"
        },
        {
          "indexed": false,
          "internalType": "uint256",
          "name": "tokenId",
          "type": "uint256"
        },
        {
          "indexed": false,
          "internalType": "bool",
          "name": "isInSale",
          "type": "bool"
        },
        {
          "indexed": false,
          "internalType": "bool",
          "name": "firstSale",
          "type": "bool"
        }
      ],
      "name": "sneakerSelled",
      "type": "event"
    },
    {
      "anonymous": false,
      "inputs": [
        {
          "indexed": false,
          "internalType": "uint256",
          "name": "tokenId",
          "type": "uint256"
        },
        {
          "indexed": false,
          "internalType": "string",
          "name": "name",
          "type": "string"
        },
        {
          "indexed": false,
          "internalType": "string",
          "name": "description",
          "type": "string"
        },
        {
          "indexed": false,
          "internalType": "address",
          "name": "owner",
          "type": "address"
        },
        {
          "indexed": false,
          "internalType": "uint256",
          "name": "price",
          "type": "uint256"
        },
        {
          "indexed": false,
          "internalType": "bool",
          "name": "firstSale",
          "type": "bool"
        },
        {
          "indexed": false,
          "internalType": "bool",
          "name": "isInSale",
          "type": "bool"
        }
      ],
      "name": "tokenCreated",
      "type": "event"
    },
    {
      "inputs": [
        {
          "internalType": "address",
          "name": "to",
          "type": "address"
        },
        {
          "internalType": "uint256",
          "name": "tokenId",
          "type": "uint256"
        }
      ],
      "name": "approve",
      "outputs": [],
      "stateMutability": "nonpayable",
      "type": "function"
    },
    {
      "inputs": [
        {
          "internalType": "address",
          "name": "owner",
          "type": "address"
        }
      ],
      "name": "balanceOf",
      "outputs": [
        {
          "internalType": "uint256",
          "name": "",
          "type": "uint256"
        }
      ],
      "stateMutability": "view",
      "type": "function"
    },
    {
      "inputs": [
        {
          "internalType": "string",
          "name": "tokenURI",
          "type": "string"
        },
        {
          "internalType": "string",
          "name": "name",
          "type": "string"
        },
        {
          "internalType": "string",
          "name": "description",
          "type": "string"
        },
        {
          "internalType": "uint256",
          "name": "price",
          "type": "uint256"
        }
      ],
      "name": "createToken",
      "outputs": [
        {
          "internalType": "uint256",
          "name": "",
          "type": "uint256"
        }
      ],
      "stateMutability": "payable",
      "type": "function"
    },
    {
      "inputs": [
        {
          "internalType": "uint256",
          "name": "tokenId",
          "type": "uint256"
        }
      ],
      "name": "executeRelease",
      "outputs": [],
      "stateMutability": "payable",
      "type": "function"
    },
    {
      "inputs": [
        {
          "internalType": "uint256",
          "name": "tokenId",
          "type": "uint256"
        }
      ],
      "name": "executeSale",
      "outputs": [],
      "stateMutability": "payable",
      "type": "function"
    },
    {
      "inputs": [],
      "name": "getAllNFTs",
      "outputs": [
        {
          "components": [
            {
              "internalType": "uint256",
              "name": "tokenId",
              "type": "uint256"
            },
            {
              "internalType": "string",
              "name": "name",
              "type": "string"
            },
            {
              "internalType": "string",
              "name": "description",
              "type": "string"
            },
            {
              "internalType": "address payable",
              "name": "owner",
              "type": "address"
            },
            {
              "internalType": "uint256",
              "name": "price",
              "type": "uint256"
            },
            {
              "internalType": "bool",
              "name": "firstSale",
              "type": "bool"
            },
            {
              "internalType": "bool",
              "name": "isInSale",
              "type": "bool"
            }
          ],
          "internalType": "struct Snyker.Sneaker[]",
          "name": "",
          "type": "tuple[]"
        }
      ],
      "stateMutability": "view",
      "type": "function"
    },
    {
      "inputs": [
        {
          "internalType": "uint256",
          "name": "tokenId",
          "type": "uint256"
        }
      ],
      "name": "getApproved",
      "outputs": [
        {
          "internalType": "address",
          "name": "",
          "type": "address"
        }
      ],
      "stateMutability": "view",
      "type": "function"
    },
    {
      "inputs": [],
      "name": "getCurrentToken",
      "outputs": [
        {
          "internalType": "uint256",
          "name": "",
          "type": "uint256"
        }
      ],
      "stateMutability": "view",
      "type": "function"
    },
    {
      "inputs": [],
      "name": "getLatestIdToListedToken",
      "outputs": [
        {
          "components": [
            {
              "internalType": "uint256",
              "name": "tokenId",
              "type": "uint256"
            },
            {
              "internalType": "string",
              "name": "name",
              "type": "string"
            },
            {
              "internalType": "string",
              "name": "description",
              "type": "string"
            },
            {
              "internalType": "address payable",
              "name": "owner",
              "type": "address"
            },
            {
              "internalType": "uint256",
              "name": "price",
              "type": "uint256"
            },
            {
              "internalType": "bool",
              "name": "firstSale",
              "type": "bool"
            },
            {
              "internalType": "bool",
              "name": "isInSale",
              "type": "bool"
            }
          ],
          "internalType": "struct Snyker.Sneaker",
          "name": "",
          "type": "tuple"
        }
      ],
      "stateMutability": "view",
      "type": "function"
    },
    {
      "inputs": [],
      "name": "getListPrice",
      "outputs": [
        {
          "internalType": "uint256",
          "name": "",
          "type": "uint256"
        }
      ],
      "stateMutability": "view",
      "type": "function"
    },
    {
      "inputs": [
        {
          "internalType": "uint256",
          "name": "tokenId",
          "type": "uint256"
        }
      ],
      "name": "getListedTokenForId",
      "outputs": [
        {
          "components": [
            {
              "internalType": "uint256",
              "name": "tokenId",
              "type": "uint256"
            },
            {
              "internalType": "string",
              "name": "name",
              "type": "string"
            },
            {
              "internalType": "string",
              "name": "description",
              "type": "string"
            },
            {
              "internalType": "address payable",
              "name": "owner",
              "type": "address"
            },
            {
              "internalType": "uint256",
              "name": "price",
              "type": "uint256"
            },
            {
              "internalType": "bool",
              "name": "firstSale",
              "type": "bool"
            },
            {
              "internalType": "bool",
              "name": "isInSale",
              "type": "bool"
            }
          ],
          "internalType": "struct Snyker.Sneaker",
          "name": "",
          "type": "tuple"
        }
      ],
      "stateMutability": "view",
      "type": "function"
    },
    {
      "inputs": [],
      "name": "getMyNFTs",
      "outputs": [
        {
          "components": [
            {
              "internalType": "uint256",
              "name": "tokenId",
              "type": "uint256"
            },
            {
              "internalType": "string",
              "name": "name",
              "type": "string"
            },
            {
              "internalType": "string",
              "name": "description",
              "type": "string"
            },
            {
              "internalType": "address payable",
              "name": "owner",
              "type": "address"
            },
            {
              "internalType": "uint256",
              "name": "price",
              "type": "uint256"
            },
            {
              "internalType": "bool",
              "name": "firstSale",
              "type": "bool"
            },
            {
              "internalType": "bool",
              "name": "isInSale",
              "type": "bool"
            }
          ],
          "internalType": "struct Snyker.Sneaker[]",
          "name": "",
          "type": "tuple[]"
        }
      ],
      "stateMutability": "view",
      "type": "function"
    },
    {
      "inputs": [
        {
          "internalType": "address",
          "name": "owner",
          "type": "address"
        },
        {
          "internalType": "address",
          "name": "operator",
          "type": "address"
        }
      ],
      "name": "isApprovedForAll",
      "outputs": [
        {
          "internalType": "bool",
          "name": "",
          "type": "bool"
        }
      ],
      "stateMutability": "view",
      "type": "function"
    },
    {
      "inputs": [],
      "name": "name",
      "outputs": [
        {
          "internalType": "string",
          "name": "",
          "type": "string"
        }
      ],
      "stateMutability": "view",
      "type": "function"
    },
    {
      "inputs": [
        {
          "internalType": "uint256",
          "name": "tokenId",
          "type": "uint256"
        }
      ],
      "name": "ownerOf",
      "outputs": [
        {
          "internalType": "address",
          "name": "",
          "type": "address"
        }
      ],
      "stateMutability": "view",
      "type": "function"
    },
    {
      "inputs": [
        {
          "internalType": "address",
          "name": "from",
          "type": "address"
        },
        {
          "internalType": "address",
          "name": "to",
          "type": "address"
        },
        {
          "internalType": "uint256",
          "name": "tokenId",
          "type": "uint256"
        }
      ],
      "name": "safeTransferFrom",
      "outputs": [],
      "stateMutability": "nonpayable",
      "type": "function"
    },
    {
      "inputs": [
        {
          "internalType": "address",
          "name": "from",
          "type": "address"
        },
        {
          "internalType": "address",
          "name": "to",
          "type": "address"
        },
        {
          "internalType": "uint256",
          "name": "tokenId",
          "type": "uint256"
        },
        {
          "internalType": "bytes",
          "name": "data",
          "type": "bytes"
        }
      ],
      "name": "safeTransferFrom",
      "outputs": [],
      "stateMutability": "nonpayable",
      "type": "function"
    },
    {
      "inputs": [
        {
          "internalType": "uint256",
          "name": "tokenId",
          "type": "uint256"
        },
        {
          "internalType": "uint256",
          "name": "price",
          "type": "uint256"
        }
      ],
      "name": "sellSneaker",
      "outputs": [
        {
          "internalType": "string",
          "name": "",
          "type": "string"
        }
      ],
      "stateMutability": "payable",
      "type": "function"
    },
    {
      "inputs": [
        {
          "internalType": "address",
          "name": "operator",
          "type": "address"
        },
        {
          "internalType": "bool",
          "name": "approved",
          "type": "bool"
        }
      ],
      "name": "setApprovalForAll",
      "outputs": [],
      "stateMutability": "nonpayable",
      "type": "function"
    },
    {
      "inputs": [
        {
          "internalType": "bytes4",
          "name": "interfaceId",
          "type": "bytes4"
        }
      ],
      "name": "supportsInterface",
      "outputs": [
        {
          "internalType": "bool",
          "name": "",
          "type": "bool"
        }
      ],
      "stateMutability": "view",
      "type": "function"
    },
    {
      "inputs": [],
      "name": "symbol",
      "outputs": [
        {
          "internalType": "string",
          "name": "",
          "type": "string"
        }
      ],
      "stateMutability": "view",
      "type": "function"
    },
    {
      "inputs": [
        {
          "internalType": "uint256",
          "name": "tokenId",
          "type": "uint256"
        }
      ],
      "name": "tokenURI",
      "outputs": [
        {
          "internalType": "string",
          "name": "",
          "type": "string"
        }
      ],
      "stateMutability": "view",
      "type": "function"
    },
    {
      "inputs": [
        {
          "internalType": "address",
          "name": "from",
          "type": "address"
        },
        {
          "internalType": "address",
          "name": "to",
          "type": "address"
        },
        {
          "internalType": "uint256",
          "name": "tokenId",
          "type": "uint256"
        }
      ],
      "name": "transferFrom",
      "outputs": [],
      "stateMutability": "nonpayable",
      "type": "function"
    },
    {
      "inputs": [
        {
          "internalType": "uint256",
          "name": "_priceMarket",
          "type": "uint256"
        }
      ],
      "name": "updateListPrice",
      "outputs": [],
      "stateMutability": "payable",
      "type": "function"
    },
    {
      "inputs": [],
      "name": "withdrawAll",
      "outputs": [],
      "stateMutability": "nonpayable",
      "type": "function"
    }
  ],
  "transactionHash": "0xf6adafaef705cda39fad31e00f573fed07d5bead157a8139ceb3adfee374de77",
  "args": [],
  "numDeployments": 1,
  "solcInputHash": "126f27f8e75f9d6103eefc5ea5d2af26",
  "bytecode": "0x6080604052662386f26fc10000600a553480156200001c57600080fd5b506040518060400160405280600681526020017f536e796b657200000000000000000000000000000000000000000000000000008152506040518060400160405280600381526020017f53544b00000000000000000000000000000000000000000000000000000000008152508160009080519060200190620000a192919062000104565b508060019080519060200190620000ba92919062000104565b50505033600960006101000a81548173ffffffffffffffffffffffffffffffffffffffff021916908373ffffffffffffffffffffffffffffffffffffffff16021790555062000219565b8280546200011290620001e3565b90600052602060002090601f01602090048101928262000136576000855562000182565b82601f106200015157805160ff191683800117855562000182565b8280016001018555821562000182579182015b828111156200018157825182559160200191906001019062000164565b5b50905062000191919062000195565b5090565b5b80821115620001b057600081600090555060010162000196565b5090565b7f4e487b7100000000000000000000000000000000000000000000000000000000600052602260045260246000fd5b60006002820490506001821680620001fc57607f821691505b60208210811415620002135762000212620001b4565b5b50919050565b614d7b80620002296000396000f3fe6080604052600436106101665760003560e01c80638e264590116100d1578063c87b56dd1161008a578063e2825e0811610064578063e2825e0814610527578063e985e9c514610543578063ef2d174614610580578063efbe8fd1146105ab57610166565b8063c87b56dd14610494578063d1a88ae5146104d1578063e0391b09146104fc57610166565b80638e264590146103a257806395d89b41146103df5780639b1225c41461040a578063a22cb46514610426578063b88d4fde1461044f578063c322579c1461047857610166565b806342842e0e1161012357806342842e0e14610292578063629cb2e4146102bb5780636352211e146102e657806368f1945f1461032357806370a082311461034e578063853828b61461038b57610166565b806301ffc9a71461016b57806306fdde03146101a8578063081812fc146101d3578063095ea7b31461021057806323b872dd146102395780632fab29b314610262575b600080fd5b34801561017757600080fd5b50610192600480360381019061018d9190613467565b6105db565b60405161019f91906134af565b60405180910390f35b3480156101b457600080fd5b506101bd6106bd565b6040516101ca9190613563565b60405180910390f35b3480156101df57600080fd5b506101fa60048036038101906101f591906135bb565b61074f565b6040516102079190613629565b60405180910390f35b34801561021c57600080fd5b5061023760048036038101906102329190613670565b610795565b005b34801561024557600080fd5b50610260600480360381019061025b91906136b0565b6108ad565b005b61027c60048036038101906102779190613703565b61090d565b6040516102899190613563565b60405180910390f35b34801561029e57600080fd5b506102b960048036038101906102b491906136b0565b610b6c565b005b3480156102c757600080fd5b506102d0610b8c565b6040516102dd9190613931565b60405180910390f35b3480156102f257600080fd5b5061030d600480360381019061030891906135bb565b610fe4565b60405161031a9190613629565b60405180910390f35b34801561032f57600080fd5b5061033861106b565b6040516103459190613962565b60405180910390f35b34801561035a57600080fd5b506103756004803603810190610370919061397d565b611075565b6040516103829190613962565b60405180910390f35b34801561039757600080fd5b506103a061112d565b005b3480156103ae57600080fd5b506103c960048036038101906103c491906135bb565b611228565b6040516103d69190613a4d565b60405180910390f35b3480156103eb57600080fd5b506103f4611419565b6040516104019190613563565b60405180910390f35b610424600480360381019061041f91906135bb565b6114ab565b005b34801561043257600080fd5b5061044d60048036038101906104489190613a9b565b6116c2565b005b34801561045b57600080fd5b5061047660048036038101906104719190613c10565b6116d8565b005b610492600480360381019061048d91906135bb565b61173a565b005b3480156104a057600080fd5b506104bb60048036038101906104b691906135bb565b61180b565b6040516104c89190613563565b60405180910390f35b3480156104dd57600080fd5b506104e661191e565b6040516104f39190613a4d565b60405180910390f35b34801561050857600080fd5b50610511611b1c565b60405161051e9190613931565b60405180910390f35b610541600480360381019061053c91906135bb565b611e14565b005b34801561054f57600080fd5b5061056a60048036038101906105659190613c93565b611ff4565b60405161057791906134af565b60405180910390f35b34801561058c57600080fd5b50610595612088565b6040516105a29190613962565b60405180910390f35b6105c560048036038101906105c09190613d74565b612099565b6040516105d29190613962565b60405180910390f35b60007f80ac58cd000000000000000000000000000000000000000000000000000000007bffffffffffffffffffffffffffffffffffffffffffffffffffffffff1916827bffffffffffffffffffffffffffffffffffffffffffffffffffffffff191614806106a657507f5b5e139f000000000000000000000000000000000000000000000000000000007bffffffffffffffffffffffffffffffffffffffffffffffffffffffff1916827bffffffffffffffffffffffffffffffffffffffffffffffffffffffff1916145b806106b657506106b5826120df565b5b9050919050565b6060600080546106cc90613e5e565b80601f01602080910402602001604051908101604052809291908181526020018280546106f890613e5e565b80156107455780601f1061071a57610100808354040283529160200191610745565b820191906000526020600020905b81548152906001019060200180831161072857829003601f168201915b5050505050905090565b600061075a82612149565b6004600083815260200190815260200160002060009054906101000a900473ffffffffffffffffffffffffffffffffffffffff169050919050565b60006107a082610fe4565b90508073ffffffffffffffffffffffffffffffffffffffff168373ffffffffffffffffffffffffffffffffffffffff161415610811576040517f08c379a000000000000000000000000000000000000000000000000000000000815260040161080890613f02565b60405180910390fd5b8073ffffffffffffffffffffffffffffffffffffffff16610830612194565b73ffffffffffffffffffffffffffffffffffffffff16148061085f575061085e81610859612194565b611ff4565b5b61089e576040517f08c379a000000000000000000000000000000000000000000000000000000000815260040161089590613f94565b60405180910390fd5b6108a8838361219c565b505050565b6108be6108b8612194565b82612255565b6108fd576040517f08c379a00000000000000000000000000000000000000000000000000000000081526004016108f490614026565b60405180910390fd5b6109088383836122ea565b505050565b6060600a54341015610954576040517f08c379a000000000000000000000000000000000000000000000000000000000815260040161094b906140b8565b60405180910390fd5b600b600084815260200190815260200160002060030160009054906101000a900473ffffffffffffffffffffffffffffffffffffffff1673ffffffffffffffffffffffffffffffffffffffff163373ffffffffffffffffffffffffffffffffffffffff16146109f8576040517f08c379a00000000000000000000000000000000000000000000000000000000081526004016109ef9061414a565b60405180910390fd5b6001600b600085815260200190815260200160002060050160016101000a81548160ff0219169083151502179055506000600b600085815260200190815260200160002060050160006101000a81548160ff021916908315150217905550670de0b6b3a764000082610a6a9190614199565b600b600085815260200190815260200160002060040181905550600960009054906101000a900473ffffffffffffffffffffffffffffffffffffffff1673ffffffffffffffffffffffffffffffffffffffff166108fc600a549081150290604051600060405180830381858888f19350505050158015610aee573d6000803e3d6000fd5b507f922a874ed3475c4c5e48bf280cc23902a670519eaaa289533c1919a8f4436bba828460016000604051610b2694939291906141f3565b60405180910390a16040518060400160405280600f81526020017f536e65616b657220696e2073656c6c0000000000000000000000000000000000815250905092915050565b610b87838383604051806020016040528060008152506116d8565b505050565b60606000610b9a60076125e4565b9050600080600080600090505b84811015610c87573373ffffffffffffffffffffffffffffffffffffffff16600b6000600184610bd79190614238565b815260200190815260200160002060030160009054906101000a900473ffffffffffffffffffffffffffffffffffffffff1673ffffffffffffffffffffffffffffffffffffffff16148015610c5f575060001515600b6000600184610c3c9190614238565b815260200190815260200160002060050160019054906101000a900460ff161515145b15610c7457600184610c719190614238565b93505b8080610c7f9061428e565b915050610ba7565b5060008367ffffffffffffffff811115610ca457610ca3613ae5565b5b604051908082528060200260200182016040528015610cdd57816020015b610cca613301565b815260200190600190039081610cc25790505b50905060005b85811015610fd8573373ffffffffffffffffffffffffffffffffffffffff16600b6000600184610d139190614238565b815260200190815260200160002060030160009054906101000a900473ffffffffffffffffffffffffffffffffffffffff1673ffffffffffffffffffffffffffffffffffffffff16148015610d9b575060001515600b6000600184610d789190614238565b815260200190815260200160002060050160019054906101000a900460ff161515145b15610fc557600181610dad9190614238565b92506000600b60008581526020019081526020016000209050806040518060e001604052908160008201548152602001600182018054610dec90613e5e565b80601f0160208091040260200160405190810160405280929190818152602001828054610e1890613e5e565b8015610e655780601f10610e3a57610100808354040283529160200191610e65565b820191906000526020600020905b815481529060010190602001808311610e4857829003601f168201915b50505050508152602001600282018054610e7e90613e5e565b80601f0160208091040260200160405190810160405280929190818152602001828054610eaa90613e5e565b8015610ef75780601f10610ecc57610100808354040283529160200191610ef7565b820191906000526020600020905b815481529060010190602001808311610eda57829003601f168201915b505050505081526020016003820160009054906101000a900473ffffffffffffffffffffffffffffffffffffffff1673ffffffffffffffffffffffffffffffffffffffff1673ffffffffffffffffffffffffffffffffffffffff168152602001600482015481526020016005820160009054906101000a900460ff161515151581526020016005820160019054906101000a900460ff161515151581525050838681518110610fa957610fa86142d7565b5b6020026020010181905250600185610fc19190614238565b9450505b8080610fd09061428e565b915050610ce3565b50809550505050505090565b600080610ff0836125f2565b9050600073ffffffffffffffffffffffffffffffffffffffff168173ffffffffffffffffffffffffffffffffffffffff161415611062576040517f08c379a000000000000000000000000000000000000000000000000000000000815260040161105990614352565b60405180910390fd5b80915050919050565b6000600a54905090565b60008073ffffffffffffffffffffffffffffffffffffffff168273ffffffffffffffffffffffffffffffffffffffff1614156110e6576040517f08c379a00000000000000000000000000000000000000000000000000000000081526004016110dd906143e4565b60405180910390fd5b600360008373ffffffffffffffffffffffffffffffffffffffff1673ffffffffffffffffffffffffffffffffffffffff168152602001908152602001600020549050919050565b600960009054906101000a900473ffffffffffffffffffffffffffffffffffffffff1673ffffffffffffffffffffffffffffffffffffffff163373ffffffffffffffffffffffffffffffffffffffff16146111bd576040517f08c379a00000000000000000000000000000000000000000000000000000000081526004016111b490614450565b60405180910390fd5b600960009054906101000a900473ffffffffffffffffffffffffffffffffffffffff1673ffffffffffffffffffffffffffffffffffffffff166108fc479081150290604051600060405180830381858888f19350505050158015611225573d6000803e3d6000fd5b50565b611230613301565b600b60008381526020019081526020016000206040518060e00160405290816000820154815260200160018201805461126890613e5e565b80601f016020809104026020016040519081016040528092919081815260200182805461129490613e5e565b80156112e15780601f106112b6576101008083540402835291602001916112e1565b820191906000526020600020905b8154815290600101906020018083116112c457829003601f168201915b505050505081526020016002820180546112fa90613e5e565b80601f016020809104026020016040519081016040528092919081815260200182805461132690613e5e565b80156113735780601f1061134857610100808354040283529160200191611373565b820191906000526020600020905b81548152906001019060200180831161135657829003601f168201915b505050505081526020016003820160009054906101000a900473ffffffffffffffffffffffffffffffffffffffff1673ffffffffffffffffffffffffffffffffffffffff1673ffffffffffffffffffffffffffffffffffffffff168152602001600482015481526020016005820160009054906101000a900460ff161515151581526020016005820160019054906101000a900460ff1615151515815250509050919050565b60606001805461142890613e5e565b80601f016020809104026020016040519081016040528092919081815260200182805461145490613e5e565b80156114a15780601f10611476576101008083540402835291602001916114a1565b820191906000526020600020905b81548152906001019060200180831161148457829003601f168201915b5050505050905090565b600b600082815260200190815260200160002060050160019054906101000a900460ff1661150e576040517f08c379a0000000000000000000000000000000000000000000000000000000008152600401611505906144bc565b60405180910390fd5b6000600b60008381526020019081526020016000206004015490508034101561156c576040517f08c379a000000000000000000000000000000000000000000000000000000000815260040161156390614528565b60405180910390fd5b6000600b600084815260200190815260200160002060030160009054906101000a900473ffffffffffffffffffffffffffffffffffffffff1690506115b28133856122ea565b8073ffffffffffffffffffffffffffffffffffffffff166108fc839081150290604051600060405180830381858888f193505050501580156115f8573d6000803e3d6000fd5b5033600b600085815260200190815260200160002060030160006101000a81548173ffffffffffffffffffffffffffffffffffffffff021916908373ffffffffffffffffffffffffffffffffffffffff1602179055506000600b600085815260200190815260200160002060050160016101000a81548160ff0219169083151502179055507f335edbe3e9a24e866f0d0b159746d469fad4639e0907b58c8d183dc2dfd7f8e53383856000806040516116b5959493929190614548565b60405180910390a1505050565b6116d46116cd612194565b838361262f565b5050565b6116e96116e3612194565b83612255565b611728576040517f08c379a000000000000000000000000000000000000000000000000000000000815260040161171f90614026565b60405180910390fd5b6117348484848461279c565b50505050565b3373ffffffffffffffffffffffffffffffffffffffff16600960009054906101000a900473ffffffffffffffffffffffffffffffffffffffff1673ffffffffffffffffffffffffffffffffffffffff16146117ca576040517f08c379a00000000000000000000000000000000000000000000000000000000081526004016117c19061460d565b60405180910390fd5b80600a819055507f47cce1c40535876723d9c860d6f17d3a8edfbc2d34acfeb5fcb27ebe02dfb1cb816040516118009190613962565b60405180910390a150565b606061181682612149565b600060066000848152602001908152602001600020805461183690613e5e565b80601f016020809104026020016040519081016040528092919081815260200182805461186290613e5e565b80156118af5780601f10611884576101008083540402835291602001916118af565b820191906000526020600020905b81548152906001019060200180831161189257829003601f168201915b5050505050905060006118c06127f8565b90506000815114156118d6578192505050611919565b60008251111561190b5780826040516020016118f3929190614669565b60405160208183030381529060405292505050611919565b6119148461280f565b925050505b919050565b611926613301565b600061193260076125e4565b9050600b60008281526020019081526020016000206040518060e00160405290816000820154815260200160018201805461196c90613e5e565b80601f016020809104026020016040519081016040528092919081815260200182805461199890613e5e565b80156119e55780601f106119ba576101008083540402835291602001916119e5565b820191906000526020600020905b8154815290600101906020018083116119c857829003601f168201915b505050505081526020016002820180546119fe90613e5e565b80601f0160208091040260200160405190810160405280929190818152602001828054611a2a90613e5e565b8015611a775780601f10611a4c57610100808354040283529160200191611a77565b820191906000526020600020905b815481529060010190602001808311611a5a57829003601f168201915b505050505081526020016003820160009054906101000a900473ffffffffffffffffffffffffffffffffffffffff1673ffffffffffffffffffffffffffffffffffffffff1673ffffffffffffffffffffffffffffffffffffffff168152602001600482015481526020016005820160009054906101000a900460ff161515151581526020016005820160019054906101000a900460ff16151515158152505091505090565b60606000611b2a60076125e4565b905060008167ffffffffffffffff811115611b4857611b47613ae5565b5b604051908082528060200260200182016040528015611b8157816020015b611b6e613301565b815260200190600190039081611b665790505b50905060008080600090505b84811015611e095760011515600b6000600184611baa9190614238565b815260200190815260200160002060050160019054906101000a900460ff1615151415611df657600181611bde9190614238565b91506000600b60008481526020019081526020016000209050806040518060e001604052908160008201548152602001600182018054611c1d90613e5e565b80601f0160208091040260200160405190810160405280929190818152602001828054611c4990613e5e565b8015611c965780601f10611c6b57610100808354040283529160200191611c96565b820191906000526020600020905b815481529060010190602001808311611c7957829003601f168201915b50505050508152602001600282018054611caf90613e5e565b80601f0160208091040260200160405190810160405280929190818152602001828054611cdb90613e5e565b8015611d285780601f10611cfd57610100808354040283529160200191611d28565b820191906000526020600020905b815481529060010190602001808311611d0b57829003601f168201915b505050505081526020016003820160009054906101000a900473ffffffffffffffffffffffffffffffffffffffff1673ffffffffffffffffffffffffffffffffffffffff1673ffffffffffffffffffffffffffffffffffffffff168152602001600482015481526020016005820160009054906101000a900460ff161515151581526020016005820160019054906101000a900460ff161515151581525050858581518110611dda57611dd96142d7565b5b6020026020010181905250600184611df29190614238565b9350505b8080611e019061428e565b915050611b8d565b508294505050505090565b600b600082815260200190815260200160002060040154341015611e6d576040517f08c379a0000000000000000000000000000000000000000000000000000000008152600401611e6490614528565b60405180910390fd5b600b600082815260200190815260200160002060030160009054906101000a900473ffffffffffffffffffffffffffffffffffffffff1673ffffffffffffffffffffffffffffffffffffffff166108fc349081150290604051600060405180830381858888f19350505050158015611ee9573d6000803e3d6000fd5b50611ef53033836122ea565b611eff3082610795565b33600b600083815260200190815260200160002060030160006101000a81548173ffffffffffffffffffffffffffffffffffffffff021916908373ffffffffffffffffffffffffffffffffffffffff1602179055506000600b600083815260200190815260200160002060050160016101000a81548160ff0219169083151502179055506000600b600083815260200190815260200160002060050160006101000a81548160ff0219169083151502179055507f58b06b1ea542ad16a81436f36c03cfaf8c4d8df625be516ea60dced5d30f272a338260016000604051611fe9949392919061468d565b60405180910390a150565b6000600560008473ffffffffffffffffffffffffffffffffffffffff1673ffffffffffffffffffffffffffffffffffffffff16815260200190815260200160002060008373ffffffffffffffffffffffffffffffffffffffff1673ffffffffffffffffffffffffffffffffffffffff16815260200190815260200160002060009054906101000a900460ff16905092915050565b600061209460076125e4565b905090565b60006120a56007612877565b60006120b160076125e4565b90506120bd338261288d565b6120c781876128ab565b6120d38186868661291f565b80915050949350505050565b60007f01ffc9a7000000000000000000000000000000000000000000000000000000007bffffffffffffffffffffffffffffffffffffffffffffffffffffffff1916827bffffffffffffffffffffffffffffffffffffffffffffffffffffffff1916149050919050565b61215281612b36565b612191576040517f08c379a000000000000000000000000000000000000000000000000000000000815260040161218890614352565b60405180910390fd5b50565b600033905090565b816004600083815260200190815260200160002060006101000a81548173ffffffffffffffffffffffffffffffffffffffff021916908373ffffffffffffffffffffffffffffffffffffffff160217905550808273ffffffffffffffffffffffffffffffffffffffff1661220f83610fe4565b73ffffffffffffffffffffffffffffffffffffffff167f8c5be1e5ebec7d5bd14f71427d1e84f3dd0314c0f7b2291e5b200ac8c7c3b92560405160405180910390a45050565b60008061226183610fe4565b90508073ffffffffffffffffffffffffffffffffffffffff168473ffffffffffffffffffffffffffffffffffffffff1614806122a357506122a28185611ff4565b5b806122e157508373ffffffffffffffffffffffffffffffffffffffff166122c98461074f565b73ffffffffffffffffffffffffffffffffffffffff16145b91505092915050565b8273ffffffffffffffffffffffffffffffffffffffff1661230a82610fe4565b73ffffffffffffffffffffffffffffffffffffffff1614612360576040517f08c379a000000000000000000000000000000000000000000000000000000000815260040161235790614744565b60405180910390fd5b600073ffffffffffffffffffffffffffffffffffffffff168273ffffffffffffffffffffffffffffffffffffffff1614156123d0576040517f08c379a00000000000000000000000000000000000000000000000000000000081526004016123c7906147d6565b60405180910390fd5b6123dd8383836001612b77565b8273ffffffffffffffffffffffffffffffffffffffff166123fd82610fe4565b73ffffffffffffffffffffffffffffffffffffffff1614612453576040517f08c379a000000000000000000000000000000000000000000000000000000000815260040161244a90614744565b60405180910390fd5b6004600082815260200190815260200160002060006101000a81549073ffffffffffffffffffffffffffffffffffffffff02191690556001600360008573ffffffffffffffffffffffffffffffffffffffff1673ffffffffffffffffffffffffffffffffffffffff168152602001908152602001600020600082825403925050819055506001600360008473ffffffffffffffffffffffffffffffffffffffff1673ffffffffffffffffffffffffffffffffffffffff16815260200190815260200160002060008282540192505081905550816002600083815260200190815260200160002060006101000a81548173ffffffffffffffffffffffffffffffffffffffff021916908373ffffffffffffffffffffffffffffffffffffffff160217905550808273ffffffffffffffffffffffffffffffffffffffff168473ffffffffffffffffffffffffffffffffffffffff167fddf252ad1be2c89b69c2b068fc378daa952ba7f163c4a11628f55a4df523b3ef60405160405180910390a46125df8383836001612c9d565b505050565b600081600001549050919050565b60006002600083815260200190815260200160002060009054906101000a900473ffffffffffffffffffffffffffffffffffffffff169050919050565b8173ffffffffffffffffffffffffffffffffffffffff168373ffffffffffffffffffffffffffffffffffffffff16141561269e576040517f08c379a000000000000000000000000000000000000000000000000000000000815260040161269590614842565b60405180910390fd5b80600560008573ffffffffffffffffffffffffffffffffffffffff1673ffffffffffffffffffffffffffffffffffffffff16815260200190815260200160002060008473ffffffffffffffffffffffffffffffffffffffff1673ffffffffffffffffffffffffffffffffffffffff16815260200190815260200160002060006101000a81548160ff0219169083151502179055508173ffffffffffffffffffffffffffffffffffffffff168373ffffffffffffffffffffffffffffffffffffffff167f17307eab39ab6107e8899845ad3d59bd9653f200f220920489ca2b5937696c318360405161278f91906134af565b60405180910390a3505050565b6127a78484846122ea565b6127b384848484612ca3565b6127f2576040517f08c379a00000000000000000000000000000000000000000000000000000000081526004016127e9906148d4565b60405180910390fd5b50505050565b606060405180602001604052806000815250905090565b606061281a82612149565b60006128246127f8565b90506000815111612844576040518060200160405280600081525061286f565b8061284e84612e3a565b60405160200161285f929190614669565b6040516020818303038152906040525b915050919050565b6001816000016000828254019250508190555050565b6128a7828260405180602001604052806000815250612f12565b5050565b6128b482612b36565b6128f3576040517f08c379a00000000000000000000000000000000000000000000000000000000081526004016128ea90614966565b60405180910390fd5b8060066000848152602001908152602001600020908051906020019061291a929190613358565b505050565b600a54341015612964576040517f08c379a000000000000000000000000000000000000000000000000000000000815260040161295b906149f8565b60405180910390fd5b600081116129a7576040517f08c379a000000000000000000000000000000000000000000000000000000000815260040161299e90614a8a565b60405180910390fd5b6040518060e001604052808581526020018481526020018381526020013373ffffffffffffffffffffffffffffffffffffffff16815260200182815260200160011515815260200160011515815250600b6000868152602001908152602001600020600082015181600001556020820151816001019080519060200190612a2f929190613358565b506040820151816002019080519060200190612a4c929190613358565b5060608201518160030160006101000a81548173ffffffffffffffffffffffffffffffffffffffff021916908373ffffffffffffffffffffffffffffffffffffffff1602179055506080820151816004015560a08201518160050160006101000a81548160ff02191690831515021790555060c08201518160050160016101000a81548160ff021916908315150217905550905050612aec3330866122ea565b7f29a539a973923aeeb88161e5cbeda7de26caadd4b8f4054367ccd9d0c8f224f58484843385600180604051612b289796959493929190614aaa565b60405180910390a150505050565b60008073ffffffffffffffffffffffffffffffffffffffff16612b58836125f2565b73ffffffffffffffffffffffffffffffffffffffff1614159050919050565b6001811115612c9757600073ffffffffffffffffffffffffffffffffffffffff168473ffffffffffffffffffffffffffffffffffffffff1614612c0b5780600360008673ffffffffffffffffffffffffffffffffffffffff1673ffffffffffffffffffffffffffffffffffffffff1681526020019081526020016000206000828254612c039190614b27565b925050819055505b600073ffffffffffffffffffffffffffffffffffffffff168373ffffffffffffffffffffffffffffffffffffffff1614612c965780600360008573ffffffffffffffffffffffffffffffffffffffff1673ffffffffffffffffffffffffffffffffffffffff1681526020019081526020016000206000828254612c8e9190614238565b925050819055505b5b50505050565b50505050565b6000612cc48473ffffffffffffffffffffffffffffffffffffffff16612f6d565b15612e2d578373ffffffffffffffffffffffffffffffffffffffff1663150b7a02612ced612194565b8786866040518563ffffffff1660e01b8152600401612d0f9493929190614bb0565b602060405180830381600087803b158015612d2957600080fd5b505af1925050508015612d5a57506040513d601f19601f82011682018060405250810190612d579190614c11565b60015b612ddd573d8060008114612d8a576040519150601f19603f3d011682016040523d82523d6000602084013e612d8f565b606091505b50600081511415612dd5576040517f08c379a0000000000000000000000000000000000000000000000000000000008152600401612dcc906148d4565b60405180910390fd5b805181602001fd5b63150b7a0260e01b7bffffffffffffffffffffffffffffffffffffffffffffffffffffffff1916817bffffffffffffffffffffffffffffffffffffffffffffffffffffffff191614915050612e32565b600190505b949350505050565b606060006001612e4984612f90565b01905060008167ffffffffffffffff811115612e6857612e67613ae5565b5b6040519080825280601f01601f191660200182016040528015612e9a5781602001600182028036833780820191505090505b509050600082602001820190505b600115612f07578080600190039150507f3031323334353637383961626364656600000000000000000000000000000000600a86061a8153600a8581612ef157612ef0614c3e565b5b0494506000851415612f0257612f07565b612ea8565b819350505050919050565b612f1c83836130e3565b612f296000848484612ca3565b612f68576040517f08c379a0000000000000000000000000000000000000000000000000000000008152600401612f5f906148d4565b60405180910390fd5b505050565b6000808273ffffffffffffffffffffffffffffffffffffffff163b119050919050565b600080600090507a184f03e93ff9f4daa797ed6e38ed64bf6a1f0100000000000000008310612fee577a184f03e93ff9f4daa797ed6e38ed64bf6a1f0100000000000000008381612fe457612fe3614c3e565b5b0492506040810190505b6d04ee2d6d415b85acef8100000000831061302b576d04ee2d6d415b85acef8100000000838161302157613020614c3e565b5b0492506020810190505b662386f26fc10000831061305a57662386f26fc1000083816130505761304f614c3e565b5b0492506010810190505b6305f5e1008310613083576305f5e100838161307957613078614c3e565b5b0492506008810190505b61271083106130a857612710838161309e5761309d614c3e565b5b0492506004810190505b606483106130cb57606483816130c1576130c0614c3e565b5b0492506002810190505b600a83106130da576001810190505b80915050919050565b600073ffffffffffffffffffffffffffffffffffffffff168273ffffffffffffffffffffffffffffffffffffffff161415613153576040517f08c379a000000000000000000000000000000000000000000000000000000000815260040161314a90614cb9565b60405180910390fd5b61315c81612b36565b1561319c576040517f08c379a000000000000000000000000000000000000000000000000000000000815260040161319390614d25565b60405180910390fd5b6131aa600083836001612b77565b6131b381612b36565b156131f3576040517f08c379a00000000000000000000000000000000000000000000000000000000081526004016131ea90614d25565b60405180910390fd5b6001600360008473ffffffffffffffffffffffffffffffffffffffff1673ffffffffffffffffffffffffffffffffffffffff16815260200190815260200160002060008282540192505081905550816002600083815260200190815260200160002060006101000a81548173ffffffffffffffffffffffffffffffffffffffff021916908373ffffffffffffffffffffffffffffffffffffffff160217905550808273ffffffffffffffffffffffffffffffffffffffff16600073ffffffffffffffffffffffffffffffffffffffff167fddf252ad1be2c89b69c2b068fc378daa952ba7f163c4a11628f55a4df523b3ef60405160405180910390a46132fd600083836001612c9d565b5050565b6040518060e00160405280600081526020016060815260200160608152602001600073ffffffffffffffffffffffffffffffffffffffff168152602001600081526020016000151581526020016000151581525090565b82805461336490613e5e565b90600052602060002090601f01602090048101928261338657600085556133cd565b82601f1061339f57805160ff19168380011785556133cd565b828001600101855582156133cd579182015b828111156133cc5782518255916020019190600101906133b1565b5b5090506133da91906133de565b5090565b5b808211156133f75760008160009055506001016133df565b5090565b6000604051905090565b600080fd5b600080fd5b60007fffffffff0000000000000000000000000000000000000000000000000000000082169050919050565b6134448161340f565b811461344f57600080fd5b50565b6000813590506134618161343b565b92915050565b60006020828403121561347d5761347c613405565b5b600061348b84828501613452565b91505092915050565b60008115159050919050565b6134a981613494565b82525050565b60006020820190506134c460008301846134a0565b92915050565b600081519050919050565b600082825260208201905092915050565b60005b838110156135045780820151818401526020810190506134e9565b83811115613513576000848401525b50505050565b6000601f19601f8301169050919050565b6000613535826134ca565b61353f81856134d5565b935061354f8185602086016134e6565b61355881613519565b840191505092915050565b6000602082019050818103600083015261357d818461352a565b905092915050565b6000819050919050565b61359881613585565b81146135a357600080fd5b50565b6000813590506135b58161358f565b92915050565b6000602082840312156135d1576135d0613405565b5b60006135df848285016135a6565b91505092915050565b600073ffffffffffffffffffffffffffffffffffffffff82169050919050565b6000613613826135e8565b9050919050565b61362381613608565b82525050565b600060208201905061363e600083018461361a565b92915050565b61364d81613608565b811461365857600080fd5b50565b60008135905061366a81613644565b92915050565b6000806040838503121561368757613686613405565b5b60006136958582860161365b565b92505060206136a6858286016135a6565b9150509250929050565b6000806000606084860312156136c9576136c8613405565b5b60006136d78682870161365b565b93505060206136e88682870161365b565b92505060406136f9868287016135a6565b9150509250925092565b6000806040838503121561371a57613719613405565b5b6000613728858286016135a6565b9250506020613739858286016135a6565b9150509250929050565b600081519050919050565b600082825260208201905092915050565b6000819050602082019050919050565b61377881613585565b82525050565b600082825260208201905092915050565b600061379a826134ca565b6137a4818561377e565b93506137b48185602086016134e6565b6137bd81613519565b840191505092915050565b60006137d3826135e8565b9050919050565b6137e3816137c8565b82525050565b6137f281613494565b82525050565b600060e083016000830151613810600086018261376f565b5060208301518482036020860152613828828261378f565b91505060408301518482036040860152613842828261378f565b915050606083015161385760608601826137da565b50608083015161386a608086018261376f565b5060a083015161387d60a08601826137e9565b5060c083015161389060c08601826137e9565b508091505092915050565b60006138a783836137f8565b905092915050565b6000602082019050919050565b60006138c782613743565b6138d1818561374e565b9350836020820285016138e38561375f565b8060005b8581101561391f5784840389528151613900858261389b565b945061390b836138af565b925060208a019950506001810190506138e7565b50829750879550505050505092915050565b6000602082019050818103600083015261394b81846138bc565b905092915050565b61395c81613585565b82525050565b60006020820190506139776000830184613953565b92915050565b60006020828403121561399357613992613405565b5b60006139a18482850161365b565b91505092915050565b600060e0830160008301516139c2600086018261376f565b50602083015184820360208601526139da828261378f565b915050604083015184820360408601526139f4828261378f565b9150506060830151613a0960608601826137da565b506080830151613a1c608086018261376f565b5060a0830151613a2f60a08601826137e9565b5060c0830151613a4260c08601826137e9565b508091505092915050565b60006020820190508181036000830152613a6781846139aa565b905092915050565b613a7881613494565b8114613a8357600080fd5b50565b600081359050613a9581613a6f565b92915050565b60008060408385031215613ab257613ab1613405565b5b6000613ac08582860161365b565b9250506020613ad185828601613a86565b9150509250929050565b600080fd5b600080fd5b7f4e487b7100000000000000000000000000000000000000000000000000000000600052604160045260246000fd5b613b1d82613519565b810181811067ffffffffffffffff82111715613b3c57613b3b613ae5565b5b80604052505050565b6000613b4f6133fb565b9050613b5b8282613b14565b919050565b600067ffffffffffffffff821115613b7b57613b7a613ae5565b5b613b8482613519565b9050602081019050919050565b82818337600083830152505050565b6000613bb3613bae84613b60565b613b45565b905082815260208101848484011115613bcf57613bce613ae0565b5b613bda848285613b91565b509392505050565b600082601f830112613bf757613bf6613adb565b5b8135613c07848260208601613ba0565b91505092915050565b60008060008060808587031215613c2a57613c29613405565b5b6000613c388782880161365b565b9450506020613c498782880161365b565b9350506040613c5a878288016135a6565b925050606085013567ffffffffffffffff811115613c7b57613c7a61340a565b5b613c8787828801613be2565b91505092959194509250565b60008060408385031215613caa57613ca9613405565b5b6000613cb88582860161365b565b9250506020613cc98582860161365b565b9150509250929050565b600067ffffffffffffffff821115613cee57613ced613ae5565b5b613cf782613519565b9050602081019050919050565b6000613d17613d1284613cd3565b613b45565b905082815260208101848484011115613d3357613d32613ae0565b5b613d3e848285613b91565b509392505050565b600082601f830112613d5b57613d5a613adb565b5b8135613d6b848260208601613d04565b91505092915050565b60008060008060808587031215613d8e57613d8d613405565b5b600085013567ffffffffffffffff811115613dac57613dab61340a565b5b613db887828801613d46565b945050602085013567ffffffffffffffff811115613dd957613dd861340a565b5b613de587828801613d46565b935050604085013567ffffffffffffffff811115613e0657613e0561340a565b5b613e1287828801613d46565b9250506060613e23878288016135a6565b91505092959194509250565b7f4e487b7100000000000000000000000000000000000000000000000000000000600052602260045260246000fd5b60006002820490506001821680613e7657607f821691505b60208210811415613e8a57613e89613e2f565b5b50919050565b7f4552433732313a20617070726f76616c20746f2063757272656e74206f776e6560008201527f7200000000000000000000000000000000000000000000000000000000000000602082015250565b6000613eec6021836134d5565b9150613ef782613e90565b604082019050919050565b60006020820190508181036000830152613f1b81613edf565b9050919050565b7f4552433732313a20617070726f76652063616c6c6572206973206e6f7420746f60008201527f6b656e206f776e6572206f7220617070726f76656420666f7220616c6c000000602082015250565b6000613f7e603d836134d5565b9150613f8982613f22565b604082019050919050565b60006020820190508181036000830152613fad81613f71565b9050919050565b7f4552433732313a2063616c6c6572206973206e6f7420746f6b656e206f776e6560008201527f72206f7220617070726f76656400000000000000000000000000000000000000602082015250565b6000614010602d836134d5565b915061401b82613fb4565b604082019050919050565b6000602082019050818103600083015261403f81614003565b9050919050565b7f53656e6420656e6f75676820657468657220746f2073656c6c206120736e656160008201527f6b6572732028302e303120657468657229000000000000000000000000000000602082015250565b60006140a26031836134d5565b91506140ad82614046565b604082019050919050565b600060208201905081810360008301526140d181614095565b9050919050565b7f596f75277265206e6f742061206f776e6572206f66207468697320736e65616b60008201527f6572000000000000000000000000000000000000000000000000000000000000602082015250565b60006141346022836134d5565b915061413f826140d8565b604082019050919050565b6000602082019050818103600083015261416381614127565b9050919050565b7f4e487b7100000000000000000000000000000000000000000000000000000000600052601160045260246000fd5b60006141a482613585565b91506141af83613585565b9250817fffffffffffffffffffffffffffffffffffffffffffffffffffffffffffffffff04831182151516156141e8576141e761416a565b5b828202905092915050565b60006080820190506142086000830187613953565b6142156020830186613953565b61422260408301856134a0565b61422f60608301846134a0565b95945050505050565b600061424382613585565b915061424e83613585565b9250827fffffffffffffffffffffffffffffffffffffffffffffffffffffffffffffffff038211156142835761428261416a565b5b828201905092915050565b600061429982613585565b91507fffffffffffffffffffffffffffffffffffffffffffffffffffffffffffffffff8214156142cc576142cb61416a565b5b600182019050919050565b7f4e487b7100000000000000000000000000000000000000000000000000000000600052603260045260246000fd5b7f4552433732313a20696e76616c696420746f6b656e2049440000000000000000600082015250565b600061433c6018836134d5565b915061434782614306565b602082019050919050565b6000602082019050818103600083015261436b8161432f565b9050919050565b7f4552433732313a2061646472657373207a65726f206973206e6f74206120766160008201527f6c6964206f776e65720000000000000000000000000000000000000000000000602082015250565b60006143ce6029836134d5565b91506143d982614372565b604082019050919050565b600060208201905081810360008301526143fd816143c1565b9050919050565b7f4f6e6c79206f776e65722063616e207769746864726177000000000000000000600082015250565b600061443a6017836134d5565b915061444582614404565b602082019050919050565b600060208201905081810360008301526144698161442d565b9050919050565b7f536e65616b6572206973206e6f7420696e2073656c6c00000000000000000000600082015250565b60006144a66016836134d5565b91506144b182614470565b602082019050919050565b600060208201905081810360008301526144d581614499565b9050919050565b7f4e6f7420656e6f7567682066756e647300000000000000000000000000000000600082015250565b60006145126010836134d5565b915061451d826144dc565b602082019050919050565b6000602082019050818103600083015261454181614505565b9050919050565b600060a08201905061455d600083018861361a565b61456a6020830187613953565b6145776040830186613953565b61458460608301856134a0565b61459160808301846134a0565b9695505050505050565b7f4f6e6c79206f776e65722063616e20757064617465206c697374696e6720707260008201527f6963650000000000000000000000000000000000000000000000000000000000602082015250565b60006145f76023836134d5565b91506146028261459b565b604082019050919050565b60006020820190508181036000830152614626816145ea565b9050919050565b600081905092915050565b6000614643826134ca565b61464d818561462d565b935061465d8185602086016134e6565b80840191505092915050565b60006146758285614638565b91506146818284614638565b91508190509392505050565b60006080820190506146a2600083018761361a565b6146af6020830186613953565b6146bc60408301856134a0565b6146c960608301846134a0565b95945050505050565b7f4552433732313a207472616e736665722066726f6d20696e636f72726563742060008201527f6f776e6572000000000000000000000000000000000000000000000000000000602082015250565b600061472e6025836134d5565b9150614739826146d2565b604082019050919050565b6000602082019050818103600083015261475d81614721565b9050919050565b7f4552433732313a207472616e7366657220746f20746865207a65726f2061646460008201527f7265737300000000000000000000000000000000000000000000000000000000602082015250565b60006147c06024836134d5565b91506147cb82614764565b604082019050919050565b600060208201905081810360008301526147ef816147b3565b9050919050565b7f4552433732313a20617070726f766520746f2063616c6c657200000000000000600082015250565b600061482c6019836134d5565b9150614837826147f6565b602082019050919050565b6000602082019050818103600083015261485b8161481f565b9050919050565b7f4552433732313a207472616e7366657220746f206e6f6e20455243373231526560008201527f63656976657220696d706c656d656e7465720000000000000000000000000000602082015250565b60006148be6032836134d5565b91506148c982614862565b604082019050919050565b600060208201905081810360008301526148ed816148b1565b9050919050565b7f45524337323155524953746f726167653a2055524920736574206f66206e6f6e60008201527f6578697374656e7420746f6b656e000000000000000000000000000000000000602082015250565b6000614950602e836134d5565b915061495b826148f4565b604082019050919050565b6000602082019050818103600083015261497f81614943565b9050919050565b7f486f706566756c6c792073656e64696e672074686520636f727265637420707260008201527f6963650000000000000000000000000000000000000000000000000000000000602082015250565b60006149e26023836134d5565b91506149ed82614986565b604082019050919050565b60006020820190508181036000830152614a11816149d5565b9050919050565b7f4d616b652073757265207468652070726963652069736e2774206e656761746960008201527f7665000000000000000000000000000000000000000000000000000000000000602082015250565b6000614a746022836134d5565b9150614a7f82614a18565b604082019050919050565b60006020820190508181036000830152614aa381614a67565b9050919050565b600060e082019050614abf600083018a613953565b8181036020830152614ad1818961352a565b90508181036040830152614ae5818861352a565b9050614af4606083018761361a565b614b016080830186613953565b614b0e60a08301856134a0565b614b1b60c08301846134a0565b98975050505050505050565b6000614b3282613585565b9150614b3d83613585565b925082821015614b5057614b4f61416a565b5b828203905092915050565b600081519050919050565b600082825260208201905092915050565b6000614b8282614b5b565b614b8c8185614b66565b9350614b9c8185602086016134e6565b614ba581613519565b840191505092915050565b6000608082019050614bc5600083018761361a565b614bd2602083018661361a565b614bdf6040830185613953565b8181036060830152614bf18184614b77565b905095945050505050565b600081519050614c0b8161343b565b92915050565b600060208284031215614c2757614c26613405565b5b6000614c3584828501614bfc565b91505092915050565b7f4e487b7100000000000000000000000000000000000000000000000000000000600052601260045260246000fd5b7f4552433732313a206d696e7420746f20746865207a65726f2061646472657373600082015250565b6000614ca36020836134d5565b9150614cae82614c6d565b602082019050919050565b60006020820190508181036000830152614cd281614c96565b9050919050565b7f4552433732313a20746f6b656e20616c7265616479206d696e74656400000000600082015250565b6000614d0f601c836134d5565b9150614d1a82614cd9565b602082019050919050565b60006020820190508181036000830152614d3e81614d02565b905091905056fea2646970667358221220d4ce97564fdaf9015cf787fc7c9ab13b3fd627969583eb145c389d3f4a87e30764736f6c63430008090033",
  "devdoc": {
    "kind": "dev",
    "methods": {
      "approve(address,uint256)": {
        "details": "See {IERC721-approve}."
      },
      "balanceOf(address)": {
        "details": "See {IERC721-balanceOf}."
      },
      "getApproved(uint256)": {
        "details": "See {IERC721-getApproved}."
      },
      "isApprovedForAll(address,address)": {
        "details": "See {IERC721-isApprovedForAll}."
      },
      "name()": {
        "details": "See {IERC721Metadata-name}."
      },
      "ownerOf(uint256)": {
        "details": "See {IERC721-ownerOf}."
      },
      "safeTransferFrom(address,address,uint256)": {
        "details": "See {IERC721-safeTransferFrom}."
      },
      "safeTransferFrom(address,address,uint256,bytes)": {
        "details": "See {IERC721-safeTransferFrom}."
      },
      "setApprovalForAll(address,bool)": {
        "details": "See {IERC721-setApprovalForAll}."
      },
      "supportsInterface(bytes4)": {
        "details": "See {IERC165-supportsInterface}."
      },
      "symbol()": {
        "details": "See {IERC721Metadata-symbol}."
      },
      "tokenURI(uint256)": {
        "details": "See {IERC721Metadata-tokenURI}."
      },
      "transferFrom(address,address,uint256)": {
        "details": "See {IERC721-transferFrom}."
      }
    },
    "version": 1
  },
  "userdoc": {
    "kind": "user",
    "methods": {},
    "version": 1
  },
  "storageLayout": {
    "storage": [
      {
        "astId": 25,
        "contract": "contracts/Snyker.sol:Snyker",
        "label": "_name",
        "offset": 0,
        "slot": "0",
        "type": "t_string_storage"
      },
      {
        "astId": 27,
        "contract": "contracts/Snyker.sol:Snyker",
        "label": "_symbol",
        "offset": 0,
        "slot": "1",
        "type": "t_string_storage"
      },
      {
        "astId": 31,
        "contract": "contracts/Snyker.sol:Snyker",
        "label": "_owners",
        "offset": 0,
        "slot": "2",
        "type": "t_mapping(t_uint256,t_address)"
      },
      {
        "astId": 35,
        "contract": "contracts/Snyker.sol:Snyker",
        "label": "_balances",
        "offset": 0,
        "slot": "3",
        "type": "t_mapping(t_address,t_uint256)"
      },
      {
        "astId": 39,
        "contract": "contracts/Snyker.sol:Snyker",
        "label": "_tokenApprovals",
        "offset": 0,
        "slot": "4",
        "type": "t_mapping(t_uint256,t_address)"
      },
      {
        "astId": 45,
        "contract": "contracts/Snyker.sol:Snyker",
        "label": "_operatorApprovals",
        "offset": 0,
        "slot": "5",
        "type": "t_mapping(t_address,t_mapping(t_address,t_bool))"
      },
      {
        "astId": 1091,
        "contract": "contracts/Snyker.sol:Snyker",
        "label": "_tokenURIs",
        "offset": 0,
        "slot": "6",
        "type": "t_mapping(t_uint256,t_string_storage)"
      },
      {
        "astId": 2747,
        "contract": "contracts/Snyker.sol:Snyker",
        "label": "_tokenIds",
        "offset": 0,
        "slot": "7",
        "type": "t_struct(Counter)1588_storage"
      },
      {
        "astId": 2750,
        "contract": "contracts/Snyker.sol:Snyker",
        "label": "_itemsSold",
        "offset": 0,
        "slot": "8",
        "type": "t_struct(Counter)1588_storage"
      },
      {
        "astId": 2752,
        "contract": "contracts/Snyker.sol:Snyker",
        "label": "admin",
        "offset": 0,
        "slot": "9",
        "type": "t_address_payable"
      },
      {
        "astId": 2755,
        "contract": "contracts/Snyker.sol:Snyker",
        "label": "priceMarket",
        "offset": 0,
        "slot": "10",
        "type": "t_uint256"
      },
      {
        "astId": 2827,
        "contract": "contracts/Snyker.sol:Snyker",
        "label": "idOfSneaker",
        "offset": 0,
        "slot": "11",
        "type": "t_mapping(t_uint256,t_struct(Sneaker)2770_storage)"
      }
    ],
    "types": {
      "t_address": {
        "encoding": "inplace",
        "label": "address",
        "numberOfBytes": "20"
      },
      "t_address_payable": {
        "encoding": "inplace",
        "label": "address payable",
        "numberOfBytes": "20"
      },
      "t_bool": {
        "encoding": "inplace",
        "label": "bool",
        "numberOfBytes": "1"
      },
      "t_mapping(t_address,t_bool)": {
        "encoding": "mapping",
        "key": "t_address",
        "label": "mapping(address => bool)",
        "numberOfBytes": "32",
        "value": "t_bool"
      },
      "t_mapping(t_address,t_mapping(t_address,t_bool))": {
        "encoding": "mapping",
        "key": "t_address",
        "label": "mapping(address => mapping(address => bool))",
        "numberOfBytes": "32",
        "value": "t_mapping(t_address,t_bool)"
      },
      "t_mapping(t_address,t_uint256)": {
        "encoding": "mapping",
        "key": "t_address",
        "label": "mapping(address => uint256)",
        "numberOfBytes": "32",
        "value": "t_uint256"
      },
      "t_mapping(t_uint256,t_address)": {
        "encoding": "mapping",
        "key": "t_uint256",
        "label": "mapping(uint256 => address)",
        "numberOfBytes": "32",
        "value": "t_address"
      },
      "t_mapping(t_uint256,t_string_storage)": {
        "encoding": "mapping",
        "key": "t_uint256",
        "label": "mapping(uint256 => string)",
        "numberOfBytes": "32",
        "value": "t_string_storage"
      },
      "t_mapping(t_uint256,t_struct(Sneaker)2770_storage)": {
        "encoding": "mapping",
        "key": "t_uint256",
        "label": "mapping(uint256 => struct Snyker.Sneaker)",
        "numberOfBytes": "32",
        "value": "t_struct(Sneaker)2770_storage"
      },
      "t_string_storage": {
        "encoding": "bytes",
        "label": "string",
        "numberOfBytes": "32"
      },
      "t_struct(Counter)1588_storage": {
        "encoding": "inplace",
        "label": "struct Counters.Counter",
        "members": [
          {
            "astId": 1587,
            "contract": "contracts/Snyker.sol:Snyker",
            "label": "_value",
            "offset": 0,
            "slot": "0",
            "type": "t_uint256"
          }
        ],
        "numberOfBytes": "32"
      },
      "t_struct(Sneaker)2770_storage": {
        "encoding": "inplace",
        "label": "struct Snyker.Sneaker",
        "members": [
          {
            "astId": 2757,
            "contract": "contracts/Snyker.sol:Snyker",
            "label": "tokenId",
            "offset": 0,
            "slot": "0",
            "type": "t_uint256"
          },
          {
            "astId": 2759,
            "contract": "contracts/Snyker.sol:Snyker",
            "label": "name",
            "offset": 0,
            "slot": "1",
            "type": "t_string_storage"
          },
          {
            "astId": 2761,
            "contract": "contracts/Snyker.sol:Snyker",
            "label": "description",
            "offset": 0,
            "slot": "2",
            "type": "t_string_storage"
          },
          {
            "astId": 2763,
            "contract": "contracts/Snyker.sol:Snyker",
            "label": "owner",
            "offset": 0,
            "slot": "3",
            "type": "t_address_payable"
          },
          {
            "astId": 2765,
            "contract": "contracts/Snyker.sol:Snyker",
            "label": "price",
            "offset": 0,
            "slot": "4",
            "type": "t_uint256"
          },
          {
            "astId": 2767,
            "contract": "contracts/Snyker.sol:Snyker",
            "label": "firstSale",
            "offset": 0,
            "slot": "5",
            "type": "t_bool"
          },
          {
            "astId": 2769,
            "contract": "contracts/Snyker.sol:Snyker",
            "label": "isInSale",
            "offset": 1,
            "slot": "5",
            "type": "t_bool"
          }
        ],
        "numberOfBytes": "192"
      },
      "t_uint256": {
        "encoding": "inplace",
        "label": "uint256",
        "numberOfBytes": "32"
      }
    }
  }
}