{
  "address": "0xa85233C63b9Ee964Add6F2cffe00Fd84eb32338f",
  "abi": [
    {
      "inputs": [],
      "stateMutability": "nonpayable",
      "type": "constructor"
    },
    {
      "anonymous": false,
      "inputs": [
        {
          "indexed": true,
          "internalType": "address",
          "name": "owner",
          "type": "address"
        },
        {
          "indexed": true,
          "internalType": "address",
          "name": "approved",
          "type": "address"
        },
        {
          "indexed": true,
          "internalType": "uint256",
          "name": "tokenId",
          "type": "uint256"
        }
      ],
      "name": "Approval",
      "type": "event"
    },
    {
      "anonymous": false,
      "inputs": [
        {
          "indexed": true,
          "internalType": "address",
          "name": "owner",
          "type": "address"
        },
        {
          "indexed": true,
          "internalType": "address",
          "name": "operator",
          "type": "address"
        },
        {
          "indexed": false,
          "internalType": "bool",
          "name": "approved",
          "type": "bool"
        }
      ],
      "name": "ApprovalForAll",
      "type": "event"
    },
    {
      "anonymous": false,
      "inputs": [
        {
          "indexed": true,
          "internalType": "address",
          "name": "from",
          "type": "address"
        },
        {
          "indexed": true,
          "internalType": "address",
          "name": "to",
          "type": "address"
        },
        {
          "indexed": true,
          "internalType": "uint256",
          "name": "tokenId",
          "type": "uint256"
        }
      ],
      "name": "Transfer",
      "type": "event"
    },
    {
      "anonymous": false,
      "inputs": [
        {
          "indexed": false,
          "internalType": "uint256",
          "name": "priceMarket",
          "type": "uint256"
        }
      ],
      "name": "listPriceUpdated",
      "type": "event"
    },
    {
      "anonymous": false,
      "inputs": [
        {
          "indexed": false,
          "internalType": "address",
          "name": "owner",
          "type": "address"
        },
        {
          "indexed": false,
          "internalType": "uint256",
          "name": "tokenId",
          "type": "uint256"
        },
        {
          "indexed": false,
          "internalType": "bool",
          "name": "isInSale",
          "type": "bool"
        },
        {
          "indexed": false,
          "internalType": "bool",
          "name": "firstSale",
          "type": "bool"
        }
      ],
      "name": "releaseExecuted",
      "type": "event"
    },
    {
      "anonymous": false,
      "inputs": [
        {
          "indexed": false,
          "internalType": "address",
          "name": "owner",
          "type": "address"
        },
        {
          "indexed": false,
          "internalType": "uint256",
          "name": "price",
          "type": "uint256"
        },
        {
          "indexed": false,
          "internalType": "uint256",
          "name": "tokenId",
          "type": "uint256"
        },
        {
          "indexed": false,
          "internalType": "bool",
          "name": "isInSale",
          "type": "bool"
        },
        {
          "indexed": false,
          "internalType": "bool",
          "name": "firstSale",
          "type": "bool"
        }
      ],
      "name": "saleExecuted",
      "type": "event"
    },
    {
      "anonymous": false,
      "inputs": [
        {
          "indexed": false,
          "internalType": "uint256",
          "name": "price",
          "type": "uint256"
        },
        {
          "indexed": false,
          "internalType": "uint256",
          "name": "tokenId",
          "type": "uint256"
        },
        {
          "indexed": false,
          "internalType": "bool",
          "name": "isInSale",
          "type": "bool"
        },
        {
          "indexed": false,
          "internalType": "bool",
          "name": "firstSale",
          "type": "bool"
        }
      ],
      "name": "sneakerSelled",
      "type": "event"
    },
    {
      "anonymous": false,
      "inputs": [
        {
          "indexed": false,
          "internalType": "uint256",
          "name": "tokenId",
          "type": "uint256"
        },
        {
          "indexed": false,
          "internalType": "string",
          "name": "name",
          "type": "string"
        },
        {
          "indexed": false,
          "internalType": "string",
          "name": "description",
          "type": "string"
        },
        {
          "indexed": false,
          "internalType": "address",
          "name": "owner",
          "type": "address"
        },
        {
          "indexed": false,
          "internalType": "uint256",
          "name": "price",
          "type": "uint256"
        },
        {
          "indexed": false,
          "internalType": "bool",
          "name": "firstSale",
          "type": "bool"
        },
        {
          "indexed": false,
          "internalType": "bool",
          "name": "isInSale",
          "type": "bool"
        }
      ],
      "name": "tokenCreated",
      "type": "event"
    },
    {
      "inputs": [
        {
          "internalType": "address",
          "name": "to",
          "type": "address"
        },
        {
          "internalType": "uint256",
          "name": "tokenId",
          "type": "uint256"
        }
      ],
      "name": "approve",
      "outputs": [],
      "stateMutability": "nonpayable",
      "type": "function"
    },
    {
      "inputs": [
        {
          "internalType": "address",
          "name": "owner",
          "type": "address"
        }
      ],
      "name": "balanceOf",
      "outputs": [
        {
          "internalType": "uint256",
          "name": "",
          "type": "uint256"
        }
      ],
      "stateMutability": "view",
      "type": "function"
    },
    {
      "inputs": [
        {
          "internalType": "string",
          "name": "tokenURI",
          "type": "string"
        },
        {
          "internalType": "string",
          "name": "name",
          "type": "string"
        },
        {
          "internalType": "string",
          "name": "description",
          "type": "string"
        },
        {
          "internalType": "uint256",
          "name": "price",
          "type": "uint256"
        }
      ],
      "name": "createToken",
      "outputs": [
        {
          "internalType": "uint256",
          "name": "",
          "type": "uint256"
        }
      ],
      "stateMutability": "payable",
      "type": "function"
    },
    {
      "inputs": [
        {
          "internalType": "uint256",
          "name": "tokenId",
          "type": "uint256"
        }
      ],
      "name": "deleteSneakers",
      "outputs": [],
      "stateMutability": "nonpayable",
      "type": "function"
    },
    {
      "inputs": [
        {
          "internalType": "uint256",
          "name": "tokenId",
          "type": "uint256"
        }
      ],
      "name": "executeRelease",
      "outputs": [],
      "stateMutability": "payable",
      "type": "function"
    },
    {
      "inputs": [
        {
          "internalType": "uint256",
          "name": "tokenId",
          "type": "uint256"
        }
      ],
      "name": "executeSale",
      "outputs": [],
      "stateMutability": "payable",
      "type": "function"
    },
    {
      "inputs": [],
      "name": "getAllNFTs",
      "outputs": [
        {
          "components": [
            {
              "internalType": "uint256",
              "name": "tokenId",
              "type": "uint256"
            },
            {
              "internalType": "string",
              "name": "name",
              "type": "string"
            },
            {
              "internalType": "string",
              "name": "description",
              "type": "string"
            },
            {
              "internalType": "address payable",
              "name": "owner",
              "type": "address"
            },
            {
              "internalType": "uint256",
              "name": "price",
              "type": "uint256"
            },
            {
              "internalType": "bool",
              "name": "firstSale",
              "type": "bool"
            },
            {
              "internalType": "bool",
              "name": "isInSale",
              "type": "bool"
            }
          ],
          "internalType": "struct Snyker.Sneaker[]",
          "name": "",
          "type": "tuple[]"
        }
      ],
      "stateMutability": "view",
      "type": "function"
    },
    {
      "inputs": [
        {
          "internalType": "uint256",
          "name": "tokenId",
          "type": "uint256"
        }
      ],
      "name": "getApproved",
      "outputs": [
        {
          "internalType": "address",
          "name": "",
          "type": "address"
        }
      ],
      "stateMutability": "view",
      "type": "function"
    },
    {
      "inputs": [],
      "name": "getCurrentToken",
      "outputs": [
        {
          "internalType": "uint256",
          "name": "",
          "type": "uint256"
        }
      ],
      "stateMutability": "view",
      "type": "function"
    },
    {
      "inputs": [],
      "name": "getLatestIdToListedToken",
      "outputs": [
        {
          "components": [
            {
              "internalType": "uint256",
              "name": "tokenId",
              "type": "uint256"
            },
            {
              "internalType": "string",
              "name": "name",
              "type": "string"
            },
            {
              "internalType": "string",
              "name": "description",
              "type": "string"
            },
            {
              "internalType": "address payable",
              "name": "owner",
              "type": "address"
            },
            {
              "internalType": "uint256",
              "name": "price",
              "type": "uint256"
            },
            {
              "internalType": "bool",
              "name": "firstSale",
              "type": "bool"
            },
            {
              "internalType": "bool",
              "name": "isInSale",
              "type": "bool"
            }
          ],
          "internalType": "struct Snyker.Sneaker",
          "name": "",
          "type": "tuple"
        }
      ],
      "stateMutability": "view",
      "type": "function"
    },
    {
      "inputs": [],
      "name": "getListPrice",
      "outputs": [
        {
          "internalType": "uint256",
          "name": "",
          "type": "uint256"
        }
      ],
      "stateMutability": "view",
      "type": "function"
    },
    {
      "inputs": [
        {
          "internalType": "uint256",
          "name": "tokenId",
          "type": "uint256"
        }
      ],
      "name": "getListedTokenForId",
      "outputs": [
        {
          "components": [
            {
              "internalType": "uint256",
              "name": "tokenId",
              "type": "uint256"
            },
            {
              "internalType": "string",
              "name": "name",
              "type": "string"
            },
            {
              "internalType": "string",
              "name": "description",
              "type": "string"
            },
            {
              "internalType": "address payable",
              "name": "owner",
              "type": "address"
            },
            {
              "internalType": "uint256",
              "name": "price",
              "type": "uint256"
            },
            {
              "internalType": "bool",
              "name": "firstSale",
              "type": "bool"
            },
            {
              "internalType": "bool",
              "name": "isInSale",
              "type": "bool"
            }
          ],
          "internalType": "struct Snyker.Sneaker",
          "name": "",
          "type": "tuple"
        }
      ],
      "stateMutability": "view",
      "type": "function"
    },
    {
      "inputs": [],
      "name": "getMyNFTs",
      "outputs": [
        {
          "components": [
            {
              "internalType": "uint256",
              "name": "tokenId",
              "type": "uint256"
            },
            {
              "internalType": "string",
              "name": "name",
              "type": "string"
            },
            {
              "internalType": "string",
              "name": "description",
              "type": "string"
            },
            {
              "internalType": "address payable",
              "name": "owner",
              "type": "address"
            },
            {
              "internalType": "uint256",
              "name": "price",
              "type": "uint256"
            },
            {
              "internalType": "bool",
              "name": "firstSale",
              "type": "bool"
            },
            {
              "internalType": "bool",
              "name": "isInSale",
              "type": "bool"
            }
          ],
          "internalType": "struct Snyker.Sneaker[]",
          "name": "",
          "type": "tuple[]"
        }
      ],
      "stateMutability": "view",
      "type": "function"
    },
    {
      "inputs": [
        {
          "internalType": "address",
          "name": "owner",
          "type": "address"
        },
        {
          "internalType": "address",
          "name": "operator",
          "type": "address"
        }
      ],
      "name": "isApprovedForAll",
      "outputs": [
        {
          "internalType": "bool",
          "name": "",
          "type": "bool"
        }
      ],
      "stateMutability": "view",
      "type": "function"
    },
    {
      "inputs": [],
      "name": "name",
      "outputs": [
        {
          "internalType": "string",
          "name": "",
          "type": "string"
        }
      ],
      "stateMutability": "view",
      "type": "function"
    },
    {
      "inputs": [
        {
          "internalType": "uint256",
          "name": "tokenId",
          "type": "uint256"
        }
      ],
      "name": "ownerOf",
      "outputs": [
        {
          "internalType": "address",
          "name": "",
          "type": "address"
        }
      ],
      "stateMutability": "view",
      "type": "function"
    },
    {
      "inputs": [
        {
          "internalType": "address",
          "name": "from",
          "type": "address"
        },
        {
          "internalType": "address",
          "name": "to",
          "type": "address"
        },
        {
          "internalType": "uint256",
          "name": "tokenId",
          "type": "uint256"
        }
      ],
      "name": "safeTransferFrom",
      "outputs": [],
      "stateMutability": "nonpayable",
      "type": "function"
    },
    {
      "inputs": [
        {
          "internalType": "address",
          "name": "from",
          "type": "address"
        },
        {
          "internalType": "address",
          "name": "to",
          "type": "address"
        },
        {
          "internalType": "uint256",
          "name": "tokenId",
          "type": "uint256"
        },
        {
          "internalType": "bytes",
          "name": "data",
          "type": "bytes"
        }
      ],
      "name": "safeTransferFrom",
      "outputs": [],
      "stateMutability": "nonpayable",
      "type": "function"
    },
    {
      "inputs": [
        {
          "internalType": "uint256",
          "name": "tokenId",
          "type": "uint256"
        },
        {
          "internalType": "uint256",
          "name": "price",
          "type": "uint256"
        }
      ],
      "name": "sellSneaker",
      "outputs": [
        {
          "internalType": "string",
          "name": "",
          "type": "string"
        }
      ],
      "stateMutability": "payable",
      "type": "function"
    },
    {
      "inputs": [
        {
          "internalType": "address",
          "name": "operator",
          "type": "address"
        },
        {
          "internalType": "bool",
          "name": "approved",
          "type": "bool"
        }
      ],
      "name": "setApprovalForAll",
      "outputs": [],
      "stateMutability": "nonpayable",
      "type": "function"
    },
    {
      "inputs": [
        {
          "internalType": "bytes4",
          "name": "interfaceId",
          "type": "bytes4"
        }
      ],
      "name": "supportsInterface",
      "outputs": [
        {
          "internalType": "bool",
          "name": "",
          "type": "bool"
        }
      ],
      "stateMutability": "view",
      "type": "function"
    },
    {
      "inputs": [],
      "name": "symbol",
      "outputs": [
        {
          "internalType": "string",
          "name": "",
          "type": "string"
        }
      ],
      "stateMutability": "view",
      "type": "function"
    },
    {
      "inputs": [
        {
          "internalType": "uint256",
          "name": "tokenId",
          "type": "uint256"
        }
      ],
      "name": "tokenURI",
      "outputs": [
        {
          "internalType": "string",
          "name": "",
          "type": "string"
        }
      ],
      "stateMutability": "view",
      "type": "function"
    },
    {
      "inputs": [
        {
          "internalType": "address",
          "name": "from",
          "type": "address"
        },
        {
          "internalType": "address",
          "name": "to",
          "type": "address"
        },
        {
          "internalType": "uint256",
          "name": "tokenId",
          "type": "uint256"
        }
      ],
      "name": "transferFrom",
      "outputs": [],
      "stateMutability": "nonpayable",
      "type": "function"
    },
    {
      "inputs": [
        {
          "internalType": "uint256",
          "name": "_priceMarket",
          "type": "uint256"
        }
      ],
      "name": "updateListPrice",
      "outputs": [],
      "stateMutability": "payable",
      "type": "function"
    },
    {
      "inputs": [],
      "name": "withdrawAll",
      "outputs": [],
      "stateMutability": "nonpayable",
      "type": "function"
    }
  ],
  "transactionHash": "0x689622cdc87704bd1e2459379f9ab4b03169b34ef17ebd0d8b877b78020fe291",
  "args": [],
  "numDeployments": 2,
  "solcInputHash": "b6465cf3935841cad48c5274fe5373f6",
  "bytecode": "0x6080604052662386f26fc10000600a553480156200001c57600080fd5b506040518060400160405280600681526020017f536e796b657200000000000000000000000000000000000000000000000000008152506040518060400160405280600381526020017f53544b00000000000000000000000000000000000000000000000000000000008152508160009080519060200190620000a192919062000104565b508060019080519060200190620000ba92919062000104565b50505033600960006101000a81548173ffffffffffffffffffffffffffffffffffffffff021916908373ffffffffffffffffffffffffffffffffffffffff16021790555062000219565b8280546200011290620001e3565b90600052602060002090601f01602090048101928262000136576000855562000182565b82601f106200015157805160ff191683800117855562000182565b8280016001018555821562000182579182015b828111156200018157825182559160200191906001019062000164565b5b50905062000191919062000195565b5090565b5b80821115620001b057600081600090555060010162000196565b5090565b7f4e487b7100000000000000000000000000000000000000000000000000000000600052602260045260246000fd5b60006002820490506001821680620001fc57607f821691505b60208210811415620002135762000212620001b4565b5b50919050565b6150a780620002296000396000f3fe6080604052600436106101815760003560e01c80638e264590116100d1578063c87b56dd1161008a578063e2825e0811610064578063e2825e081461056b578063e985e9c514610587578063ef2d1746146105c4578063efbe8fd1146105ef57610181565b8063c87b56dd146104d8578063d1a88ae514610515578063e0391b091461054057610181565b80638e264590146103e657806395d89b41146104235780639b1225c41461044e578063a22cb4651461046a578063b88d4fde14610493578063c322579c146104bc57610181565b806342842e0e1161013e57806368f1945f1161011857806368f1945f1461033e57806370a08231146103695780637241eeed146103a6578063853828b6146103cf57610181565b806342842e0e146102ad578063629cb2e4146102d65780636352211e1461030157610181565b806301ffc9a71461018657806306fdde03146101c3578063081812fc146101ee578063095ea7b31461022b57806323b872dd146102545780632fab29b31461027d575b600080fd5b34801561019257600080fd5b506101ad60048036038101906101a89190613727565b61061f565b6040516101ba919061376f565b60405180910390f35b3480156101cf57600080fd5b506101d8610701565b6040516101e59190613823565b60405180910390f35b3480156101fa57600080fd5b506102156004803603810190610210919061387b565b610793565b60405161022291906138e9565b60405180910390f35b34801561023757600080fd5b50610252600480360381019061024d9190613930565b6107d9565b005b34801561026057600080fd5b5061027b60048036038101906102769190613970565b6108f1565b005b610297600480360381019061029291906139c3565b610951565b6040516102a49190613823565b60405180910390f35b3480156102b957600080fd5b506102d460048036038101906102cf9190613970565b610bb0565b005b3480156102e257600080fd5b506102eb610bd0565b6040516102f89190613bf1565b60405180910390f35b34801561030d57600080fd5b506103286004803603810190610323919061387b565b611028565b60405161033591906138e9565b60405180910390f35b34801561034a57600080fd5b506103536110af565b6040516103609190613c22565b60405180910390f35b34801561037557600080fd5b50610390600480360381019061038b9190613c3d565b6110b9565b60405161039d9190613c22565b60405180910390f35b3480156103b257600080fd5b506103cd60048036038101906103c8919061387b565b611171565b005b3480156103db57600080fd5b506103e461120d565b005b3480156103f257600080fd5b5061040d6004803603810190610408919061387b565b611308565b60405161041a9190613d0d565b60405180910390f35b34801561042f57600080fd5b506104386114f9565b6040516104459190613823565b60405180910390f35b6104686004803603810190610463919061387b565b61158b565b005b34801561047657600080fd5b50610491600480360381019061048c9190613d5b565b6117a2565b005b34801561049f57600080fd5b506104ba60048036038101906104b59190613ed0565b6117b8565b005b6104d660048036038101906104d1919061387b565b61181a565b005b3480156104e457600080fd5b506104ff60048036038101906104fa919061387b565b6118eb565b60405161050c9190613823565b60405180910390f35b34801561052157600080fd5b5061052a6119fe565b6040516105379190613d0d565b60405180910390f35b34801561054c57600080fd5b50610555611bfc565b6040516105629190613bf1565b60405180910390f35b6105856004803603810190610580919061387b565b611ef4565b005b34801561059357600080fd5b506105ae60048036038101906105a99190613f53565b6120d3565b6040516105bb919061376f565b60405180910390f35b3480156105d057600080fd5b506105d9612167565b6040516105e69190613c22565b60405180910390f35b61060960048036038101906106049190614034565b612178565b6040516106169190613c22565b60405180910390f35b60007f80ac58cd000000000000000000000000000000000000000000000000000000007bffffffffffffffffffffffffffffffffffffffffffffffffffffffff1916827bffffffffffffffffffffffffffffffffffffffffffffffffffffffff191614806106ea57507f5b5e139f000000000000000000000000000000000000000000000000000000007bffffffffffffffffffffffffffffffffffffffffffffffffffffffff1916827bffffffffffffffffffffffffffffffffffffffffffffffffffffffff1916145b806106fa57506106f9826121be565b5b9050919050565b6060600080546107109061411e565b80601f016020809104026020016040519081016040528092919081815260200182805461073c9061411e565b80156107895780601f1061075e57610100808354040283529160200191610789565b820191906000526020600020905b81548152906001019060200180831161076c57829003601f168201915b5050505050905090565b600061079e82612228565b6004600083815260200190815260200160002060009054906101000a900473ffffffffffffffffffffffffffffffffffffffff169050919050565b60006107e482611028565b90508073ffffffffffffffffffffffffffffffffffffffff168373ffffffffffffffffffffffffffffffffffffffff161415610855576040517f08c379a000000000000000000000000000000000000000000000000000000000815260040161084c906141c2565b60405180910390fd5b8073ffffffffffffffffffffffffffffffffffffffff16610874612273565b73ffffffffffffffffffffffffffffffffffffffff1614806108a357506108a28161089d612273565b6120d3565b5b6108e2576040517f08c379a00000000000000000000000000000000000000000000000000000000081526004016108d990614254565b60405180910390fd5b6108ec838361227b565b505050565b6109026108fc612273565b82612334565b610941576040517f08c379a0000000000000000000000000000000000000000000000000000000008152600401610938906142e6565b60405180910390fd5b61094c8383836123c9565b505050565b6060600a54341015610998576040517f08c379a000000000000000000000000000000000000000000000000000000000815260040161098f90614378565b60405180910390fd5b600b600084815260200190815260200160002060030160009054906101000a900473ffffffffffffffffffffffffffffffffffffffff1673ffffffffffffffffffffffffffffffffffffffff163373ffffffffffffffffffffffffffffffffffffffff1614610a3c576040517f08c379a0000000000000000000000000000000000000000000000000000000008152600401610a339061440a565b60405180910390fd5b6001600b600085815260200190815260200160002060050160016101000a81548160ff0219169083151502179055506000600b600085815260200190815260200160002060050160006101000a81548160ff021916908315150217905550670de0b6b3a764000082610aae9190614459565b600b600085815260200190815260200160002060040181905550600960009054906101000a900473ffffffffffffffffffffffffffffffffffffffff1673ffffffffffffffffffffffffffffffffffffffff166108fc600a549081150290604051600060405180830381858888f19350505050158015610b32573d6000803e3d6000fd5b507f922a874ed3475c4c5e48bf280cc23902a670519eaaa289533c1919a8f4436bba828460016000604051610b6a94939291906144b3565b60405180910390a16040518060400160405280600f81526020017f536e65616b657220696e2073656c6c0000000000000000000000000000000000815250905092915050565b610bcb838383604051806020016040528060008152506117b8565b505050565b60606000610bde60076126c3565b9050600080600080600090505b84811015610ccb573373ffffffffffffffffffffffffffffffffffffffff16600b6000600184610c1b91906144f8565b815260200190815260200160002060030160009054906101000a900473ffffffffffffffffffffffffffffffffffffffff1673ffffffffffffffffffffffffffffffffffffffff16148015610ca3575060001515600b6000600184610c8091906144f8565b815260200190815260200160002060050160019054906101000a900460ff161515145b15610cb857600184610cb591906144f8565b93505b8080610cc39061454e565b915050610beb565b5060008367ffffffffffffffff811115610ce857610ce7613da5565b5b604051908082528060200260200182016040528015610d2157816020015b610d0e613581565b815260200190600190039081610d065790505b50905060005b8581101561101c573373ffffffffffffffffffffffffffffffffffffffff16600b6000600184610d5791906144f8565b815260200190815260200160002060030160009054906101000a900473ffffffffffffffffffffffffffffffffffffffff1673ffffffffffffffffffffffffffffffffffffffff16148015610ddf575060001515600b6000600184610dbc91906144f8565b815260200190815260200160002060050160019054906101000a900460ff161515145b1561100957600181610df191906144f8565b92506000600b60008581526020019081526020016000209050806040518060e001604052908160008201548152602001600182018054610e309061411e565b80601f0160208091040260200160405190810160405280929190818152602001828054610e5c9061411e565b8015610ea95780601f10610e7e57610100808354040283529160200191610ea9565b820191906000526020600020905b815481529060010190602001808311610e8c57829003601f168201915b50505050508152602001600282018054610ec29061411e565b80601f0160208091040260200160405190810160405280929190818152602001828054610eee9061411e565b8015610f3b5780601f10610f1057610100808354040283529160200191610f3b565b820191906000526020600020905b815481529060010190602001808311610f1e57829003601f168201915b505050505081526020016003820160009054906101000a900473ffffffffffffffffffffffffffffffffffffffff1673ffffffffffffffffffffffffffffffffffffffff1673ffffffffffffffffffffffffffffffffffffffff168152602001600482015481526020016005820160009054906101000a900460ff161515151581526020016005820160019054906101000a900460ff161515151581525050838681518110610fed57610fec614597565b5b602002602001018190525060018561100591906144f8565b9450505b80806110149061454e565b915050610d27565b50809550505050505090565b600080611034836126d1565b9050600073ffffffffffffffffffffffffffffffffffffffff168173ffffffffffffffffffffffffffffffffffffffff1614156110a6576040517f08c379a000000000000000000000000000000000000000000000000000000000815260040161109d90614612565b60405180910390fd5b80915050919050565b6000600a54905090565b60008073ffffffffffffffffffffffffffffffffffffffff168273ffffffffffffffffffffffffffffffffffffffff16141561112a576040517f08c379a0000000000000000000000000000000000000000000000000000000008152600401611121906146a4565b60405180910390fd5b600360008373ffffffffffffffffffffffffffffffffffffffff1673ffffffffffffffffffffffffffffffffffffffff168152602001908152602001600020549050919050565b600960009054906101000a900473ffffffffffffffffffffffffffffffffffffffff1673ffffffffffffffffffffffffffffffffffffffff163373ffffffffffffffffffffffffffffffffffffffff1614611201576040517f08c379a00000000000000000000000000000000000000000000000000000000081526004016111f890614710565b60405180910390fd5b61120a8161270e565b50565b600960009054906101000a900473ffffffffffffffffffffffffffffffffffffffff1673ffffffffffffffffffffffffffffffffffffffff163373ffffffffffffffffffffffffffffffffffffffff161461129d576040517f08c379a00000000000000000000000000000000000000000000000000000000081526004016112949061477c565b60405180910390fd5b600960009054906101000a900473ffffffffffffffffffffffffffffffffffffffff1673ffffffffffffffffffffffffffffffffffffffff166108fc479081150290604051600060405180830381858888f19350505050158015611305573d6000803e3d6000fd5b50565b611310613581565b600b60008381526020019081526020016000206040518060e0016040529081600082015481526020016001820180546113489061411e565b80601f01602080910402602001604051908101604052809291908181526020018280546113749061411e565b80156113c15780601f10611396576101008083540402835291602001916113c1565b820191906000526020600020905b8154815290600101906020018083116113a457829003601f168201915b505050505081526020016002820180546113da9061411e565b80601f01602080910402602001604051908101604052809291908181526020018280546114069061411e565b80156114535780601f1061142857610100808354040283529160200191611453565b820191906000526020600020905b81548152906001019060200180831161143657829003601f168201915b505050505081526020016003820160009054906101000a900473ffffffffffffffffffffffffffffffffffffffff1673ffffffffffffffffffffffffffffffffffffffff1673ffffffffffffffffffffffffffffffffffffffff168152602001600482015481526020016005820160009054906101000a900460ff161515151581526020016005820160019054906101000a900460ff1615151515815250509050919050565b6060600180546115089061411e565b80601f01602080910402602001604051908101604052809291908181526020018280546115349061411e565b80156115815780601f1061155657610100808354040283529160200191611581565b820191906000526020600020905b81548152906001019060200180831161156457829003601f168201915b5050505050905090565b600b600082815260200190815260200160002060050160019054906101000a900460ff166115ee576040517f08c379a00000000000000000000000000000000000000000000000000000000081526004016115e5906147e8565b60405180910390fd5b6000600b60008381526020019081526020016000206004015490508034101561164c576040517f08c379a000000000000000000000000000000000000000000000000000000000815260040161164390614854565b60405180910390fd5b6000600b600084815260200190815260200160002060030160009054906101000a900473ffffffffffffffffffffffffffffffffffffffff1690506116928133856123c9565b8073ffffffffffffffffffffffffffffffffffffffff166108fc839081150290604051600060405180830381858888f193505050501580156116d8573d6000803e3d6000fd5b5033600b600085815260200190815260200160002060030160006101000a81548173ffffffffffffffffffffffffffffffffffffffff021916908373ffffffffffffffffffffffffffffffffffffffff1602179055506000600b600085815260200190815260200160002060050160016101000a81548160ff0219169083151502179055507f335edbe3e9a24e866f0d0b159746d469fad4639e0907b58c8d183dc2dfd7f8e5338385600080604051611795959493929190614874565b60405180910390a1505050565b6117b46117ad612273565b8383612761565b5050565b6117c96117c3612273565b83612334565b611808576040517f08c379a00000000000000000000000000000000000000000000000000000000081526004016117ff906142e6565b60405180910390fd5b611814848484846128ce565b50505050565b3373ffffffffffffffffffffffffffffffffffffffff16600960009054906101000a900473ffffffffffffffffffffffffffffffffffffffff1673ffffffffffffffffffffffffffffffffffffffff16146118aa576040517f08c379a00000000000000000000000000000000000000000000000000000000081526004016118a190614939565b60405180910390fd5b80600a819055507f47cce1c40535876723d9c860d6f17d3a8edfbc2d34acfeb5fcb27ebe02dfb1cb816040516118e09190613c22565b60405180910390a150565b60606118f682612228565b60006006600084815260200190815260200160002080546119169061411e565b80601f01602080910402602001604051908101604052809291908181526020018280546119429061411e565b801561198f5780601f106119645761010080835404028352916020019161198f565b820191906000526020600020905b81548152906001019060200180831161197257829003601f168201915b5050505050905060006119a061292a565b90506000815114156119b65781925050506119f9565b6000825111156119eb5780826040516020016119d3929190614995565b604051602081830303815290604052925050506119f9565b6119f484612941565b925050505b919050565b611a06613581565b6000611a1260076126c3565b9050600b60008281526020019081526020016000206040518060e001604052908160008201548152602001600182018054611a4c9061411e565b80601f0160208091040260200160405190810160405280929190818152602001828054611a789061411e565b8015611ac55780601f10611a9a57610100808354040283529160200191611ac5565b820191906000526020600020905b815481529060010190602001808311611aa857829003601f168201915b50505050508152602001600282018054611ade9061411e565b80601f0160208091040260200160405190810160405280929190818152602001828054611b0a9061411e565b8015611b575780601f10611b2c57610100808354040283529160200191611b57565b820191906000526020600020905b815481529060010190602001808311611b3a57829003601f168201915b505050505081526020016003820160009054906101000a900473ffffffffffffffffffffffffffffffffffffffff1673ffffffffffffffffffffffffffffffffffffffff1673ffffffffffffffffffffffffffffffffffffffff168152602001600482015481526020016005820160009054906101000a900460ff161515151581526020016005820160019054906101000a900460ff16151515158152505091505090565b60606000611c0a60076126c3565b905060008167ffffffffffffffff811115611c2857611c27613da5565b5b604051908082528060200260200182016040528015611c6157816020015b611c4e613581565b815260200190600190039081611c465790505b50905060008080600090505b84811015611ee95760011515600b6000600184611c8a91906144f8565b815260200190815260200160002060050160019054906101000a900460ff1615151415611ed657600181611cbe91906144f8565b91506000600b60008481526020019081526020016000209050806040518060e001604052908160008201548152602001600182018054611cfd9061411e565b80601f0160208091040260200160405190810160405280929190818152602001828054611d299061411e565b8015611d765780601f10611d4b57610100808354040283529160200191611d76565b820191906000526020600020905b815481529060010190602001808311611d5957829003601f168201915b50505050508152602001600282018054611d8f9061411e565b80601f0160208091040260200160405190810160405280929190818152602001828054611dbb9061411e565b8015611e085780601f10611ddd57610100808354040283529160200191611e08565b820191906000526020600020905b815481529060010190602001808311611deb57829003601f168201915b505050505081526020016003820160009054906101000a900473ffffffffffffffffffffffffffffffffffffffff1673ffffffffffffffffffffffffffffffffffffffff1673ffffffffffffffffffffffffffffffffffffffff168152602001600482015481526020016005820160009054906101000a900460ff161515151581526020016005820160019054906101000a900460ff161515151581525050858581518110611eba57611eb9614597565b5b6020026020010181905250600184611ed291906144f8565b9350505b8080611ee19061454e565b915050611c6d565b508294505050505090565b600b600082815260200190815260200160002060040154341015611f4d576040517f08c379a0000000000000000000000000000000000000000000000000000000008152600401611f4490614854565b60405180910390fd5b600b600082815260200190815260200160002060030160009054906101000a900473ffffffffffffffffffffffffffffffffffffffff1673ffffffffffffffffffffffffffffffffffffffff166108fc349081150290604051600060405180830381858888f19350505050158015611fc9573d6000803e3d6000fd5b50611fd53033836123c9565b611fdf30826107d9565b33600b600083815260200190815260200160002060030160006101000a81548173ffffffffffffffffffffffffffffffffffffffff021916908373ffffffffffffffffffffffffffffffffffffffff1602179055506000600b600083815260200190815260200160002060050160016101000a81548160ff0219169083151502179055506000600b600083815260200190815260200160002060050160006101000a81548160ff0219169083151502179055507f58b06b1ea542ad16a81436f36c03cfaf8c4d8df625be516ea60dced5d30f272a33826000806040516120c894939291906149b9565b60405180910390a150565b6000600560008473ffffffffffffffffffffffffffffffffffffffff1673ffffffffffffffffffffffffffffffffffffffff16815260200190815260200160002060008373ffffffffffffffffffffffffffffffffffffffff1673ffffffffffffffffffffffffffffffffffffffff16815260200190815260200160002060009054906101000a900460ff16905092915050565b600061217360076126c3565b905090565b600061218460076129a9565b600061219060076126c3565b905061219c33826129bf565b6121a681876129dd565b6121b281868686612a51565b80915050949350505050565b60007f01ffc9a7000000000000000000000000000000000000000000000000000000007bffffffffffffffffffffffffffffffffffffffffffffffffffffffff1916827bffffffffffffffffffffffffffffffffffffffffffffffffffffffff1916149050919050565b61223181612c68565b612270576040517f08c379a000000000000000000000000000000000000000000000000000000000815260040161226790614612565b60405180910390fd5b50565b600033905090565b816004600083815260200190815260200160002060006101000a81548173ffffffffffffffffffffffffffffffffffffffff021916908373ffffffffffffffffffffffffffffffffffffffff160217905550808273ffffffffffffffffffffffffffffffffffffffff166122ee83611028565b73ffffffffffffffffffffffffffffffffffffffff167f8c5be1e5ebec7d5bd14f71427d1e84f3dd0314c0f7b2291e5b200ac8c7c3b92560405160405180910390a45050565b60008061234083611028565b90508073ffffffffffffffffffffffffffffffffffffffff168473ffffffffffffffffffffffffffffffffffffffff161480612382575061238181856120d3565b5b806123c057508373ffffffffffffffffffffffffffffffffffffffff166123a884610793565b73ffffffffffffffffffffffffffffffffffffffff16145b91505092915050565b8273ffffffffffffffffffffffffffffffffffffffff166123e982611028565b73ffffffffffffffffffffffffffffffffffffffff161461243f576040517f08c379a000000000000000000000000000000000000000000000000000000000815260040161243690614a70565b60405180910390fd5b600073ffffffffffffffffffffffffffffffffffffffff168273ffffffffffffffffffffffffffffffffffffffff1614156124af576040517f08c379a00000000000000000000000000000000000000000000000000000000081526004016124a690614b02565b60405180910390fd5b6124bc8383836001612ca9565b8273ffffffffffffffffffffffffffffffffffffffff166124dc82611028565b73ffffffffffffffffffffffffffffffffffffffff1614612532576040517f08c379a000000000000000000000000000000000000000000000000000000000815260040161252990614a70565b60405180910390fd5b6004600082815260200190815260200160002060006101000a81549073ffffffffffffffffffffffffffffffffffffffff02191690556001600360008573ffffffffffffffffffffffffffffffffffffffff1673ffffffffffffffffffffffffffffffffffffffff168152602001908152602001600020600082825403925050819055506001600360008473ffffffffffffffffffffffffffffffffffffffff1673ffffffffffffffffffffffffffffffffffffffff16815260200190815260200160002060008282540192505081905550816002600083815260200190815260200160002060006101000a81548173ffffffffffffffffffffffffffffffffffffffff021916908373ffffffffffffffffffffffffffffffffffffffff160217905550808273ffffffffffffffffffffffffffffffffffffffff168473ffffffffffffffffffffffffffffffffffffffff167fddf252ad1be2c89b69c2b068fc378daa952ba7f163c4a11628f55a4df523b3ef60405160405180910390a46126be8383836001612dcf565b505050565b600081600001549050919050565b60006002600083815260200190815260200160002060009054906101000a900473ffffffffffffffffffffffffffffffffffffffff169050919050565b61271781612dd5565b60006006600083815260200190815260200160002080546127379061411e565b90501461275e5760066000828152602001908152602001600020600061275d91906135d8565b5b50565b8173ffffffffffffffffffffffffffffffffffffffff168373ffffffffffffffffffffffffffffffffffffffff1614156127d0576040517f08c379a00000000000000000000000000000000000000000000000000000000081526004016127c790614b6e565b60405180910390fd5b80600560008573ffffffffffffffffffffffffffffffffffffffff1673ffffffffffffffffffffffffffffffffffffffff16815260200190815260200160002060008473ffffffffffffffffffffffffffffffffffffffff1673ffffffffffffffffffffffffffffffffffffffff16815260200190815260200160002060006101000a81548160ff0219169083151502179055508173ffffffffffffffffffffffffffffffffffffffff168373ffffffffffffffffffffffffffffffffffffffff167f17307eab39ab6107e8899845ad3d59bd9653f200f220920489ca2b5937696c31836040516128c1919061376f565b60405180910390a3505050565b6128d98484846123c9565b6128e584848484612f23565b612924576040517f08c379a000000000000000000000000000000000000000000000000000000000815260040161291b90614c00565b60405180910390fd5b50505050565b606060405180602001604052806000815250905090565b606061294c82612228565b600061295661292a565b9050600081511161297657604051806020016040528060008152506129a1565b80612980846130ba565b604051602001612991929190614995565b6040516020818303038152906040525b915050919050565b6001816000016000828254019250508190555050565b6129d9828260405180602001604052806000815250613192565b5050565b6129e682612c68565b612a25576040517f08c379a0000000000000000000000000000000000000000000000000000000008152600401612a1c90614c92565b60405180910390fd5b80600660008481526020019081526020016000209080519060200190612a4c929190613618565b505050565b600a54341015612a96576040517f08c379a0000000000000000000000000000000000000000000000000000000008152600401612a8d90614d24565b60405180910390fd5b60008111612ad9576040517f08c379a0000000000000000000000000000000000000000000000000000000008152600401612ad090614db6565b60405180910390fd5b6040518060e001604052808581526020018481526020018381526020013373ffffffffffffffffffffffffffffffffffffffff16815260200182815260200160011515815260200160011515815250600b6000868152602001908152602001600020600082015181600001556020820151816001019080519060200190612b61929190613618565b506040820151816002019080519060200190612b7e929190613618565b5060608201518160030160006101000a81548173ffffffffffffffffffffffffffffffffffffffff021916908373ffffffffffffffffffffffffffffffffffffffff1602179055506080820151816004015560a08201518160050160006101000a81548160ff02191690831515021790555060c08201518160050160016101000a81548160ff021916908315150217905550905050612c1e3330866123c9565b7f29a539a973923aeeb88161e5cbeda7de26caadd4b8f4054367ccd9d0c8f224f58484843385600180604051612c5a9796959493929190614dd6565b60405180910390a150505050565b60008073ffffffffffffffffffffffffffffffffffffffff16612c8a836126d1565b73ffffffffffffffffffffffffffffffffffffffff1614159050919050565b6001811115612dc957600073ffffffffffffffffffffffffffffffffffffffff168473ffffffffffffffffffffffffffffffffffffffff1614612d3d5780600360008673ffffffffffffffffffffffffffffffffffffffff1673ffffffffffffffffffffffffffffffffffffffff1681526020019081526020016000206000828254612d359190614e53565b925050819055505b600073ffffffffffffffffffffffffffffffffffffffff168373ffffffffffffffffffffffffffffffffffffffff1614612dc85780600360008573ffffffffffffffffffffffffffffffffffffffff1673ffffffffffffffffffffffffffffffffffffffff1681526020019081526020016000206000828254612dc091906144f8565b925050819055505b5b50505050565b50505050565b6000612de082611028565b9050612df0816000846001612ca9565b612df982611028565b90506004600083815260200190815260200160002060006101000a81549073ffffffffffffffffffffffffffffffffffffffff02191690556001600360008373ffffffffffffffffffffffffffffffffffffffff1673ffffffffffffffffffffffffffffffffffffffff168152602001908152602001600020600082825403925050819055506002600083815260200190815260200160002060006101000a81549073ffffffffffffffffffffffffffffffffffffffff021916905581600073ffffffffffffffffffffffffffffffffffffffff168273ffffffffffffffffffffffffffffffffffffffff167fddf252ad1be2c89b69c2b068fc378daa952ba7f163c4a11628f55a4df523b3ef60405160405180910390a4612f1f816000846001612dcf565b5050565b6000612f448473ffffffffffffffffffffffffffffffffffffffff166131ed565b156130ad578373ffffffffffffffffffffffffffffffffffffffff1663150b7a02612f6d612273565b8786866040518563ffffffff1660e01b8152600401612f8f9493929190614edc565b602060405180830381600087803b158015612fa957600080fd5b505af1925050508015612fda57506040513d601f19601f82011682018060405250810190612fd79190614f3d565b60015b61305d573d806000811461300a576040519150601f19603f3d011682016040523d82523d6000602084013e61300f565b606091505b50600081511415613055576040517f08c379a000000000000000000000000000000000000000000000000000000000815260040161304c90614c00565b60405180910390fd5b805181602001fd5b63150b7a0260e01b7bffffffffffffffffffffffffffffffffffffffffffffffffffffffff1916817bffffffffffffffffffffffffffffffffffffffffffffffffffffffff1916149150506130b2565b600190505b949350505050565b6060600060016130c984613210565b01905060008167ffffffffffffffff8111156130e8576130e7613da5565b5b6040519080825280601f01601f19166020018201604052801561311a5781602001600182028036833780820191505090505b509050600082602001820190505b600115613187578080600190039150507f3031323334353637383961626364656600000000000000000000000000000000600a86061a8153600a858161317157613170614f6a565b5b049450600085141561318257613187565b613128565b819350505050919050565b61319c8383613363565b6131a96000848484612f23565b6131e8576040517f08c379a00000000000000000000000000000000000000000000000000000000081526004016131df90614c00565b60405180910390fd5b505050565b6000808273ffffffffffffffffffffffffffffffffffffffff163b119050919050565b600080600090507a184f03e93ff9f4daa797ed6e38ed64bf6a1f010000000000000000831061326e577a184f03e93ff9f4daa797ed6e38ed64bf6a1f010000000000000000838161326457613263614f6a565b5b0492506040810190505b6d04ee2d6d415b85acef810000000083106132ab576d04ee2d6d415b85acef810000000083816132a1576132a0614f6a565b5b0492506020810190505b662386f26fc1000083106132da57662386f26fc1000083816132d0576132cf614f6a565b5b0492506010810190505b6305f5e1008310613303576305f5e10083816132f9576132f8614f6a565b5b0492506008810190505b612710831061332857612710838161331e5761331d614f6a565b5b0492506004810190505b6064831061334b576064838161334157613340614f6a565b5b0492506002810190505b600a831061335a576001810190505b80915050919050565b600073ffffffffffffffffffffffffffffffffffffffff168273ffffffffffffffffffffffffffffffffffffffff1614156133d3576040517f08c379a00000000000000000000000000000000000000000000000000000000081526004016133ca90614fe5565b60405180910390fd5b6133dc81612c68565b1561341c576040517f08c379a000000000000000000000000000000000000000000000000000000000815260040161341390615051565b60405180910390fd5b61342a600083836001612ca9565b61343381612c68565b15613473576040517f08c379a000000000000000000000000000000000000000000000000000000000815260040161346a90615051565b60405180910390fd5b6001600360008473ffffffffffffffffffffffffffffffffffffffff1673ffffffffffffffffffffffffffffffffffffffff16815260200190815260200160002060008282540192505081905550816002600083815260200190815260200160002060006101000a81548173ffffffffffffffffffffffffffffffffffffffff021916908373ffffffffffffffffffffffffffffffffffffffff160217905550808273ffffffffffffffffffffffffffffffffffffffff16600073ffffffffffffffffffffffffffffffffffffffff167fddf252ad1be2c89b69c2b068fc378daa952ba7f163c4a11628f55a4df523b3ef60405160405180910390a461357d600083836001612dcf565b5050565b6040518060e00160405280600081526020016060815260200160608152602001600073ffffffffffffffffffffffffffffffffffffffff168152602001600081526020016000151581526020016000151581525090565b5080546135e49061411e565b6000825580601f106135f65750613615565b601f016020900490600052602060002090810190613614919061369e565b5b50565b8280546136249061411e565b90600052602060002090601f016020900481019282613646576000855561368d565b82601f1061365f57805160ff191683800117855561368d565b8280016001018555821561368d579182015b8281111561368c578251825591602001919060010190613671565b5b50905061369a919061369e565b5090565b5b808211156136b757600081600090555060010161369f565b5090565b6000604051905090565b600080fd5b600080fd5b60007fffffffff0000000000000000000000000000000000000000000000000000000082169050919050565b613704816136cf565b811461370f57600080fd5b50565b600081359050613721816136fb565b92915050565b60006020828403121561373d5761373c6136c5565b5b600061374b84828501613712565b91505092915050565b60008115159050919050565b61376981613754565b82525050565b60006020820190506137846000830184613760565b92915050565b600081519050919050565b600082825260208201905092915050565b60005b838110156137c45780820151818401526020810190506137a9565b838111156137d3576000848401525b50505050565b6000601f19601f8301169050919050565b60006137f58261378a565b6137ff8185613795565b935061380f8185602086016137a6565b613818816137d9565b840191505092915050565b6000602082019050818103600083015261383d81846137ea565b905092915050565b6000819050919050565b61385881613845565b811461386357600080fd5b50565b6000813590506138758161384f565b92915050565b600060208284031215613891576138906136c5565b5b600061389f84828501613866565b91505092915050565b600073ffffffffffffffffffffffffffffffffffffffff82169050919050565b60006138d3826138a8565b9050919050565b6138e3816138c8565b82525050565b60006020820190506138fe60008301846138da565b92915050565b61390d816138c8565b811461391857600080fd5b50565b60008135905061392a81613904565b92915050565b60008060408385031215613947576139466136c5565b5b60006139558582860161391b565b925050602061396685828601613866565b9150509250929050565b600080600060608486031215613989576139886136c5565b5b60006139978682870161391b565b93505060206139a88682870161391b565b92505060406139b986828701613866565b9150509250925092565b600080604083850312156139da576139d96136c5565b5b60006139e885828601613866565b92505060206139f985828601613866565b9150509250929050565b600081519050919050565b600082825260208201905092915050565b6000819050602082019050919050565b613a3881613845565b82525050565b600082825260208201905092915050565b6000613a5a8261378a565b613a648185613a3e565b9350613a748185602086016137a6565b613a7d816137d9565b840191505092915050565b6000613a93826138a8565b9050919050565b613aa381613a88565b82525050565b613ab281613754565b82525050565b600060e083016000830151613ad06000860182613a2f565b5060208301518482036020860152613ae88282613a4f565b91505060408301518482036040860152613b028282613a4f565b9150506060830151613b176060860182613a9a565b506080830151613b2a6080860182613a2f565b5060a0830151613b3d60a0860182613aa9565b5060c0830151613b5060c0860182613aa9565b508091505092915050565b6000613b678383613ab8565b905092915050565b6000602082019050919050565b6000613b8782613a03565b613b918185613a0e565b935083602082028501613ba385613a1f565b8060005b85811015613bdf5784840389528151613bc08582613b5b565b9450613bcb83613b6f565b925060208a01995050600181019050613ba7565b50829750879550505050505092915050565b60006020820190508181036000830152613c0b8184613b7c565b905092915050565b613c1c81613845565b82525050565b6000602082019050613c376000830184613c13565b92915050565b600060208284031215613c5357613c526136c5565b5b6000613c618482850161391b565b91505092915050565b600060e083016000830151613c826000860182613a2f565b5060208301518482036020860152613c9a8282613a4f565b91505060408301518482036040860152613cb48282613a4f565b9150506060830151613cc96060860182613a9a565b506080830151613cdc6080860182613a2f565b5060a0830151613cef60a0860182613aa9565b5060c0830151613d0260c0860182613aa9565b508091505092915050565b60006020820190508181036000830152613d278184613c6a565b905092915050565b613d3881613754565b8114613d4357600080fd5b50565b600081359050613d5581613d2f565b92915050565b60008060408385031215613d7257613d716136c5565b5b6000613d808582860161391b565b9250506020613d9185828601613d46565b9150509250929050565b600080fd5b600080fd5b7f4e487b7100000000000000000000000000000000000000000000000000000000600052604160045260246000fd5b613ddd826137d9565b810181811067ffffffffffffffff82111715613dfc57613dfb613da5565b5b80604052505050565b6000613e0f6136bb565b9050613e1b8282613dd4565b919050565b600067ffffffffffffffff821115613e3b57613e3a613da5565b5b613e44826137d9565b9050602081019050919050565b82818337600083830152505050565b6000613e73613e6e84613e20565b613e05565b905082815260208101848484011115613e8f57613e8e613da0565b5b613e9a848285613e51565b509392505050565b600082601f830112613eb757613eb6613d9b565b5b8135613ec7848260208601613e60565b91505092915050565b60008060008060808587031215613eea57613ee96136c5565b5b6000613ef88782880161391b565b9450506020613f098782880161391b565b9350506040613f1a87828801613866565b925050606085013567ffffffffffffffff811115613f3b57613f3a6136ca565b5b613f4787828801613ea2565b91505092959194509250565b60008060408385031215613f6a57613f696136c5565b5b6000613f788582860161391b565b9250506020613f898582860161391b565b9150509250929050565b600067ffffffffffffffff821115613fae57613fad613da5565b5b613fb7826137d9565b9050602081019050919050565b6000613fd7613fd284613f93565b613e05565b905082815260208101848484011115613ff357613ff2613da0565b5b613ffe848285613e51565b509392505050565b600082601f83011261401b5761401a613d9b565b5b813561402b848260208601613fc4565b91505092915050565b6000806000806080858703121561404e5761404d6136c5565b5b600085013567ffffffffffffffff81111561406c5761406b6136ca565b5b61407887828801614006565b945050602085013567ffffffffffffffff811115614099576140986136ca565b5b6140a587828801614006565b935050604085013567ffffffffffffffff8111156140c6576140c56136ca565b5b6140d287828801614006565b92505060606140e387828801613866565b91505092959194509250565b7f4e487b7100000000000000000000000000000000000000000000000000000000600052602260045260246000fd5b6000600282049050600182168061413657607f821691505b6020821081141561414a576141496140ef565b5b50919050565b7f4552433732313a20617070726f76616c20746f2063757272656e74206f776e6560008201527f7200000000000000000000000000000000000000000000000000000000000000602082015250565b60006141ac602183613795565b91506141b782614150565b604082019050919050565b600060208201905081810360008301526141db8161419f565b9050919050565b7f4552433732313a20617070726f76652063616c6c6572206973206e6f7420746f60008201527f6b656e206f776e6572206f7220617070726f76656420666f7220616c6c000000602082015250565b600061423e603d83613795565b9150614249826141e2565b604082019050919050565b6000602082019050818103600083015261426d81614231565b9050919050565b7f4552433732313a2063616c6c6572206973206e6f7420746f6b656e206f776e6560008201527f72206f7220617070726f76656400000000000000000000000000000000000000602082015250565b60006142d0602d83613795565b91506142db82614274565b604082019050919050565b600060208201905081810360008301526142ff816142c3565b9050919050565b7f53656e6420656e6f75676820657468657220746f2073656c6c206120736e656160008201527f6b6572732028302e303120657468657229000000000000000000000000000000602082015250565b6000614362603183613795565b915061436d82614306565b604082019050919050565b6000602082019050818103600083015261439181614355565b9050919050565b7f596f75277265206e6f742061206f776e6572206f66207468697320736e65616b60008201527f6572000000000000000000000000000000000000000000000000000000000000602082015250565b60006143f4602283613795565b91506143ff82614398565b604082019050919050565b60006020820190508181036000830152614423816143e7565b9050919050565b7f4e487b7100000000000000000000000000000000000000000000000000000000600052601160045260246000fd5b600061446482613845565b915061446f83613845565b9250817fffffffffffffffffffffffffffffffffffffffffffffffffffffffffffffffff04831182151516156144a8576144a761442a565b5b828202905092915050565b60006080820190506144c86000830187613c13565b6144d56020830186613c13565b6144e26040830185613760565b6144ef6060830184613760565b95945050505050565b600061450382613845565b915061450e83613845565b9250827fffffffffffffffffffffffffffffffffffffffffffffffffffffffffffffffff038211156145435761454261442a565b5b828201905092915050565b600061455982613845565b91507fffffffffffffffffffffffffffffffffffffffffffffffffffffffffffffffff82141561458c5761458b61442a565b5b600182019050919050565b7f4e487b7100000000000000000000000000000000000000000000000000000000600052603260045260246000fd5b7f4552433732313a20696e76616c696420746f6b656e2049440000000000000000600082015250565b60006145fc601883613795565b9150614607826145c6565b602082019050919050565b6000602082019050818103600083015261462b816145ef565b9050919050565b7f4552433732313a2061646472657373207a65726f206973206e6f74206120766160008201527f6c6964206f776e65720000000000000000000000000000000000000000000000602082015250565b600061468e602983613795565b915061469982614632565b604082019050919050565b600060208201905081810360008301526146bd81614681565b9050919050565b7f596f75277265206e6f74207468652061646d696e000000000000000000000000600082015250565b60006146fa601483613795565b9150614705826146c4565b602082019050919050565b60006020820190508181036000830152614729816146ed565b9050919050565b7f4f6e6c79206f776e65722063616e207769746864726177000000000000000000600082015250565b6000614766601783613795565b915061477182614730565b602082019050919050565b6000602082019050818103600083015261479581614759565b9050919050565b7f536e65616b6572206973206e6f7420696e2073656c6c00000000000000000000600082015250565b60006147d2601683613795565b91506147dd8261479c565b602082019050919050565b60006020820190508181036000830152614801816147c5565b9050919050565b7f4e6f7420656e6f7567682066756e647300000000000000000000000000000000600082015250565b600061483e601083613795565b915061484982614808565b602082019050919050565b6000602082019050818103600083015261486d81614831565b9050919050565b600060a08201905061488960008301886138da565b6148966020830187613c13565b6148a36040830186613c13565b6148b06060830185613760565b6148bd6080830184613760565b9695505050505050565b7f4f6e6c79206f776e65722063616e20757064617465206c697374696e6720707260008201527f6963650000000000000000000000000000000000000000000000000000000000602082015250565b6000614923602383613795565b915061492e826148c7565b604082019050919050565b6000602082019050818103600083015261495281614916565b9050919050565b600081905092915050565b600061496f8261378a565b6149798185614959565b93506149898185602086016137a6565b80840191505092915050565b60006149a18285614964565b91506149ad8284614964565b91508190509392505050565b60006080820190506149ce60008301876138da565b6149db6020830186613c13565b6149e86040830185613760565b6149f56060830184613760565b95945050505050565b7f4552433732313a207472616e736665722066726f6d20696e636f72726563742060008201527f6f776e6572000000000000000000000000000000000000000000000000000000602082015250565b6000614a5a602583613795565b9150614a65826149fe565b604082019050919050565b60006020820190508181036000830152614a8981614a4d565b9050919050565b7f4552433732313a207472616e7366657220746f20746865207a65726f2061646460008201527f7265737300000000000000000000000000000000000000000000000000000000602082015250565b6000614aec602483613795565b9150614af782614a90565b604082019050919050565b60006020820190508181036000830152614b1b81614adf565b9050919050565b7f4552433732313a20617070726f766520746f2063616c6c657200000000000000600082015250565b6000614b58601983613795565b9150614b6382614b22565b602082019050919050565b60006020820190508181036000830152614b8781614b4b565b9050919050565b7f4552433732313a207472616e7366657220746f206e6f6e20455243373231526560008201527f63656976657220696d706c656d656e7465720000000000000000000000000000602082015250565b6000614bea603283613795565b9150614bf582614b8e565b604082019050919050565b60006020820190508181036000830152614c1981614bdd565b9050919050565b7f45524337323155524953746f726167653a2055524920736574206f66206e6f6e60008201527f6578697374656e7420746f6b656e000000000000000000000000000000000000602082015250565b6000614c7c602e83613795565b9150614c8782614c20565b604082019050919050565b60006020820190508181036000830152614cab81614c6f565b9050919050565b7f486f706566756c6c792073656e64696e672074686520636f727265637420707260008201527f6963650000000000000000000000000000000000000000000000000000000000602082015250565b6000614d0e602383613795565b9150614d1982614cb2565b604082019050919050565b60006020820190508181036000830152614d3d81614d01565b9050919050565b7f4d616b652073757265207468652070726963652069736e2774206e656761746960008201527f7665000000000000000000000000000000000000000000000000000000000000602082015250565b6000614da0602283613795565b9150614dab82614d44565b604082019050919050565b60006020820190508181036000830152614dcf81614d93565b9050919050565b600060e082019050614deb600083018a613c13565b8181036020830152614dfd81896137ea565b90508181036040830152614e1181886137ea565b9050614e2060608301876138da565b614e2d6080830186613c13565b614e3a60a0830185613760565b614e4760c0830184613760565b98975050505050505050565b6000614e5e82613845565b9150614e6983613845565b925082821015614e7c57614e7b61442a565b5b828203905092915050565b600081519050919050565b600082825260208201905092915050565b6000614eae82614e87565b614eb88185614e92565b9350614ec88185602086016137a6565b614ed1816137d9565b840191505092915050565b6000608082019050614ef160008301876138da565b614efe60208301866138da565b614f0b6040830185613c13565b8181036060830152614f1d8184614ea3565b905095945050505050565b600081519050614f37816136fb565b92915050565b600060208284031215614f5357614f526136c5565b5b6000614f6184828501614f28565b91505092915050565b7f4e487b7100000000000000000000000000000000000000000000000000000000600052601260045260246000fd5b7f4552433732313a206d696e7420746f20746865207a65726f2061646472657373600082015250565b6000614fcf602083613795565b9150614fda82614f99565b602082019050919050565b60006020820190508181036000830152614ffe81614fc2565b9050919050565b7f4552433732313a20746f6b656e20616c7265616479206d696e74656400000000600082015250565b600061503b601c83613795565b915061504682615005565b602082019050919050565b6000602082019050818103600083015261506a8161502e565b905091905056fea2646970667358221220a47c33e80ab3914b55c7582016b2e214ce312358343305fb568ea8018fd63abc64736f6c63430008090033",
  "devdoc": {
    "kind": "dev",
    "methods": {
      "approve(address,uint256)": {
        "details": "See {IERC721-approve}."
      },
      "balanceOf(address)": {
        "details": "See {IERC721-balanceOf}."
      },
      "getApproved(uint256)": {
        "details": "See {IERC721-getApproved}."
      },
      "isApprovedForAll(address,address)": {
        "details": "See {IERC721-isApprovedForAll}."
      },
      "name()": {
        "details": "See {IERC721Metadata-name}."
      },
      "ownerOf(uint256)": {
        "details": "See {IERC721-ownerOf}."
      },
      "safeTransferFrom(address,address,uint256)": {
        "details": "See {IERC721-safeTransferFrom}."
      },
      "safeTransferFrom(address,address,uint256,bytes)": {
        "details": "See {IERC721-safeTransferFrom}."
      },
      "setApprovalForAll(address,bool)": {
        "details": "See {IERC721-setApprovalForAll}."
      },
      "supportsInterface(bytes4)": {
        "details": "See {IERC165-supportsInterface}."
      },
      "symbol()": {
        "details": "See {IERC721Metadata-symbol}."
      },
      "tokenURI(uint256)": {
        "details": "See {IERC721Metadata-tokenURI}."
      },
      "transferFrom(address,address,uint256)": {
        "details": "See {IERC721-transferFrom}."
      }
    },
    "version": 1
  },
  "userdoc": {
    "kind": "user",
    "methods": {},
    "version": 1
  },
  "storageLayout": {
    "storage": [
      {
        "astId": 25,
        "contract": "contracts/Snyker.sol:Snyker",
        "label": "_name",
        "offset": 0,
        "slot": "0",
        "type": "t_string_storage"
      },
      {
        "astId": 27,
        "contract": "contracts/Snyker.sol:Snyker",
        "label": "_symbol",
        "offset": 0,
        "slot": "1",
        "type": "t_string_storage"
      },
      {
        "astId": 31,
        "contract": "contracts/Snyker.sol:Snyker",
        "label": "_owners",
        "offset": 0,
        "slot": "2",
        "type": "t_mapping(t_uint256,t_address)"
      },
      {
        "astId": 35,
        "contract": "contracts/Snyker.sol:Snyker",
        "label": "_balances",
        "offset": 0,
        "slot": "3",
        "type": "t_mapping(t_address,t_uint256)"
      },
      {
        "astId": 39,
        "contract": "contracts/Snyker.sol:Snyker",
        "label": "_tokenApprovals",
        "offset": 0,
        "slot": "4",
        "type": "t_mapping(t_uint256,t_address)"
      },
      {
        "astId": 45,
        "contract": "contracts/Snyker.sol:Snyker",
        "label": "_operatorApprovals",
        "offset": 0,
        "slot": "5",
        "type": "t_mapping(t_address,t_mapping(t_address,t_bool))"
      },
      {
        "astId": 1091,
        "contract": "contracts/Snyker.sol:Snyker",
        "label": "_tokenURIs",
        "offset": 0,
        "slot": "6",
        "type": "t_mapping(t_uint256,t_string_storage)"
      },
      {
        "astId": 2747,
        "contract": "contracts/Snyker.sol:Snyker",
        "label": "_tokenIds",
        "offset": 0,
        "slot": "7",
        "type": "t_struct(Counter)1588_storage"
      },
      {
        "astId": 2750,
        "contract": "contracts/Snyker.sol:Snyker",
        "label": "_itemsSold",
        "offset": 0,
        "slot": "8",
        "type": "t_struct(Counter)1588_storage"
      },
      {
        "astId": 2752,
        "contract": "contracts/Snyker.sol:Snyker",
        "label": "admin",
        "offset": 0,
        "slot": "9",
        "type": "t_address_payable"
      },
      {
        "astId": 2755,
        "contract": "contracts/Snyker.sol:Snyker",
        "label": "priceMarket",
        "offset": 0,
        "slot": "10",
        "type": "t_uint256"
      },
      {
        "astId": 2827,
        "contract": "contracts/Snyker.sol:Snyker",
        "label": "idOfSneaker",
        "offset": 0,
        "slot": "11",
        "type": "t_mapping(t_uint256,t_struct(Sneaker)2770_storage)"
      }
    ],
    "types": {
      "t_address": {
        "encoding": "inplace",
        "label": "address",
        "numberOfBytes": "20"
      },
      "t_address_payable": {
        "encoding": "inplace",
        "label": "address payable",
        "numberOfBytes": "20"
      },
      "t_bool": {
        "encoding": "inplace",
        "label": "bool",
        "numberOfBytes": "1"
      },
      "t_mapping(t_address,t_bool)": {
        "encoding": "mapping",
        "key": "t_address",
        "label": "mapping(address => bool)",
        "numberOfBytes": "32",
        "value": "t_bool"
      },
      "t_mapping(t_address,t_mapping(t_address,t_bool))": {
        "encoding": "mapping",
        "key": "t_address",
        "label": "mapping(address => mapping(address => bool))",
        "numberOfBytes": "32",
        "value": "t_mapping(t_address,t_bool)"
      },
      "t_mapping(t_address,t_uint256)": {
        "encoding": "mapping",
        "key": "t_address",
        "label": "mapping(address => uint256)",
        "numberOfBytes": "32",
        "value": "t_uint256"
      },
      "t_mapping(t_uint256,t_address)": {
        "encoding": "mapping",
        "key": "t_uint256",
        "label": "mapping(uint256 => address)",
        "numberOfBytes": "32",
        "value": "t_address"
      },
      "t_mapping(t_uint256,t_string_storage)": {
        "encoding": "mapping",
        "key": "t_uint256",
        "label": "mapping(uint256 => string)",
        "numberOfBytes": "32",
        "value": "t_string_storage"
      },
      "t_mapping(t_uint256,t_struct(Sneaker)2770_storage)": {
        "encoding": "mapping",
        "key": "t_uint256",
        "label": "mapping(uint256 => struct Snyker.Sneaker)",
        "numberOfBytes": "32",
        "value": "t_struct(Sneaker)2770_storage"
      },
      "t_string_storage": {
        "encoding": "bytes",
        "label": "string",
        "numberOfBytes": "32"
      },
      "t_struct(Counter)1588_storage": {
        "encoding": "inplace",
        "label": "struct Counters.Counter",
        "members": [
          {
            "astId": 1587,
            "contract": "contracts/Snyker.sol:Snyker",
            "label": "_value",
            "offset": 0,
            "slot": "0",
            "type": "t_uint256"
          }
        ],
        "numberOfBytes": "32"
      },
      "t_struct(Sneaker)2770_storage": {
        "encoding": "inplace",
        "label": "struct Snyker.Sneaker",
        "members": [
          {
            "astId": 2757,
            "contract": "contracts/Snyker.sol:Snyker",
            "label": "tokenId",
            "offset": 0,
            "slot": "0",
            "type": "t_uint256"
          },
          {
            "astId": 2759,
            "contract": "contracts/Snyker.sol:Snyker",
            "label": "name",
            "offset": 0,
            "slot": "1",
            "type": "t_string_storage"
          },
          {
            "astId": 2761,
            "contract": "contracts/Snyker.sol:Snyker",
            "label": "description",
            "offset": 0,
            "slot": "2",
            "type": "t_string_storage"
          },
          {
            "astId": 2763,
            "contract": "contracts/Snyker.sol:Snyker",
            "label": "owner",
            "offset": 0,
            "slot": "3",
            "type": "t_address_payable"
          },
          {
            "astId": 2765,
            "contract": "contracts/Snyker.sol:Snyker",
            "label": "price",
            "offset": 0,
            "slot": "4",
            "type": "t_uint256"
          },
          {
            "astId": 2767,
            "contract": "contracts/Snyker.sol:Snyker",
            "label": "firstSale",
            "offset": 0,
            "slot": "5",
            "type": "t_bool"
          },
          {
            "astId": 2769,
            "contract": "contracts/Snyker.sol:Snyker",
            "label": "isInSale",
            "offset": 1,
            "slot": "5",
            "type": "t_bool"
          }
        ],
        "numberOfBytes": "192"
      },
      "t_uint256": {
        "encoding": "inplace",
        "label": "uint256",
        "numberOfBytes": "32"
      }
    }
  }
}