{
  "_format": "hh-sol-artifact-1",
  "contractName": "Snyker",
  "sourceName": "contracts/Snyker.sol",
  "abi": [
    {
      "inputs": [],
      "stateMutability": "nonpayable",
      "type": "constructor"
    },
    {
      "anonymous": false,
      "inputs": [
        {
          "indexed": true,
          "internalType": "address",
          "name": "owner",
          "type": "address"
        },
        {
          "indexed": true,
          "internalType": "address",
          "name": "approved",
          "type": "address"
        },
        {
          "indexed": true,
          "internalType": "uint256",
          "name": "tokenId",
          "type": "uint256"
        }
      ],
      "name": "Approval",
      "type": "event"
    },
    {
      "anonymous": false,
      "inputs": [
        {
          "indexed": true,
          "internalType": "address",
          "name": "owner",
          "type": "address"
        },
        {
          "indexed": true,
          "internalType": "address",
          "name": "operator",
          "type": "address"
        },
        {
          "indexed": false,
          "internalType": "bool",
          "name": "approved",
          "type": "bool"
        }
      ],
      "name": "ApprovalForAll",
      "type": "event"
    },
    {
      "anonymous": false,
      "inputs": [
        {
          "indexed": true,
          "internalType": "uint256",
          "name": "tokenId",
          "type": "uint256"
        },
        {
          "indexed": false,
          "internalType": "address",
          "name": "owner",
          "type": "address"
        },
        {
          "indexed": false,
          "internalType": "address",
          "name": "seller",
          "type": "address"
        },
        {
          "indexed": false,
          "internalType": "uint256",
          "name": "price",
          "type": "uint256"
        },
        {
          "indexed": false,
          "internalType": "bool",
          "name": "currentlyListed",
          "type": "bool"
        }
      ],
      "name": "TokenListedSuccess",
      "type": "event"
    },
    {
      "anonymous": false,
      "inputs": [
        {
          "indexed": true,
          "internalType": "address",
          "name": "from",
          "type": "address"
        },
        {
          "indexed": true,
          "internalType": "address",
          "name": "to",
          "type": "address"
        },
        {
          "indexed": true,
          "internalType": "uint256",
          "name": "tokenId",
          "type": "uint256"
        }
      ],
      "name": "Transfer",
      "type": "event"
    },
    {
      "inputs": [
        {
          "internalType": "address",
          "name": "to",
          "type": "address"
        },
        {
          "internalType": "uint256",
          "name": "tokenId",
          "type": "uint256"
        }
      ],
      "name": "approve",
      "outputs": [],
      "stateMutability": "nonpayable",
      "type": "function"
    },
    {
      "inputs": [
        {
          "internalType": "address",
          "name": "owner",
          "type": "address"
        }
      ],
      "name": "balanceOf",
      "outputs": [
        {
          "internalType": "uint256",
          "name": "",
          "type": "uint256"
        }
      ],
      "stateMutability": "view",
      "type": "function"
    },
    {
      "inputs": [
        {
          "internalType": "string",
          "name": "tokenURI",
          "type": "string"
        },
        {
          "internalType": "string",
          "name": "name",
          "type": "string"
        },
        {
          "internalType": "string",
          "name": "description",
          "type": "string"
        },
        {
          "internalType": "uint256",
          "name": "price",
          "type": "uint256"
        }
      ],
      "name": "createToken",
      "outputs": [
        {
          "internalType": "uint256",
          "name": "",
          "type": "uint256"
        }
      ],
      "stateMutability": "payable",
      "type": "function"
    },
    {
      "inputs": [
        {
          "internalType": "uint256",
          "name": "tokenId",
          "type": "uint256"
        }
      ],
      "name": "executeRelease",
      "outputs": [],
      "stateMutability": "payable",
      "type": "function"
    },
    {
      "inputs": [
        {
          "internalType": "uint256",
          "name": "tokenId",
          "type": "uint256"
        }
      ],
      "name": "executeSale",
      "outputs": [],
      "stateMutability": "payable",
      "type": "function"
    },
    {
      "inputs": [],
      "name": "getAllNFTs",
      "outputs": [
        {
          "components": [
            {
              "internalType": "uint256",
              "name": "tokenId",
              "type": "uint256"
            },
            {
              "internalType": "string",
              "name": "name",
              "type": "string"
            },
            {
              "internalType": "string",
              "name": "description",
              "type": "string"
            },
            {
              "internalType": "address payable",
              "name": "owner",
              "type": "address"
            },
            {
              "internalType": "uint256",
              "name": "price",
              "type": "uint256"
            },
            {
              "internalType": "bool",
              "name": "firstSale",
              "type": "bool"
            },
            {
              "internalType": "bool",
              "name": "isInSale",
              "type": "bool"
            }
          ],
          "internalType": "struct Snyker.Sneaker[]",
          "name": "",
          "type": "tuple[]"
        }
      ],
      "stateMutability": "view",
      "type": "function"
    },
    {
      "inputs": [
        {
          "internalType": "uint256",
          "name": "tokenId",
          "type": "uint256"
        }
      ],
      "name": "getApproved",
      "outputs": [
        {
          "internalType": "address",
          "name": "",
          "type": "address"
        }
      ],
      "stateMutability": "view",
      "type": "function"
    },
    {
      "inputs": [],
      "name": "getCurrentToken",
      "outputs": [
        {
          "internalType": "uint256",
          "name": "",
          "type": "uint256"
        }
      ],
      "stateMutability": "view",
      "type": "function"
    },
    {
      "inputs": [],
      "name": "getLatestIdToListedToken",
      "outputs": [
        {
          "components": [
            {
              "internalType": "uint256",
              "name": "tokenId",
              "type": "uint256"
            },
            {
              "internalType": "string",
              "name": "name",
              "type": "string"
            },
            {
              "internalType": "string",
              "name": "description",
              "type": "string"
            },
            {
              "internalType": "address payable",
              "name": "owner",
              "type": "address"
            },
            {
              "internalType": "uint256",
              "name": "price",
              "type": "uint256"
            },
            {
              "internalType": "bool",
              "name": "firstSale",
              "type": "bool"
            },
            {
              "internalType": "bool",
              "name": "isInSale",
              "type": "bool"
            }
          ],
          "internalType": "struct Snyker.Sneaker",
          "name": "",
          "type": "tuple"
        }
      ],
      "stateMutability": "view",
      "type": "function"
    },
    {
      "inputs": [],
      "name": "getListPrice",
      "outputs": [
        {
          "internalType": "uint256",
          "name": "",
          "type": "uint256"
        }
      ],
      "stateMutability": "view",
      "type": "function"
    },
    {
      "inputs": [
        {
          "internalType": "uint256",
          "name": "tokenId",
          "type": "uint256"
        }
      ],
      "name": "getListedTokenForId",
      "outputs": [
        {
          "components": [
            {
              "internalType": "uint256",
              "name": "tokenId",
              "type": "uint256"
            },
            {
              "internalType": "string",
              "name": "name",
              "type": "string"
            },
            {
              "internalType": "string",
              "name": "description",
              "type": "string"
            },
            {
              "internalType": "address payable",
              "name": "owner",
              "type": "address"
            },
            {
              "internalType": "uint256",
              "name": "price",
              "type": "uint256"
            },
            {
              "internalType": "bool",
              "name": "firstSale",
              "type": "bool"
            },
            {
              "internalType": "bool",
              "name": "isInSale",
              "type": "bool"
            }
          ],
          "internalType": "struct Snyker.Sneaker",
          "name": "",
          "type": "tuple"
        }
      ],
      "stateMutability": "view",
      "type": "function"
    },
    {
      "inputs": [],
      "name": "getMyNFTs",
      "outputs": [
        {
          "components": [
            {
              "internalType": "uint256",
              "name": "tokenId",
              "type": "uint256"
            },
            {
              "internalType": "string",
              "name": "name",
              "type": "string"
            },
            {
              "internalType": "string",
              "name": "description",
              "type": "string"
            },
            {
              "internalType": "address payable",
              "name": "owner",
              "type": "address"
            },
            {
              "internalType": "uint256",
              "name": "price",
              "type": "uint256"
            },
            {
              "internalType": "bool",
              "name": "firstSale",
              "type": "bool"
            },
            {
              "internalType": "bool",
              "name": "isInSale",
              "type": "bool"
            }
          ],
          "internalType": "struct Snyker.Sneaker[]",
          "name": "",
          "type": "tuple[]"
        }
      ],
      "stateMutability": "view",
      "type": "function"
    },
    {
      "inputs": [
        {
          "internalType": "address",
          "name": "owner",
          "type": "address"
        },
        {
          "internalType": "address",
          "name": "operator",
          "type": "address"
        }
      ],
      "name": "isApprovedForAll",
      "outputs": [
        {
          "internalType": "bool",
          "name": "",
          "type": "bool"
        }
      ],
      "stateMutability": "view",
      "type": "function"
    },
    {
      "inputs": [],
      "name": "name",
      "outputs": [
        {
          "internalType": "string",
          "name": "",
          "type": "string"
        }
      ],
      "stateMutability": "view",
      "type": "function"
    },
    {
      "inputs": [
        {
          "internalType": "uint256",
          "name": "tokenId",
          "type": "uint256"
        }
      ],
      "name": "ownerOf",
      "outputs": [
        {
          "internalType": "address",
          "name": "",
          "type": "address"
        }
      ],
      "stateMutability": "view",
      "type": "function"
    },
    {
      "inputs": [
        {
          "internalType": "address",
          "name": "from",
          "type": "address"
        },
        {
          "internalType": "address",
          "name": "to",
          "type": "address"
        },
        {
          "internalType": "uint256",
          "name": "tokenId",
          "type": "uint256"
        }
      ],
      "name": "safeTransferFrom",
      "outputs": [],
      "stateMutability": "nonpayable",
      "type": "function"
    },
    {
      "inputs": [
        {
          "internalType": "address",
          "name": "from",
          "type": "address"
        },
        {
          "internalType": "address",
          "name": "to",
          "type": "address"
        },
        {
          "internalType": "uint256",
          "name": "tokenId",
          "type": "uint256"
        },
        {
          "internalType": "bytes",
          "name": "data",
          "type": "bytes"
        }
      ],
      "name": "safeTransferFrom",
      "outputs": [],
      "stateMutability": "nonpayable",
      "type": "function"
    },
    {
      "inputs": [
        {
          "internalType": "uint256",
          "name": "tokenId",
          "type": "uint256"
        },
        {
          "internalType": "uint256",
          "name": "price",
          "type": "uint256"
        }
      ],
      "name": "sellSneaker",
      "outputs": [
        {
          "internalType": "string",
          "name": "",
          "type": "string"
        }
      ],
      "stateMutability": "payable",
      "type": "function"
    },
    {
      "inputs": [
        {
          "internalType": "address",
          "name": "operator",
          "type": "address"
        },
        {
          "internalType": "bool",
          "name": "approved",
          "type": "bool"
        }
      ],
      "name": "setApprovalForAll",
      "outputs": [],
      "stateMutability": "nonpayable",
      "type": "function"
    },
    {
      "inputs": [
        {
          "internalType": "bytes4",
          "name": "interfaceId",
          "type": "bytes4"
        }
      ],
      "name": "supportsInterface",
      "outputs": [
        {
          "internalType": "bool",
          "name": "",
          "type": "bool"
        }
      ],
      "stateMutability": "view",
      "type": "function"
    },
    {
      "inputs": [],
      "name": "symbol",
      "outputs": [
        {
          "internalType": "string",
          "name": "",
          "type": "string"
        }
      ],
      "stateMutability": "view",
      "type": "function"
    },
    {
      "inputs": [
        {
          "internalType": "uint256",
          "name": "tokenId",
          "type": "uint256"
        }
      ],
      "name": "tokenURI",
      "outputs": [
        {
          "internalType": "string",
          "name": "",
          "type": "string"
        }
      ],
      "stateMutability": "view",
      "type": "function"
    },
    {
      "inputs": [
        {
          "internalType": "address",
          "name": "from",
          "type": "address"
        },
        {
          "internalType": "address",
          "name": "to",
          "type": "address"
        },
        {
          "internalType": "uint256",
          "name": "tokenId",
          "type": "uint256"
        }
      ],
      "name": "transferFrom",
      "outputs": [],
      "stateMutability": "nonpayable",
      "type": "function"
    },
    {
      "inputs": [
        {
          "internalType": "uint256",
          "name": "_priceMarket",
          "type": "uint256"
        }
      ],
      "name": "updateListPrice",
      "outputs": [],
      "stateMutability": "payable",
      "type": "function"
    },
    {
      "inputs": [],
      "name": "withdrawAll",
      "outputs": [],
      "stateMutability": "nonpayable",
      "type": "function"
    }
  ],
  "bytecode": "0x6080604052662386f26fc10000600a553480156200001c57600080fd5b506040518060400160405280600681526020017f536e796b657200000000000000000000000000000000000000000000000000008152506040518060400160405280600381526020017f53544b00000000000000000000000000000000000000000000000000000000008152508160009080519060200190620000a192919062000104565b508060019080519060200190620000ba92919062000104565b50505033600960006101000a81548173ffffffffffffffffffffffffffffffffffffffff021916908373ffffffffffffffffffffffffffffffffffffffff16021790555062000219565b8280546200011290620001e3565b90600052602060002090601f01602090048101928262000136576000855562000182565b82601f106200015157805160ff191683800117855562000182565b8280016001018555821562000182579182015b828111156200018157825182559160200191906001019062000164565b5b50905062000191919062000195565b5090565b5b80821115620001b057600081600090555060010162000196565b5090565b7f4e487b7100000000000000000000000000000000000000000000000000000000600052602260045260246000fd5b60006002820490506001821680620001fc57607f821691505b60208210811415620002135762000212620001b4565b5b50919050565b614b6c80620002296000396000f3fe6080604052600436106101665760003560e01c80638e264590116100d1578063c87b56dd1161008a578063e2825e0811610064578063e2825e0814610527578063e985e9c514610543578063ef2d174614610580578063efbe8fd1146105ab57610166565b8063c87b56dd14610494578063d1a88ae5146104d1578063e0391b09146104fc57610166565b80638e264590146103a257806395d89b41146103df5780639b1225c41461040a578063a22cb46514610426578063b88d4fde1461044f578063c322579c1461047857610166565b806342842e0e1161012357806342842e0e14610292578063629cb2e4146102bb5780636352211e146102e657806368f1945f1461032357806370a082311461034e578063853828b61461038b57610166565b806301ffc9a71461016b57806306fdde03146101a8578063081812fc146101d3578063095ea7b31461021057806323b872dd146102395780632fab29b314610262575b600080fd5b34801561017757600080fd5b50610192600480360381019061018d919061336d565b6105db565b60405161019f91906133b5565b60405180910390f35b3480156101b457600080fd5b506101bd6106bd565b6040516101ca9190613469565b60405180910390f35b3480156101df57600080fd5b506101fa60048036038101906101f591906134c1565b61074f565b604051610207919061352f565b60405180910390f35b34801561021c57600080fd5b5061023760048036038101906102329190613576565b610795565b005b34801561024557600080fd5b50610260600480360381019061025b91906135b6565b6108ad565b005b61027c60048036038101906102779190613609565b61090d565b6040516102899190613469565b60405180910390f35b34801561029e57600080fd5b506102b960048036038101906102b491906135b6565b610b2d565b005b3480156102c757600080fd5b506102d0610b4d565b6040516102dd9190613837565b60405180910390f35b3480156102f257600080fd5b5061030d600480360381019061030891906134c1565b610fa5565b60405161031a919061352f565b60405180910390f35b34801561032f57600080fd5b5061033861102c565b6040516103459190613868565b60405180910390f35b34801561035a57600080fd5b5061037560048036038101906103709190613883565b611036565b6040516103829190613868565b60405180910390f35b34801561039757600080fd5b506103a06110ee565b005b3480156103ae57600080fd5b506103c960048036038101906103c491906134c1565b6111e9565b6040516103d69190613953565b60405180910390f35b3480156103eb57600080fd5b506103f46113da565b6040516104019190613469565b60405180910390f35b610424600480360381019061041f91906134c1565b61146c565b005b34801561043257600080fd5b5061044d600480360381019061044891906139a1565b611643565b005b34801561045b57600080fd5b5061047660048036038101906104719190613b16565b611659565b005b610492600480360381019061048d91906134c1565b6116bb565b005b3480156104a057600080fd5b506104bb60048036038101906104b691906134c1565b611755565b6040516104c89190613469565b60405180910390f35b3480156104dd57600080fd5b506104e6611868565b6040516104f39190613953565b60405180910390f35b34801561050857600080fd5b50610511611a66565b60405161051e9190613837565b60405180910390f35b610541600480360381019061053c91906134c1565b611d5e565b005b34801561054f57600080fd5b5061056a60048036038101906105659190613b99565b611eff565b60405161057791906133b5565b60405180910390f35b34801561058c57600080fd5b50610595611f93565b6040516105a29190613868565b60405180910390f35b6105c560048036038101906105c09190613c7a565b611fa4565b6040516105d29190613868565b60405180910390f35b60007f80ac58cd000000000000000000000000000000000000000000000000000000007bffffffffffffffffffffffffffffffffffffffffffffffffffffffff1916827bffffffffffffffffffffffffffffffffffffffffffffffffffffffff191614806106a657507f5b5e139f000000000000000000000000000000000000000000000000000000007bffffffffffffffffffffffffffffffffffffffffffffffffffffffff1916827bffffffffffffffffffffffffffffffffffffffffffffffffffffffff1916145b806106b657506106b582611fea565b5b9050919050565b6060600080546106cc90613d64565b80601f01602080910402602001604051908101604052809291908181526020018280546106f890613d64565b80156107455780601f1061071a57610100808354040283529160200191610745565b820191906000526020600020905b81548152906001019060200180831161072857829003601f168201915b5050505050905090565b600061075a82612054565b6004600083815260200190815260200160002060009054906101000a900473ffffffffffffffffffffffffffffffffffffffff169050919050565b60006107a082610fa5565b90508073ffffffffffffffffffffffffffffffffffffffff168373ffffffffffffffffffffffffffffffffffffffff161415610811576040517f08c379a000000000000000000000000000000000000000000000000000000000815260040161080890613e08565b60405180910390fd5b8073ffffffffffffffffffffffffffffffffffffffff1661083061209f565b73ffffffffffffffffffffffffffffffffffffffff16148061085f575061085e8161085961209f565b611eff565b5b61089e576040517f08c379a000000000000000000000000000000000000000000000000000000000815260040161089590613e9a565b60405180910390fd5b6108a883836120a7565b505050565b6108be6108b861209f565b82612160565b6108fd576040517f08c379a00000000000000000000000000000000000000000000000000000000081526004016108f490613f2c565b60405180910390fd5b6109088383836121f5565b505050565b6060600a54341015610954576040517f08c379a000000000000000000000000000000000000000000000000000000000815260040161094b90613fbe565b60405180910390fd5b600b600084815260200190815260200160002060030160009054906101000a900473ffffffffffffffffffffffffffffffffffffffff1673ffffffffffffffffffffffffffffffffffffffff163373ffffffffffffffffffffffffffffffffffffffff16146109f8576040517f08c379a00000000000000000000000000000000000000000000000000000000081526004016109ef90614050565b60405180910390fd5b6001600b600085815260200190815260200160002060050160016101000a81548160ff0219169083151502179055506000600b600085815260200190815260200160002060050160006101000a81548160ff021916908315150217905550670de0b6b3a764000082610a6a919061409f565b600b600085815260200190815260200160002060040181905550600960009054906101000a900473ffffffffffffffffffffffffffffffffffffffff1673ffffffffffffffffffffffffffffffffffffffff166108fc600a549081150290604051600060405180830381858888f19350505050158015610aee573d6000803e3d6000fd5b506040518060400160405280600f81526020017f536e65616b657220696e2073656c6c0000000000000000000000000000000000815250905092915050565b610b4883838360405180602001604052806000815250611659565b505050565b60606000610b5b60076124ef565b9050600080600080600090505b84811015610c48573373ffffffffffffffffffffffffffffffffffffffff16600b6000600184610b9891906140f9565b815260200190815260200160002060030160009054906101000a900473ffffffffffffffffffffffffffffffffffffffff1673ffffffffffffffffffffffffffffffffffffffff16148015610c20575060001515600b6000600184610bfd91906140f9565b815260200190815260200160002060050160019054906101000a900460ff161515145b15610c3557600184610c3291906140f9565b93505b8080610c409061414f565b915050610b68565b5060008367ffffffffffffffff811115610c6557610c646139eb565b5b604051908082528060200260200182016040528015610c9e57816020015b610c8b613207565b815260200190600190039081610c835790505b50905060005b85811015610f99573373ffffffffffffffffffffffffffffffffffffffff16600b6000600184610cd491906140f9565b815260200190815260200160002060030160009054906101000a900473ffffffffffffffffffffffffffffffffffffffff1673ffffffffffffffffffffffffffffffffffffffff16148015610d5c575060001515600b6000600184610d3991906140f9565b815260200190815260200160002060050160019054906101000a900460ff161515145b15610f8657600181610d6e91906140f9565b92506000600b60008581526020019081526020016000209050806040518060e001604052908160008201548152602001600182018054610dad90613d64565b80601f0160208091040260200160405190810160405280929190818152602001828054610dd990613d64565b8015610e265780601f10610dfb57610100808354040283529160200191610e26565b820191906000526020600020905b815481529060010190602001808311610e0957829003601f168201915b50505050508152602001600282018054610e3f90613d64565b80601f0160208091040260200160405190810160405280929190818152602001828054610e6b90613d64565b8015610eb85780601f10610e8d57610100808354040283529160200191610eb8565b820191906000526020600020905b815481529060010190602001808311610e9b57829003601f168201915b505050505081526020016003820160009054906101000a900473ffffffffffffffffffffffffffffffffffffffff1673ffffffffffffffffffffffffffffffffffffffff1673ffffffffffffffffffffffffffffffffffffffff168152602001600482015481526020016005820160009054906101000a900460ff161515151581526020016005820160019054906101000a900460ff161515151581525050838681518110610f6a57610f69614198565b5b6020026020010181905250600185610f8291906140f9565b9450505b8080610f919061414f565b915050610ca4565b50809550505050505090565b600080610fb1836124fd565b9050600073ffffffffffffffffffffffffffffffffffffffff168173ffffffffffffffffffffffffffffffffffffffff161415611023576040517f08c379a000000000000000000000000000000000000000000000000000000000815260040161101a90614213565b60405180910390fd5b80915050919050565b6000600a54905090565b60008073ffffffffffffffffffffffffffffffffffffffff168273ffffffffffffffffffffffffffffffffffffffff1614156110a7576040517f08c379a000000000000000000000000000000000000000000000000000000000815260040161109e906142a5565b60405180910390fd5b600360008373ffffffffffffffffffffffffffffffffffffffff1673ffffffffffffffffffffffffffffffffffffffff168152602001908152602001600020549050919050565b600960009054906101000a900473ffffffffffffffffffffffffffffffffffffffff1673ffffffffffffffffffffffffffffffffffffffff163373ffffffffffffffffffffffffffffffffffffffff161461117e576040517f08c379a000000000000000000000000000000000000000000000000000000000815260040161117590614311565b60405180910390fd5b600960009054906101000a900473ffffffffffffffffffffffffffffffffffffffff1673ffffffffffffffffffffffffffffffffffffffff166108fc479081150290604051600060405180830381858888f193505050501580156111e6573d6000803e3d6000fd5b50565b6111f1613207565b600b60008381526020019081526020016000206040518060e00160405290816000820154815260200160018201805461122990613d64565b80601f016020809104026020016040519081016040528092919081815260200182805461125590613d64565b80156112a25780601f10611277576101008083540402835291602001916112a2565b820191906000526020600020905b81548152906001019060200180831161128557829003601f168201915b505050505081526020016002820180546112bb90613d64565b80601f01602080910402602001604051908101604052809291908181526020018280546112e790613d64565b80156113345780601f1061130957610100808354040283529160200191611334565b820191906000526020600020905b81548152906001019060200180831161131757829003601f168201915b505050505081526020016003820160009054906101000a900473ffffffffffffffffffffffffffffffffffffffff1673ffffffffffffffffffffffffffffffffffffffff1673ffffffffffffffffffffffffffffffffffffffff168152602001600482015481526020016005820160009054906101000a900460ff161515151581526020016005820160019054906101000a900460ff1615151515815250509050919050565b6060600180546113e990613d64565b80601f016020809104026020016040519081016040528092919081815260200182805461141590613d64565b80156114625780601f1061143757610100808354040283529160200191611462565b820191906000526020600020905b81548152906001019060200180831161144557829003601f168201915b5050505050905090565b600b600082815260200190815260200160002060050160019054906101000a900460ff166114cf576040517f08c379a00000000000000000000000000000000000000000000000000000000081526004016114c69061437d565b60405180910390fd5b6000600b60008381526020019081526020016000206004015490508034101561152d576040517f08c379a0000000000000000000000000000000000000000000000000000000008152600401611524906143e9565b60405180910390fd5b6000600b600084815260200190815260200160002060030160009054906101000a900473ffffffffffffffffffffffffffffffffffffffff1690506115738133856121f5565b8073ffffffffffffffffffffffffffffffffffffffff166108fc839081150290604051600060405180830381858888f193505050501580156115b9573d6000803e3d6000fd5b5033600b600085815260200190815260200160002060030160006101000a81548173ffffffffffffffffffffffffffffffffffffffff021916908373ffffffffffffffffffffffffffffffffffffffff1602179055506000600b600085815260200190815260200160002060050160016101000a81548160ff021916908315150217905550505050565b61165561164e61209f565b838361253a565b5050565b61166a61166461209f565b83612160565b6116a9576040517f08c379a00000000000000000000000000000000000000000000000000000000081526004016116a090613f2c565b60405180910390fd5b6116b5848484846126a7565b50505050565b3373ffffffffffffffffffffffffffffffffffffffff16600960009054906101000a900473ffffffffffffffffffffffffffffffffffffffff1673ffffffffffffffffffffffffffffffffffffffff161461174b576040517f08c379a00000000000000000000000000000000000000000000000000000000081526004016117429061447b565b60405180910390fd5b80600a8190555050565b606061176082612054565b600060066000848152602001908152602001600020805461178090613d64565b80601f01602080910402602001604051908101604052809291908181526020018280546117ac90613d64565b80156117f95780601f106117ce576101008083540402835291602001916117f9565b820191906000526020600020905b8154815290600101906020018083116117dc57829003601f168201915b50505050509050600061180a612703565b9050600081511415611820578192505050611863565b60008251111561185557808260405160200161183d9291906144d7565b60405160208183030381529060405292505050611863565b61185e8461271a565b925050505b919050565b611870613207565b600061187c60076124ef565b9050600b60008281526020019081526020016000206040518060e0016040529081600082015481526020016001820180546118b690613d64565b80601f01602080910402602001604051908101604052809291908181526020018280546118e290613d64565b801561192f5780601f106119045761010080835404028352916020019161192f565b820191906000526020600020905b81548152906001019060200180831161191257829003601f168201915b5050505050815260200160028201805461194890613d64565b80601f016020809104026020016040519081016040528092919081815260200182805461197490613d64565b80156119c15780601f10611996576101008083540402835291602001916119c1565b820191906000526020600020905b8154815290600101906020018083116119a457829003601f168201915b505050505081526020016003820160009054906101000a900473ffffffffffffffffffffffffffffffffffffffff1673ffffffffffffffffffffffffffffffffffffffff1673ffffffffffffffffffffffffffffffffffffffff168152602001600482015481526020016005820160009054906101000a900460ff161515151581526020016005820160019054906101000a900460ff16151515158152505091505090565b60606000611a7460076124ef565b905060008167ffffffffffffffff811115611a9257611a916139eb565b5b604051908082528060200260200182016040528015611acb57816020015b611ab8613207565b815260200190600190039081611ab05790505b50905060008080600090505b84811015611d535760011515600b6000600184611af491906140f9565b815260200190815260200160002060050160019054906101000a900460ff1615151415611d4057600181611b2891906140f9565b91506000600b60008481526020019081526020016000209050806040518060e001604052908160008201548152602001600182018054611b6790613d64565b80601f0160208091040260200160405190810160405280929190818152602001828054611b9390613d64565b8015611be05780601f10611bb557610100808354040283529160200191611be0565b820191906000526020600020905b815481529060010190602001808311611bc357829003601f168201915b50505050508152602001600282018054611bf990613d64565b80601f0160208091040260200160405190810160405280929190818152602001828054611c2590613d64565b8015611c725780601f10611c4757610100808354040283529160200191611c72565b820191906000526020600020905b815481529060010190602001808311611c5557829003601f168201915b505050505081526020016003820160009054906101000a900473ffffffffffffffffffffffffffffffffffffffff1673ffffffffffffffffffffffffffffffffffffffff1673ffffffffffffffffffffffffffffffffffffffff168152602001600482015481526020016005820160009054906101000a900460ff161515151581526020016005820160019054906101000a900460ff161515151581525050858581518110611d2457611d23614198565b5b6020026020010181905250600184611d3c91906140f9565b9350505b8080611d4b9061414f565b915050611ad7565b508294505050505090565b600b600082815260200190815260200160002060040154341015611db7576040517f08c379a0000000000000000000000000000000000000000000000000000000008152600401611dae906143e9565b60405180910390fd5b600b600082815260200190815260200160002060030160009054906101000a900473ffffffffffffffffffffffffffffffffffffffff1673ffffffffffffffffffffffffffffffffffffffff166108fc349081150290604051600060405180830381858888f19350505050158015611e33573d6000803e3d6000fd5b50611e3f3033836121f5565b611e493082610795565b33600b600083815260200190815260200160002060030160006101000a81548173ffffffffffffffffffffffffffffffffffffffff021916908373ffffffffffffffffffffffffffffffffffffffff1602179055506000600b600083815260200190815260200160002060050160016101000a81548160ff0219169083151502179055506000600b600083815260200190815260200160002060050160006101000a81548160ff02191690831515021790555050565b6000600560008473ffffffffffffffffffffffffffffffffffffffff1673ffffffffffffffffffffffffffffffffffffffff16815260200190815260200160002060008373ffffffffffffffffffffffffffffffffffffffff1673ffffffffffffffffffffffffffffffffffffffff16815260200190815260200160002060009054906101000a900460ff16905092915050565b6000611f9f60076124ef565b905090565b6000611fb06007612782565b6000611fbc60076124ef565b9050611fc83382612798565b611fd281876127b6565b611fde8186868661282a565b80915050949350505050565b60007f01ffc9a7000000000000000000000000000000000000000000000000000000007bffffffffffffffffffffffffffffffffffffffffffffffffffffffff1916827bffffffffffffffffffffffffffffffffffffffffffffffffffffffff1916149050919050565b61205d81612a3c565b61209c576040517f08c379a000000000000000000000000000000000000000000000000000000000815260040161209390614213565b60405180910390fd5b50565b600033905090565b816004600083815260200190815260200160002060006101000a81548173ffffffffffffffffffffffffffffffffffffffff021916908373ffffffffffffffffffffffffffffffffffffffff160217905550808273ffffffffffffffffffffffffffffffffffffffff1661211a83610fa5565b73ffffffffffffffffffffffffffffffffffffffff167f8c5be1e5ebec7d5bd14f71427d1e84f3dd0314c0f7b2291e5b200ac8c7c3b92560405160405180910390a45050565b60008061216c83610fa5565b90508073ffffffffffffffffffffffffffffffffffffffff168473ffffffffffffffffffffffffffffffffffffffff1614806121ae57506121ad8185611eff565b5b806121ec57508373ffffffffffffffffffffffffffffffffffffffff166121d48461074f565b73ffffffffffffffffffffffffffffffffffffffff16145b91505092915050565b8273ffffffffffffffffffffffffffffffffffffffff1661221582610fa5565b73ffffffffffffffffffffffffffffffffffffffff161461226b576040517f08c379a00000000000000000000000000000000000000000000000000000000081526004016122629061456d565b60405180910390fd5b600073ffffffffffffffffffffffffffffffffffffffff168273ffffffffffffffffffffffffffffffffffffffff1614156122db576040517f08c379a00000000000000000000000000000000000000000000000000000000081526004016122d2906145ff565b60405180910390fd5b6122e88383836001612a7d565b8273ffffffffffffffffffffffffffffffffffffffff1661230882610fa5565b73ffffffffffffffffffffffffffffffffffffffff161461235e576040517f08c379a00000000000000000000000000000000000000000000000000000000081526004016123559061456d565b60405180910390fd5b6004600082815260200190815260200160002060006101000a81549073ffffffffffffffffffffffffffffffffffffffff02191690556001600360008573ffffffffffffffffffffffffffffffffffffffff1673ffffffffffffffffffffffffffffffffffffffff168152602001908152602001600020600082825403925050819055506001600360008473ffffffffffffffffffffffffffffffffffffffff1673ffffffffffffffffffffffffffffffffffffffff16815260200190815260200160002060008282540192505081905550816002600083815260200190815260200160002060006101000a81548173ffffffffffffffffffffffffffffffffffffffff021916908373ffffffffffffffffffffffffffffffffffffffff160217905550808273ffffffffffffffffffffffffffffffffffffffff168473ffffffffffffffffffffffffffffffffffffffff167fddf252ad1be2c89b69c2b068fc378daa952ba7f163c4a11628f55a4df523b3ef60405160405180910390a46124ea8383836001612ba3565b505050565b600081600001549050919050565b60006002600083815260200190815260200160002060009054906101000a900473ffffffffffffffffffffffffffffffffffffffff169050919050565b8173ffffffffffffffffffffffffffffffffffffffff168373ffffffffffffffffffffffffffffffffffffffff1614156125a9576040517f08c379a00000000000000000000000000000000000000000000000000000000081526004016125a09061466b565b60405180910390fd5b80600560008573ffffffffffffffffffffffffffffffffffffffff1673ffffffffffffffffffffffffffffffffffffffff16815260200190815260200160002060008473ffffffffffffffffffffffffffffffffffffffff1673ffffffffffffffffffffffffffffffffffffffff16815260200190815260200160002060006101000a81548160ff0219169083151502179055508173ffffffffffffffffffffffffffffffffffffffff168373ffffffffffffffffffffffffffffffffffffffff167f17307eab39ab6107e8899845ad3d59bd9653f200f220920489ca2b5937696c318360405161269a91906133b5565b60405180910390a3505050565b6126b28484846121f5565b6126be84848484612ba9565b6126fd576040517f08c379a00000000000000000000000000000000000000000000000000000000081526004016126f4906146fd565b60405180910390fd5b50505050565b606060405180602001604052806000815250905090565b606061272582612054565b600061272f612703565b9050600081511161274f576040518060200160405280600081525061277a565b8061275984612d40565b60405160200161276a9291906144d7565b6040516020818303038152906040525b915050919050565b6001816000016000828254019250508190555050565b6127b2828260405180602001604052806000815250612e18565b5050565b6127bf82612a3c565b6127fe576040517f08c379a00000000000000000000000000000000000000000000000000000000081526004016127f59061478f565b60405180910390fd5b8060066000848152602001908152602001600020908051906020019061282592919061325e565b505050565b600a5434101561286f576040517f08c379a000000000000000000000000000000000000000000000000000000000815260040161286690614821565b60405180910390fd5b600081116128b2576040517f08c379a00000000000000000000000000000000000000000000000000000000081526004016128a9906148b3565b60405180910390fd5b6040518060e001604052808581526020018481526020018381526020013373ffffffffffffffffffffffffffffffffffffffff16815260200182815260200160011515815260200160011515815250600b600086815260200190815260200160002060008201518160000155602082015181600101908051906020019061293a92919061325e565b50604082015181600201908051906020019061295792919061325e565b5060608201518160030160006101000a81548173ffffffffffffffffffffffffffffffffffffffff021916908373ffffffffffffffffffffffffffffffffffffffff1602179055506080820151816004015560a08201518160050160006101000a81548160ff02191690831515021790555060c08201518160050160016101000a81548160ff0219169083151502179055509050506129f73330866121f5565b837f9339409317fd01fabff48b703019016f49159bacc801ae872d2ca637d226e4c03033846001604051612a2e94939291906148d3565b60405180910390a250505050565b60008073ffffffffffffffffffffffffffffffffffffffff16612a5e836124fd565b73ffffffffffffffffffffffffffffffffffffffff1614159050919050565b6001811115612b9d57600073ffffffffffffffffffffffffffffffffffffffff168473ffffffffffffffffffffffffffffffffffffffff1614612b115780600360008673ffffffffffffffffffffffffffffffffffffffff1673ffffffffffffffffffffffffffffffffffffffff1681526020019081526020016000206000828254612b099190614918565b925050819055505b600073ffffffffffffffffffffffffffffffffffffffff168373ffffffffffffffffffffffffffffffffffffffff1614612b9c5780600360008573ffffffffffffffffffffffffffffffffffffffff1673ffffffffffffffffffffffffffffffffffffffff1681526020019081526020016000206000828254612b9491906140f9565b925050819055505b5b50505050565b50505050565b6000612bca8473ffffffffffffffffffffffffffffffffffffffff16612e73565b15612d33578373ffffffffffffffffffffffffffffffffffffffff1663150b7a02612bf361209f565b8786866040518563ffffffff1660e01b8152600401612c1594939291906149a1565b602060405180830381600087803b158015612c2f57600080fd5b505af1925050508015612c6057506040513d601f19601f82011682018060405250810190612c5d9190614a02565b60015b612ce3573d8060008114612c90576040519150601f19603f3d011682016040523d82523d6000602084013e612c95565b606091505b50600081511415612cdb576040517f08c379a0000000000000000000000000000000000000000000000000000000008152600401612cd2906146fd565b60405180910390fd5b805181602001fd5b63150b7a0260e01b7bffffffffffffffffffffffffffffffffffffffffffffffffffffffff1916817bffffffffffffffffffffffffffffffffffffffffffffffffffffffff191614915050612d38565b600190505b949350505050565b606060006001612d4f84612e96565b01905060008167ffffffffffffffff811115612d6e57612d6d6139eb565b5b6040519080825280601f01601f191660200182016040528015612da05781602001600182028036833780820191505090505b509050600082602001820190505b600115612e0d578080600190039150507f3031323334353637383961626364656600000000000000000000000000000000600a86061a8153600a8581612df757612df6614a2f565b5b0494506000851415612e0857612e0d565b612dae565b819350505050919050565b612e228383612fe9565b612e2f6000848484612ba9565b612e6e576040517f08c379a0000000000000000000000000000000000000000000000000000000008152600401612e65906146fd565b60405180910390fd5b505050565b6000808273ffffffffffffffffffffffffffffffffffffffff163b119050919050565b600080600090507a184f03e93ff9f4daa797ed6e38ed64bf6a1f0100000000000000008310612ef4577a184f03e93ff9f4daa797ed6e38ed64bf6a1f0100000000000000008381612eea57612ee9614a2f565b5b0492506040810190505b6d04ee2d6d415b85acef81000000008310612f31576d04ee2d6d415b85acef81000000008381612f2757612f26614a2f565b5b0492506020810190505b662386f26fc100008310612f6057662386f26fc100008381612f5657612f55614a2f565b5b0492506010810190505b6305f5e1008310612f89576305f5e1008381612f7f57612f7e614a2f565b5b0492506008810190505b6127108310612fae576127108381612fa457612fa3614a2f565b5b0492506004810190505b60648310612fd15760648381612fc757612fc6614a2f565b5b0492506002810190505b600a8310612fe0576001810190505b80915050919050565b600073ffffffffffffffffffffffffffffffffffffffff168273ffffffffffffffffffffffffffffffffffffffff161415613059576040517f08c379a000000000000000000000000000000000000000000000000000000000815260040161305090614aaa565b60405180910390fd5b61306281612a3c565b156130a2576040517f08c379a000000000000000000000000000000000000000000000000000000000815260040161309990614b16565b60405180910390fd5b6130b0600083836001612a7d565b6130b981612a3c565b156130f9576040517f08c379a00000000000000000000000000000000000000000000000000000000081526004016130f090614b16565b60405180910390fd5b6001600360008473ffffffffffffffffffffffffffffffffffffffff1673ffffffffffffffffffffffffffffffffffffffff16815260200190815260200160002060008282540192505081905550816002600083815260200190815260200160002060006101000a81548173ffffffffffffffffffffffffffffffffffffffff021916908373ffffffffffffffffffffffffffffffffffffffff160217905550808273ffffffffffffffffffffffffffffffffffffffff16600073ffffffffffffffffffffffffffffffffffffffff167fddf252ad1be2c89b69c2b068fc378daa952ba7f163c4a11628f55a4df523b3ef60405160405180910390a4613203600083836001612ba3565b5050565b6040518060e00160405280600081526020016060815260200160608152602001600073ffffffffffffffffffffffffffffffffffffffff168152602001600081526020016000151581526020016000151581525090565b82805461326a90613d64565b90600052602060002090601f01602090048101928261328c57600085556132d3565b82601f106132a557805160ff19168380011785556132d3565b828001600101855582156132d3579182015b828111156132d25782518255916020019190600101906132b7565b5b5090506132e091906132e4565b5090565b5b808211156132fd5760008160009055506001016132e5565b5090565b6000604051905090565b600080fd5b600080fd5b60007fffffffff0000000000000000000000000000000000000000000000000000000082169050919050565b61334a81613315565b811461335557600080fd5b50565b60008135905061336781613341565b92915050565b6000602082840312156133835761338261330b565b5b600061339184828501613358565b91505092915050565b60008115159050919050565b6133af8161339a565b82525050565b60006020820190506133ca60008301846133a6565b92915050565b600081519050919050565b600082825260208201905092915050565b60005b8381101561340a5780820151818401526020810190506133ef565b83811115613419576000848401525b50505050565b6000601f19601f8301169050919050565b600061343b826133d0565b61344581856133db565b93506134558185602086016133ec565b61345e8161341f565b840191505092915050565b600060208201905081810360008301526134838184613430565b905092915050565b6000819050919050565b61349e8161348b565b81146134a957600080fd5b50565b6000813590506134bb81613495565b92915050565b6000602082840312156134d7576134d661330b565b5b60006134e5848285016134ac565b91505092915050565b600073ffffffffffffffffffffffffffffffffffffffff82169050919050565b6000613519826134ee565b9050919050565b6135298161350e565b82525050565b60006020820190506135446000830184613520565b92915050565b6135538161350e565b811461355e57600080fd5b50565b6000813590506135708161354a565b92915050565b6000806040838503121561358d5761358c61330b565b5b600061359b85828601613561565b92505060206135ac858286016134ac565b9150509250929050565b6000806000606084860312156135cf576135ce61330b565b5b60006135dd86828701613561565b93505060206135ee86828701613561565b92505060406135ff868287016134ac565b9150509250925092565b600080604083850312156136205761361f61330b565b5b600061362e858286016134ac565b925050602061363f858286016134ac565b9150509250929050565b600081519050919050565b600082825260208201905092915050565b6000819050602082019050919050565b61367e8161348b565b82525050565b600082825260208201905092915050565b60006136a0826133d0565b6136aa8185613684565b93506136ba8185602086016133ec565b6136c38161341f565b840191505092915050565b60006136d9826134ee565b9050919050565b6136e9816136ce565b82525050565b6136f88161339a565b82525050565b600060e0830160008301516137166000860182613675565b506020830151848203602086015261372e8282613695565b915050604083015184820360408601526137488282613695565b915050606083015161375d60608601826136e0565b5060808301516137706080860182613675565b5060a083015161378360a08601826136ef565b5060c083015161379660c08601826136ef565b508091505092915050565b60006137ad83836136fe565b905092915050565b6000602082019050919050565b60006137cd82613649565b6137d78185613654565b9350836020820285016137e985613665565b8060005b85811015613825578484038952815161380685826137a1565b9450613811836137b5565b925060208a019950506001810190506137ed565b50829750879550505050505092915050565b6000602082019050818103600083015261385181846137c2565b905092915050565b6138628161348b565b82525050565b600060208201905061387d6000830184613859565b92915050565b6000602082840312156138995761389861330b565b5b60006138a784828501613561565b91505092915050565b600060e0830160008301516138c86000860182613675565b50602083015184820360208601526138e08282613695565b915050604083015184820360408601526138fa8282613695565b915050606083015161390f60608601826136e0565b5060808301516139226080860182613675565b5060a083015161393560a08601826136ef565b5060c083015161394860c08601826136ef565b508091505092915050565b6000602082019050818103600083015261396d81846138b0565b905092915050565b61397e8161339a565b811461398957600080fd5b50565b60008135905061399b81613975565b92915050565b600080604083850312156139b8576139b761330b565b5b60006139c685828601613561565b92505060206139d78582860161398c565b9150509250929050565b600080fd5b600080fd5b7f4e487b7100000000000000000000000000000000000000000000000000000000600052604160045260246000fd5b613a238261341f565b810181811067ffffffffffffffff82111715613a4257613a416139eb565b5b80604052505050565b6000613a55613301565b9050613a618282613a1a565b919050565b600067ffffffffffffffff821115613a8157613a806139eb565b5b613a8a8261341f565b9050602081019050919050565b82818337600083830152505050565b6000613ab9613ab484613a66565b613a4b565b905082815260208101848484011115613ad557613ad46139e6565b5b613ae0848285613a97565b509392505050565b600082601f830112613afd57613afc6139e1565b5b8135613b0d848260208601613aa6565b91505092915050565b60008060008060808587031215613b3057613b2f61330b565b5b6000613b3e87828801613561565b9450506020613b4f87828801613561565b9350506040613b60878288016134ac565b925050606085013567ffffffffffffffff811115613b8157613b80613310565b5b613b8d87828801613ae8565b91505092959194509250565b60008060408385031215613bb057613baf61330b565b5b6000613bbe85828601613561565b9250506020613bcf85828601613561565b9150509250929050565b600067ffffffffffffffff821115613bf457613bf36139eb565b5b613bfd8261341f565b9050602081019050919050565b6000613c1d613c1884613bd9565b613a4b565b905082815260208101848484011115613c3957613c386139e6565b5b613c44848285613a97565b509392505050565b600082601f830112613c6157613c606139e1565b5b8135613c71848260208601613c0a565b91505092915050565b60008060008060808587031215613c9457613c9361330b565b5b600085013567ffffffffffffffff811115613cb257613cb1613310565b5b613cbe87828801613c4c565b945050602085013567ffffffffffffffff811115613cdf57613cde613310565b5b613ceb87828801613c4c565b935050604085013567ffffffffffffffff811115613d0c57613d0b613310565b5b613d1887828801613c4c565b9250506060613d29878288016134ac565b91505092959194509250565b7f4e487b7100000000000000000000000000000000000000000000000000000000600052602260045260246000fd5b60006002820490506001821680613d7c57607f821691505b60208210811415613d9057613d8f613d35565b5b50919050565b7f4552433732313a20617070726f76616c20746f2063757272656e74206f776e6560008201527f7200000000000000000000000000000000000000000000000000000000000000602082015250565b6000613df26021836133db565b9150613dfd82613d96565b604082019050919050565b60006020820190508181036000830152613e2181613de5565b9050919050565b7f4552433732313a20617070726f76652063616c6c6572206973206e6f7420746f60008201527f6b656e206f776e6572206f7220617070726f76656420666f7220616c6c000000602082015250565b6000613e84603d836133db565b9150613e8f82613e28565b604082019050919050565b60006020820190508181036000830152613eb381613e77565b9050919050565b7f4552433732313a2063616c6c6572206973206e6f7420746f6b656e206f776e6560008201527f72206f7220617070726f76656400000000000000000000000000000000000000602082015250565b6000613f16602d836133db565b9150613f2182613eba565b604082019050919050565b60006020820190508181036000830152613f4581613f09565b9050919050565b7f53656e6420656e6f75676820657468657220746f2073656c6c206120736e656160008201527f6b6572732028302e303120657468657229000000000000000000000000000000602082015250565b6000613fa86031836133db565b9150613fb382613f4c565b604082019050919050565b60006020820190508181036000830152613fd781613f9b565b9050919050565b7f596f75277265206e6f742061206f776e6572206f66207468697320736e65616b60008201527f6572000000000000000000000000000000000000000000000000000000000000602082015250565b600061403a6022836133db565b915061404582613fde565b604082019050919050565b600060208201905081810360008301526140698161402d565b9050919050565b7f4e487b7100000000000000000000000000000000000000000000000000000000600052601160045260246000fd5b60006140aa8261348b565b91506140b58361348b565b9250817fffffffffffffffffffffffffffffffffffffffffffffffffffffffffffffffff04831182151516156140ee576140ed614070565b5b828202905092915050565b60006141048261348b565b915061410f8361348b565b9250827fffffffffffffffffffffffffffffffffffffffffffffffffffffffffffffffff0382111561414457614143614070565b5b828201905092915050565b600061415a8261348b565b91507fffffffffffffffffffffffffffffffffffffffffffffffffffffffffffffffff82141561418d5761418c614070565b5b600182019050919050565b7f4e487b7100000000000000000000000000000000000000000000000000000000600052603260045260246000fd5b7f4552433732313a20696e76616c696420746f6b656e2049440000000000000000600082015250565b60006141fd6018836133db565b9150614208826141c7565b602082019050919050565b6000602082019050818103600083015261422c816141f0565b9050919050565b7f4552433732313a2061646472657373207a65726f206973206e6f74206120766160008201527f6c6964206f776e65720000000000000000000000000000000000000000000000602082015250565b600061428f6029836133db565b915061429a82614233565b604082019050919050565b600060208201905081810360008301526142be81614282565b9050919050565b7f4f6e6c79206f776e65722063616e207769746864726177000000000000000000600082015250565b60006142fb6017836133db565b9150614306826142c5565b602082019050919050565b6000602082019050818103600083015261432a816142ee565b9050919050565b7f536e65616b6572206973206e6f7420696e2073656c6c00000000000000000000600082015250565b60006143676016836133db565b915061437282614331565b602082019050919050565b600060208201905081810360008301526143968161435a565b9050919050565b7f4e6f7420656e6f7567682066756e647300000000000000000000000000000000600082015250565b60006143d36010836133db565b91506143de8261439d565b602082019050919050565b60006020820190508181036000830152614402816143c6565b9050919050565b7f4f6e6c79206f776e65722063616e20757064617465206c697374696e6720707260008201527f6963650000000000000000000000000000000000000000000000000000000000602082015250565b60006144656023836133db565b915061447082614409565b604082019050919050565b6000602082019050818103600083015261449481614458565b9050919050565b600081905092915050565b60006144b1826133d0565b6144bb818561449b565b93506144cb8185602086016133ec565b80840191505092915050565b60006144e382856144a6565b91506144ef82846144a6565b91508190509392505050565b7f4552433732313a207472616e736665722066726f6d20696e636f72726563742060008201527f6f776e6572000000000000000000000000000000000000000000000000000000602082015250565b60006145576025836133db565b9150614562826144fb565b604082019050919050565b600060208201905081810360008301526145868161454a565b9050919050565b7f4552433732313a207472616e7366657220746f20746865207a65726f2061646460008201527f7265737300000000000000000000000000000000000000000000000000000000602082015250565b60006145e96024836133db565b91506145f48261458d565b604082019050919050565b60006020820190508181036000830152614618816145dc565b9050919050565b7f4552433732313a20617070726f766520746f2063616c6c657200000000000000600082015250565b60006146556019836133db565b91506146608261461f565b602082019050919050565b6000602082019050818103600083015261468481614648565b9050919050565b7f4552433732313a207472616e7366657220746f206e6f6e20455243373231526560008201527f63656976657220696d706c656d656e7465720000000000000000000000000000602082015250565b60006146e76032836133db565b91506146f28261468b565b604082019050919050565b60006020820190508181036000830152614716816146da565b9050919050565b7f45524337323155524953746f726167653a2055524920736574206f66206e6f6e60008201527f6578697374656e7420746f6b656e000000000000000000000000000000000000602082015250565b6000614779602e836133db565b91506147848261471d565b604082019050919050565b600060208201905081810360008301526147a88161476c565b9050919050565b7f486f706566756c6c792073656e64696e672074686520636f727265637420707260008201527f6963650000000000000000000000000000000000000000000000000000000000602082015250565b600061480b6023836133db565b9150614816826147af565b604082019050919050565b6000602082019050818103600083015261483a816147fe565b9050919050565b7f4d616b652073757265207468652070726963652069736e2774206e656761746960008201527f7665000000000000000000000000000000000000000000000000000000000000602082015250565b600061489d6022836133db565b91506148a882614841565b604082019050919050565b600060208201905081810360008301526148cc81614890565b9050919050565b60006080820190506148e86000830187613520565b6148f56020830186613520565b6149026040830185613859565b61490f60608301846133a6565b95945050505050565b60006149238261348b565b915061492e8361348b565b92508282101561494157614940614070565b5b828203905092915050565b600081519050919050565b600082825260208201905092915050565b60006149738261494c565b61497d8185614957565b935061498d8185602086016133ec565b6149968161341f565b840191505092915050565b60006080820190506149b66000830187613520565b6149c36020830186613520565b6149d06040830185613859565b81810360608301526149e28184614968565b905095945050505050565b6000815190506149fc81613341565b92915050565b600060208284031215614a1857614a1761330b565b5b6000614a26848285016149ed565b91505092915050565b7f4e487b7100000000000000000000000000000000000000000000000000000000600052601260045260246000fd5b7f4552433732313a206d696e7420746f20746865207a65726f2061646472657373600082015250565b6000614a946020836133db565b9150614a9f82614a5e565b602082019050919050565b60006020820190508181036000830152614ac381614a87565b9050919050565b7f4552433732313a20746f6b656e20616c7265616479206d696e74656400000000600082015250565b6000614b00601c836133db565b9150614b0b82614aca565b602082019050919050565b60006020820190508181036000830152614b2f81614af3565b905091905056fea2646970667358221220e5892e1c36a9d04b2cfca0cde0b2b3df8e95622a1c9e8507d548dd09769d3b9464736f6c63430008090033",
  "linkReferences": {},
  "deployedLinkReferences": {}
}