{
  "_format": "hh-sol-artifact-1",
  "contractName": "Snyker",
  "sourceName": "contracts/Snyker.sol",
  "abi": [
    {
      "inputs": [],
      "stateMutability": "nonpayable",
      "type": "constructor"
    },
    {
      "anonymous": false,
      "inputs": [
        {
          "indexed": true,
          "internalType": "address",
          "name": "owner",
          "type": "address"
        },
        {
          "indexed": true,
          "internalType": "address",
          "name": "approved",
          "type": "address"
        },
        {
          "indexed": true,
          "internalType": "uint256",
          "name": "tokenId",
          "type": "uint256"
        }
      ],
      "name": "Approval",
      "type": "event"
    },
    {
      "anonymous": false,
      "inputs": [
        {
          "indexed": true,
          "internalType": "address",
          "name": "owner",
          "type": "address"
        },
        {
          "indexed": true,
          "internalType": "address",
          "name": "operator",
          "type": "address"
        },
        {
          "indexed": false,
          "internalType": "bool",
          "name": "approved",
          "type": "bool"
        }
      ],
      "name": "ApprovalForAll",
      "type": "event"
    },
    {
      "anonymous": false,
      "inputs": [
        {
          "indexed": true,
          "internalType": "address",
          "name": "from",
          "type": "address"
        },
        {
          "indexed": true,
          "internalType": "address",
          "name": "to",
          "type": "address"
        },
        {
          "indexed": true,
          "internalType": "uint256",
          "name": "tokenId",
          "type": "uint256"
        }
      ],
      "name": "Transfer",
      "type": "event"
    },
    {
      "anonymous": false,
      "inputs": [
        {
          "indexed": false,
          "internalType": "uint256",
          "name": "priceMarket",
          "type": "uint256"
        }
      ],
      "name": "listPriceUpdated",
      "type": "event"
    },
    {
      "anonymous": false,
      "inputs": [
        {
          "indexed": false,
          "internalType": "address",
          "name": "owner",
          "type": "address"
        },
        {
          "indexed": false,
          "internalType": "uint256",
          "name": "tokenId",
          "type": "uint256"
        },
        {
          "indexed": false,
          "internalType": "bool",
          "name": "isInSale",
          "type": "bool"
        },
        {
          "indexed": false,
          "internalType": "bool",
          "name": "firstSale",
          "type": "bool"
        },
        {
          "indexed": false,
          "internalType": "bool",
          "name": "isDeleted",
          "type": "bool"
        }
      ],
      "name": "releaseExecuted",
      "type": "event"
    },
    {
      "anonymous": false,
      "inputs": [
        {
          "indexed": false,
          "internalType": "address",
          "name": "owner",
          "type": "address"
        },
        {
          "indexed": false,
          "internalType": "uint256",
          "name": "price",
          "type": "uint256"
        },
        {
          "indexed": false,
          "internalType": "uint256",
          "name": "tokenId",
          "type": "uint256"
        },
        {
          "indexed": false,
          "internalType": "bool",
          "name": "isInSale",
          "type": "bool"
        },
        {
          "indexed": false,
          "internalType": "bool",
          "name": "firstSale",
          "type": "bool"
        },
        {
          "indexed": false,
          "internalType": "bool",
          "name": "isDeleted",
          "type": "bool"
        }
      ],
      "name": "saleExecuted",
      "type": "event"
    },
    {
      "anonymous": false,
      "inputs": [
        {
          "indexed": false,
          "internalType": "uint256",
          "name": "price",
          "type": "uint256"
        },
        {
          "indexed": false,
          "internalType": "uint256",
          "name": "tokenId",
          "type": "uint256"
        },
        {
          "indexed": false,
          "internalType": "bool",
          "name": "isInSale",
          "type": "bool"
        },
        {
          "indexed": false,
          "internalType": "bool",
          "name": "firstSale",
          "type": "bool"
        },
        {
          "indexed": false,
          "internalType": "bool",
          "name": "isDeleted",
          "type": "bool"
        }
      ],
      "name": "sneakerSelled",
      "type": "event"
    },
    {
      "anonymous": false,
      "inputs": [
        {
          "indexed": false,
          "internalType": "uint256",
          "name": "tokenId",
          "type": "uint256"
        },
        {
          "indexed": false,
          "internalType": "string",
          "name": "name",
          "type": "string"
        },
        {
          "indexed": false,
          "internalType": "string",
          "name": "description",
          "type": "string"
        },
        {
          "indexed": false,
          "internalType": "address",
          "name": "owner",
          "type": "address"
        },
        {
          "indexed": false,
          "internalType": "uint256",
          "name": "price",
          "type": "uint256"
        },
        {
          "indexed": false,
          "internalType": "bool",
          "name": "firstSale",
          "type": "bool"
        },
        {
          "indexed": false,
          "internalType": "bool",
          "name": "isInSale",
          "type": "bool"
        },
        {
          "indexed": false,
          "internalType": "bool",
          "name": "isDeleted",
          "type": "bool"
        }
      ],
      "name": "tokenCreated",
      "type": "event"
    },
    {
      "inputs": [],
      "name": "admin",
      "outputs": [
        {
          "internalType": "address payable",
          "name": "",
          "type": "address"
        }
      ],
      "stateMutability": "view",
      "type": "function"
    },
    {
      "inputs": [
        {
          "internalType": "address",
          "name": "to",
          "type": "address"
        },
        {
          "internalType": "uint256",
          "name": "tokenId",
          "type": "uint256"
        }
      ],
      "name": "approve",
      "outputs": [],
      "stateMutability": "nonpayable",
      "type": "function"
    },
    {
      "inputs": [
        {
          "internalType": "address",
          "name": "owner",
          "type": "address"
        }
      ],
      "name": "balanceOf",
      "outputs": [
        {
          "internalType": "uint256",
          "name": "",
          "type": "uint256"
        }
      ],
      "stateMutability": "view",
      "type": "function"
    },
    {
      "inputs": [
        {
          "internalType": "string",
          "name": "tokenURI",
          "type": "string"
        },
        {
          "internalType": "string",
          "name": "name",
          "type": "string"
        },
        {
          "internalType": "string",
          "name": "description",
          "type": "string"
        },
        {
          "internalType": "uint256",
          "name": "price",
          "type": "uint256"
        }
      ],
      "name": "createToken",
      "outputs": [
        {
          "internalType": "uint256",
          "name": "",
          "type": "uint256"
        }
      ],
      "stateMutability": "payable",
      "type": "function"
    },
    {
      "inputs": [
        {
          "internalType": "uint256",
          "name": "tokenId",
          "type": "uint256"
        }
      ],
      "name": "deleteSneakers",
      "outputs": [],
      "stateMutability": "nonpayable",
      "type": "function"
    },
    {
      "inputs": [
        {
          "internalType": "uint256",
          "name": "tokenId",
          "type": "uint256"
        }
      ],
      "name": "executeRelease",
      "outputs": [],
      "stateMutability": "payable",
      "type": "function"
    },
    {
      "inputs": [
        {
          "internalType": "uint256",
          "name": "tokenId",
          "type": "uint256"
        }
      ],
      "name": "executeSale",
      "outputs": [],
      "stateMutability": "payable",
      "type": "function"
    },
    {
      "inputs": [],
      "name": "getAllNFTs",
      "outputs": [
        {
          "components": [
            {
              "internalType": "uint256",
              "name": "tokenId",
              "type": "uint256"
            },
            {
              "internalType": "string",
              "name": "name",
              "type": "string"
            },
            {
              "internalType": "string",
              "name": "description",
              "type": "string"
            },
            {
              "internalType": "address payable",
              "name": "owner",
              "type": "address"
            },
            {
              "internalType": "uint256",
              "name": "price",
              "type": "uint256"
            },
            {
              "internalType": "bool",
              "name": "firstSale",
              "type": "bool"
            },
            {
              "internalType": "bool",
              "name": "isInSale",
              "type": "bool"
            },
            {
              "internalType": "bool",
              "name": "isDeleted",
              "type": "bool"
            }
          ],
          "internalType": "struct Snyker.Sneaker[]",
          "name": "",
          "type": "tuple[]"
        }
      ],
      "stateMutability": "view",
      "type": "function"
    },
    {
      "inputs": [
        {
          "internalType": "uint256",
          "name": "tokenId",
          "type": "uint256"
        }
      ],
      "name": "getApproved",
      "outputs": [
        {
          "internalType": "address",
          "name": "",
          "type": "address"
        }
      ],
      "stateMutability": "view",
      "type": "function"
    },
    {
      "inputs": [],
      "name": "getCurrentToken",
      "outputs": [
        {
          "internalType": "uint256",
          "name": "",
          "type": "uint256"
        }
      ],
      "stateMutability": "view",
      "type": "function"
    },
    {
      "inputs": [
        {
          "internalType": "uint256",
          "name": "tokenId",
          "type": "uint256"
        }
      ],
      "name": "getDeletedSneakers",
      "outputs": [
        {
          "internalType": "bool",
          "name": "",
          "type": "bool"
        }
      ],
      "stateMutability": "view",
      "type": "function"
    },
    {
      "inputs": [],
      "name": "getLatestIdToListedToken",
      "outputs": [
        {
          "components": [
            {
              "internalType": "uint256",
              "name": "tokenId",
              "type": "uint256"
            },
            {
              "internalType": "string",
              "name": "name",
              "type": "string"
            },
            {
              "internalType": "string",
              "name": "description",
              "type": "string"
            },
            {
              "internalType": "address payable",
              "name": "owner",
              "type": "address"
            },
            {
              "internalType": "uint256",
              "name": "price",
              "type": "uint256"
            },
            {
              "internalType": "bool",
              "name": "firstSale",
              "type": "bool"
            },
            {
              "internalType": "bool",
              "name": "isInSale",
              "type": "bool"
            },
            {
              "internalType": "bool",
              "name": "isDeleted",
              "type": "bool"
            }
          ],
          "internalType": "struct Snyker.Sneaker",
          "name": "",
          "type": "tuple"
        }
      ],
      "stateMutability": "view",
      "type": "function"
    },
    {
      "inputs": [],
      "name": "getListPrice",
      "outputs": [
        {
          "internalType": "uint256",
          "name": "",
          "type": "uint256"
        }
      ],
      "stateMutability": "view",
      "type": "function"
    },
    {
      "inputs": [
        {
          "internalType": "uint256",
          "name": "tokenId",
          "type": "uint256"
        }
      ],
      "name": "getListedTokenForId",
      "outputs": [
        {
          "components": [
            {
              "internalType": "uint256",
              "name": "tokenId",
              "type": "uint256"
            },
            {
              "internalType": "string",
              "name": "name",
              "type": "string"
            },
            {
              "internalType": "string",
              "name": "description",
              "type": "string"
            },
            {
              "internalType": "address payable",
              "name": "owner",
              "type": "address"
            },
            {
              "internalType": "uint256",
              "name": "price",
              "type": "uint256"
            },
            {
              "internalType": "bool",
              "name": "firstSale",
              "type": "bool"
            },
            {
              "internalType": "bool",
              "name": "isInSale",
              "type": "bool"
            },
            {
              "internalType": "bool",
              "name": "isDeleted",
              "type": "bool"
            }
          ],
          "internalType": "struct Snyker.Sneaker",
          "name": "",
          "type": "tuple"
        }
      ],
      "stateMutability": "view",
      "type": "function"
    },
    {
      "inputs": [],
      "name": "getMyNFTs",
      "outputs": [
        {
          "components": [
            {
              "internalType": "uint256",
              "name": "tokenId",
              "type": "uint256"
            },
            {
              "internalType": "string",
              "name": "name",
              "type": "string"
            },
            {
              "internalType": "string",
              "name": "description",
              "type": "string"
            },
            {
              "internalType": "address payable",
              "name": "owner",
              "type": "address"
            },
            {
              "internalType": "uint256",
              "name": "price",
              "type": "uint256"
            },
            {
              "internalType": "bool",
              "name": "firstSale",
              "type": "bool"
            },
            {
              "internalType": "bool",
              "name": "isInSale",
              "type": "bool"
            },
            {
              "internalType": "bool",
              "name": "isDeleted",
              "type": "bool"
            }
          ],
          "internalType": "struct Snyker.Sneaker[]",
          "name": "",
          "type": "tuple[]"
        }
      ],
      "stateMutability": "view",
      "type": "function"
    },
    {
      "inputs": [
        {
          "internalType": "address",
          "name": "owner",
          "type": "address"
        },
        {
          "internalType": "address",
          "name": "operator",
          "type": "address"
        }
      ],
      "name": "isApprovedForAll",
      "outputs": [
        {
          "internalType": "bool",
          "name": "",
          "type": "bool"
        }
      ],
      "stateMutability": "view",
      "type": "function"
    },
    {
      "inputs": [],
      "name": "name",
      "outputs": [
        {
          "internalType": "string",
          "name": "",
          "type": "string"
        }
      ],
      "stateMutability": "view",
      "type": "function"
    },
    {
      "inputs": [
        {
          "internalType": "uint256",
          "name": "tokenId",
          "type": "uint256"
        }
      ],
      "name": "ownerOf",
      "outputs": [
        {
          "internalType": "address",
          "name": "",
          "type": "address"
        }
      ],
      "stateMutability": "view",
      "type": "function"
    },
    {
      "inputs": [
        {
          "internalType": "address",
          "name": "from",
          "type": "address"
        },
        {
          "internalType": "address",
          "name": "to",
          "type": "address"
        },
        {
          "internalType": "uint256",
          "name": "tokenId",
          "type": "uint256"
        }
      ],
      "name": "safeTransferFrom",
      "outputs": [],
      "stateMutability": "nonpayable",
      "type": "function"
    },
    {
      "inputs": [
        {
          "internalType": "address",
          "name": "from",
          "type": "address"
        },
        {
          "internalType": "address",
          "name": "to",
          "type": "address"
        },
        {
          "internalType": "uint256",
          "name": "tokenId",
          "type": "uint256"
        },
        {
          "internalType": "bytes",
          "name": "data",
          "type": "bytes"
        }
      ],
      "name": "safeTransferFrom",
      "outputs": [],
      "stateMutability": "nonpayable",
      "type": "function"
    },
    {
      "inputs": [
        {
          "internalType": "uint256",
          "name": "tokenId",
          "type": "uint256"
        },
        {
          "internalType": "uint256",
          "name": "price",
          "type": "uint256"
        }
      ],
      "name": "sellSneaker",
      "outputs": [
        {
          "internalType": "string",
          "name": "",
          "type": "string"
        }
      ],
      "stateMutability": "payable",
      "type": "function"
    },
    {
      "inputs": [
        {
          "internalType": "address",
          "name": "operator",
          "type": "address"
        },
        {
          "internalType": "bool",
          "name": "approved",
          "type": "bool"
        }
      ],
      "name": "setApprovalForAll",
      "outputs": [],
      "stateMutability": "nonpayable",
      "type": "function"
    },
    {
      "inputs": [
        {
          "internalType": "bytes4",
          "name": "interfaceId",
          "type": "bytes4"
        }
      ],
      "name": "supportsInterface",
      "outputs": [
        {
          "internalType": "bool",
          "name": "",
          "type": "bool"
        }
      ],
      "stateMutability": "view",
      "type": "function"
    },
    {
      "inputs": [],
      "name": "symbol",
      "outputs": [
        {
          "internalType": "string",
          "name": "",
          "type": "string"
        }
      ],
      "stateMutability": "view",
      "type": "function"
    },
    {
      "inputs": [
        {
          "internalType": "uint256",
          "name": "tokenId",
          "type": "uint256"
        }
      ],
      "name": "tokenURI",
      "outputs": [
        {
          "internalType": "string",
          "name": "",
          "type": "string"
        }
      ],
      "stateMutability": "view",
      "type": "function"
    },
    {
      "inputs": [
        {
          "internalType": "address",
          "name": "from",
          "type": "address"
        },
        {
          "internalType": "address",
          "name": "to",
          "type": "address"
        },
        {
          "internalType": "uint256",
          "name": "tokenId",
          "type": "uint256"
        }
      ],
      "name": "transferFrom",
      "outputs": [],
      "stateMutability": "nonpayable",
      "type": "function"
    },
    {
      "inputs": [
        {
          "internalType": "uint256",
          "name": "_priceMarket",
          "type": "uint256"
        }
      ],
      "name": "updateListPrice",
      "outputs": [],
      "stateMutability": "payable",
      "type": "function"
    },
    {
      "inputs": [],
      "name": "withdrawAll",
      "outputs": [],
      "stateMutability": "nonpayable",
      "type": "function"
    }
  ],
  "bytecode": "0x6080604052662386f26fc10000600a553480156200001c57600080fd5b506040518060400160405280600681526020017f536e796b657200000000000000000000000000000000000000000000000000008152506040518060400160405280600381526020017f53544b00000000000000000000000000000000000000000000000000000000008152508160009080519060200190620000a192919062000104565b508060019080519060200190620000ba92919062000104565b50505033600960006101000a81548173ffffffffffffffffffffffffffffffffffffffff021916908373ffffffffffffffffffffffffffffffffffffffff16021790555062000219565b8280546200011290620001e3565b90600052602060002090601f01602090048101928262000136576000855562000182565b82601f106200015157805160ff191683800117855562000182565b8280016001018555821562000182579182015b828111156200018157825182559160200191906001019062000164565b5b50905062000191919062000195565b5090565b5b80821115620001b057600081600090555060010162000196565b5090565b7f4e487b7100000000000000000000000000000000000000000000000000000000600052602260045260246000fd5b60006002820490506001821680620001fc57607f821691505b60208210811415620002135762000212620001b4565b5b50919050565b6153be80620002296000396000f3fe6080604052600436106101b75760003560e01c80638e264590116100ec578063d1a88ae51161008a578063e985e9c511610064578063e985e9c5146105fa578063ef2d174614610637578063efbe8fd114610662578063f851a44014610692576101b7565b8063d1a88ae514610588578063e0391b09146105b3578063e2825e08146105de576101b7565b8063a22cb465116100c6578063a22cb465146104dd578063b88d4fde14610506578063c322579c1461052f578063c87b56dd1461054b576101b7565b80638e2645901461045957806395d89b41146104965780639b1225c4146104c1576101b7565b80635e6c65a71161015957806368f1945f1161013357806368f1945f146103b157806370a08231146103dc5780637241eeed14610419578063853828b614610442576101b7565b80635e6c65a71461030c578063629cb2e4146103495780636352211e14610374576101b7565b8063095ea7b311610195578063095ea7b31461026157806323b872dd1461028a5780632fab29b3146102b357806342842e0e146102e3576101b7565b806301ffc9a7146101bc57806306fdde03146101f9578063081812fc14610224575b600080fd5b3480156101c857600080fd5b506101e360048036038101906101de91906139b3565b6106bd565b6040516101f091906139fb565b60405180910390f35b34801561020557600080fd5b5061020e61079f565b60405161021b9190613aaf565b60405180910390f35b34801561023057600080fd5b5061024b60048036038101906102469190613b07565b610831565b6040516102589190613b75565b60405180910390f35b34801561026d57600080fd5b5061028860048036038101906102839190613bbc565b610877565b005b34801561029657600080fd5b506102b160048036038101906102ac9190613bfc565b61098f565b005b6102cd60048036038101906102c89190613c4f565b6109ef565b6040516102da9190613aaf565b60405180910390f35b3480156102ef57600080fd5b5061030a60048036038101906103059190613bfc565b610c50565b005b34801561031857600080fd5b50610333600480360381019061032e9190613b07565b610c70565b60405161034091906139fb565b60405180910390f35b34801561035557600080fd5b5061035e610c9d565b60405161036b9190613e91565b60405180910390f35b34801561038057600080fd5b5061039b60048036038101906103969190613b07565b61118f565b6040516103a89190613b75565b60405180910390f35b3480156103bd57600080fd5b506103c6611216565b6040516103d39190613ec2565b60405180910390f35b3480156103e857600080fd5b5061040360048036038101906103fe9190613edd565b611220565b6040516104109190613ec2565b60405180910390f35b34801561042557600080fd5b50610440600480360381019061043b9190613b07565b6112d8565b005b34801561044e57600080fd5b506104576113a3565b005b34801561046557600080fd5b50610480600480360381019061047b9190613b07565b61149e565b60405161048d9190613fc1565b60405180910390f35b3480156104a257600080fd5b506104ab6116ab565b6040516104b89190613aaf565b60405180910390f35b6104db60048036038101906104d69190613b07565b61173d565b005b3480156104e957600080fd5b5061050460048036038101906104ff919061400f565b611957565b005b34801561051257600080fd5b5061052d60048036038101906105289190614184565b61196d565b005b61054960048036038101906105449190613b07565b6119cf565b005b34801561055757600080fd5b50610572600480360381019061056d9190613b07565b611aa0565b60405161057f9190613aaf565b60405180910390f35b34801561059457600080fd5b5061059d611bb3565b6040516105aa9190613fc1565b60405180910390f35b3480156105bf57600080fd5b506105c8611dcd565b6040516105d59190613e91565b60405180910390f35b6105f860048036038101906105f39190613b07565b612120565b005b34801561060657600080fd5b50610621600480360381019061061c9190614207565b612302565b60405161062e91906139fb565b60405180910390f35b34801561064357600080fd5b5061064c612396565b6040516106599190613ec2565b60405180910390f35b61067c600480360381019061067791906142e8565b6123a7565b6040516106899190613ec2565b60405180910390f35b34801561069e57600080fd5b506106a76123ed565b6040516106b491906143b2565b60405180910390f35b60007f80ac58cd000000000000000000000000000000000000000000000000000000007bffffffffffffffffffffffffffffffffffffffffffffffffffffffff1916827bffffffffffffffffffffffffffffffffffffffffffffffffffffffff1916148061078857507f5b5e139f000000000000000000000000000000000000000000000000000000007bffffffffffffffffffffffffffffffffffffffffffffffffffffffff1916827bffffffffffffffffffffffffffffffffffffffffffffffffffffffff1916145b80610798575061079782612413565b5b9050919050565b6060600080546107ae906143fc565b80601f01602080910402602001604051908101604052809291908181526020018280546107da906143fc565b80156108275780601f106107fc57610100808354040283529160200191610827565b820191906000526020600020905b81548152906001019060200180831161080a57829003601f168201915b5050505050905090565b600061083c8261247d565b6004600083815260200190815260200160002060009054906101000a900473ffffffffffffffffffffffffffffffffffffffff169050919050565b60006108828261118f565b90508073ffffffffffffffffffffffffffffffffffffffff168373ffffffffffffffffffffffffffffffffffffffff1614156108f3576040517f08c379a00000000000000000000000000000000000000000000000000000000081526004016108ea906144a0565b60405180910390fd5b8073ffffffffffffffffffffffffffffffffffffffff166109126124c8565b73ffffffffffffffffffffffffffffffffffffffff16148061094157506109408161093b6124c8565b612302565b5b610980576040517f08c379a000000000000000000000000000000000000000000000000000000000815260040161097790614532565b60405180910390fd5b61098a83836124d0565b505050565b6109a061099a6124c8565b82612589565b6109df576040517f08c379a00000000000000000000000000000000000000000000000000000000081526004016109d6906145c4565b60405180910390fd5b6109ea83838361261e565b505050565b6060600a54341015610a36576040517f08c379a0000000000000000000000000000000000000000000000000000000008152600401610a2d90614656565b60405180910390fd5b600b600084815260200190815260200160002060030160009054906101000a900473ffffffffffffffffffffffffffffffffffffffff1673ffffffffffffffffffffffffffffffffffffffff163373ffffffffffffffffffffffffffffffffffffffff1614610ada576040517f08c379a0000000000000000000000000000000000000000000000000000000008152600401610ad1906146e8565b60405180910390fd5b6001600b600085815260200190815260200160002060050160016101000a81548160ff0219169083151502179055506000600b600085815260200190815260200160002060050160006101000a81548160ff021916908315150217905550670de0b6b3a764000082610b4c9190614737565b600b600085815260200190815260200160002060040181905550600960009054906101000a900473ffffffffffffffffffffffffffffffffffffffff1673ffffffffffffffffffffffffffffffffffffffff166108fc600a549081150290604051600060405180830381858888f19350505050158015610bd0573d6000803e3d6000fd5b507f82d70f834664ddabab98bd2565392c2f69825b13f22c78510bbfc46de4d52e3a82846001600080604051610c0a959493929190614791565b60405180910390a16040518060400160405280600f81526020017f536e65616b657220696e2073656c6c0000000000000000000000000000000000815250905092915050565b610c6b8383836040518060200160405280600081525061196d565b505050565b6000600b600083815260200190815260200160002060050160029054906101000a900460ff169050919050565b60606000610cab6007612918565b9050600080600080600090505b84811015610dd7573373ffffffffffffffffffffffffffffffffffffffff16600b6000600184610ce891906147e4565b815260200190815260200160002060030160009054906101000a900473ffffffffffffffffffffffffffffffffffffffff1673ffffffffffffffffffffffffffffffffffffffff16148015610d70575060001515600b6000600184610d4d91906147e4565b815260200190815260200160002060050160019054906101000a900460ff161515145b8015610daf575060001515600b6000600184610d8c91906147e4565b815260200190815260200160002060050160029054906101000a900460ff161515145b15610dc457600184610dc191906147e4565b93505b8080610dcf9061483a565b915050610cb8565b5060008367ffffffffffffffff811115610df457610df3614059565b5b604051908082528060200260200182016040528015610e2d57816020015b610e1a613803565b815260200190600190039081610e125790505b50905060005b85811015611183573373ffffffffffffffffffffffffffffffffffffffff16600b6000600184610e6391906147e4565b815260200190815260200160002060030160009054906101000a900473ffffffffffffffffffffffffffffffffffffffff1673ffffffffffffffffffffffffffffffffffffffff16148015610eeb575060001515600b6000600184610ec891906147e4565b815260200190815260200160002060050160019054906101000a900460ff161515145b8015610f2a575060001515600b6000600184610f0791906147e4565b815260200190815260200160002060050160029054906101000a900460ff161515145b1561117057600181610f3c91906147e4565b92506000600b60008581526020019081526020016000209050806040518061010001604052908160008201548152602001600182018054610f7c906143fc565b80601f0160208091040260200160405190810160405280929190818152602001828054610fa8906143fc565b8015610ff55780601f10610fca57610100808354040283529160200191610ff5565b820191906000526020600020905b815481529060010190602001808311610fd857829003601f168201915b5050505050815260200160028201805461100e906143fc565b80601f016020809104026020016040519081016040528092919081815260200182805461103a906143fc565b80156110875780601f1061105c57610100808354040283529160200191611087565b820191906000526020600020905b81548152906001019060200180831161106a57829003601f168201915b505050505081526020016003820160009054906101000a900473ffffffffffffffffffffffffffffffffffffffff1673ffffffffffffffffffffffffffffffffffffffff1673ffffffffffffffffffffffffffffffffffffffff168152602001600482015481526020016005820160009054906101000a900460ff161515151581526020016005820160019054906101000a900460ff161515151581526020016005820160029054906101000a900460ff16151515158152505083868151811061115457611153614883565b5b602002602001018190525060018561116c91906147e4565b9450505b808061117b9061483a565b915050610e33565b50809550505050505090565b60008061119b83612926565b9050600073ffffffffffffffffffffffffffffffffffffffff168173ffffffffffffffffffffffffffffffffffffffff16141561120d576040517f08c379a0000000000000000000000000000000000000000000000000000000008152600401611204906148fe565b60405180910390fd5b80915050919050565b6000600a54905090565b60008073ffffffffffffffffffffffffffffffffffffffff168273ffffffffffffffffffffffffffffffffffffffff161415611291576040517f08c379a000000000000000000000000000000000000000000000000000000000815260040161128890614990565b60405180910390fd5b600360008373ffffffffffffffffffffffffffffffffffffffff1673ffffffffffffffffffffffffffffffffffffffff168152602001908152602001600020549050919050565b600960009054906101000a900473ffffffffffffffffffffffffffffffffffffffff1673ffffffffffffffffffffffffffffffffffffffff163373ffffffffffffffffffffffffffffffffffffffff1614611368576040517f08c379a000000000000000000000000000000000000000000000000000000000815260040161135f906149fc565b60405180910390fd5b6001600b600083815260200190815260200160002060050160026101000a81548160ff0219169083151502179055506113a081612963565b50565b600960009054906101000a900473ffffffffffffffffffffffffffffffffffffffff1673ffffffffffffffffffffffffffffffffffffffff163373ffffffffffffffffffffffffffffffffffffffff1614611433576040517f08c379a000000000000000000000000000000000000000000000000000000000815260040161142a90614a68565b60405180910390fd5b600960009054906101000a900473ffffffffffffffffffffffffffffffffffffffff1673ffffffffffffffffffffffffffffffffffffffff166108fc479081150290604051600060405180830381858888f1935050505015801561149b573d6000803e3d6000fd5b50565b6114a6613803565b600b600083815260200190815260200160002060405180610100016040529081600082015481526020016001820180546114df906143fc565b80601f016020809104026020016040519081016040528092919081815260200182805461150b906143fc565b80156115585780601f1061152d57610100808354040283529160200191611558565b820191906000526020600020905b81548152906001019060200180831161153b57829003601f168201915b50505050508152602001600282018054611571906143fc565b80601f016020809104026020016040519081016040528092919081815260200182805461159d906143fc565b80156115ea5780601f106115bf576101008083540402835291602001916115ea565b820191906000526020600020905b8154815290600101906020018083116115cd57829003601f168201915b505050505081526020016003820160009054906101000a900473ffffffffffffffffffffffffffffffffffffffff1673ffffffffffffffffffffffffffffffffffffffff1673ffffffffffffffffffffffffffffffffffffffff168152602001600482015481526020016005820160009054906101000a900460ff161515151581526020016005820160019054906101000a900460ff161515151581526020016005820160029054906101000a900460ff1615151515815250509050919050565b6060600180546116ba906143fc565b80601f01602080910402602001604051908101604052809291908181526020018280546116e6906143fc565b80156117335780601f1061170857610100808354040283529160200191611733565b820191906000526020600020905b81548152906001019060200180831161171657829003601f168201915b5050505050905090565b600b600082815260200190815260200160002060050160019054906101000a900460ff166117a0576040517f08c379a000000000000000000000000000000000000000000000000000000000815260040161179790614ad4565b60405180910390fd5b6000600b6000838152602001908152602001600020600401549050803410156117fe576040517f08c379a00000000000000000000000000000000000000000000000000000000081526004016117f590614b40565b60405180910390fd5b6000600b600084815260200190815260200160002060030160009054906101000a900473ffffffffffffffffffffffffffffffffffffffff16905061184481338561261e565b8073ffffffffffffffffffffffffffffffffffffffff166108fc839081150290604051600060405180830381858888f1935050505015801561188a573d6000803e3d6000fd5b5033600b600085815260200190815260200160002060030160006101000a81548173ffffffffffffffffffffffffffffffffffffffff021916908373ffffffffffffffffffffffffffffffffffffffff1602179055506000600b600085815260200190815260200160002060050160016101000a81548160ff0219169083151502179055507f2e89f35fbf6add41069c5f61049772889cd3f7a9aa533f4818e029f4c647370d338385600080600060405161194a96959493929190614b60565b60405180910390a1505050565b6119696119626124c8565b83836129b6565b5050565b61197e6119786124c8565b83612589565b6119bd576040517f08c379a00000000000000000000000000000000000000000000000000000000081526004016119b4906145c4565b60405180910390fd5b6119c984848484612b23565b50505050565b3373ffffffffffffffffffffffffffffffffffffffff16600960009054906101000a900473ffffffffffffffffffffffffffffffffffffffff1673ffffffffffffffffffffffffffffffffffffffff1614611a5f576040517f08c379a0000000000000000000000000000000000000000000000000000000008152600401611a5690614c33565b60405180910390fd5b80600a819055507f47cce1c40535876723d9c860d6f17d3a8edfbc2d34acfeb5fcb27ebe02dfb1cb81604051611a959190613ec2565b60405180910390a150565b6060611aab8261247d565b6000600660008481526020019081526020016000208054611acb906143fc565b80601f0160208091040260200160405190810160405280929190818152602001828054611af7906143fc565b8015611b445780601f10611b1957610100808354040283529160200191611b44565b820191906000526020600020905b815481529060010190602001808311611b2757829003601f168201915b505050505090506000611b55612b7f565b9050600081511415611b6b578192505050611bae565b600082511115611ba0578082604051602001611b88929190614c8f565b60405160208183030381529060405292505050611bae565b611ba984612b96565b925050505b919050565b611bbb613803565b6000611bc76007612918565b9050600b60008281526020019081526020016000206040518061010001604052908160008201548152602001600182018054611c02906143fc565b80601f0160208091040260200160405190810160405280929190818152602001828054611c2e906143fc565b8015611c7b5780601f10611c5057610100808354040283529160200191611c7b565b820191906000526020600020905b815481529060010190602001808311611c5e57829003601f168201915b50505050508152602001600282018054611c94906143fc565b80601f0160208091040260200160405190810160405280929190818152602001828054611cc0906143fc565b8015611d0d5780601f10611ce257610100808354040283529160200191611d0d565b820191906000526020600020905b815481529060010190602001808311611cf057829003601f168201915b505050505081526020016003820160009054906101000a900473ffffffffffffffffffffffffffffffffffffffff1673ffffffffffffffffffffffffffffffffffffffff1673ffffffffffffffffffffffffffffffffffffffff168152602001600482015481526020016005820160009054906101000a900460ff161515151581526020016005820160019054906101000a900460ff161515151581526020016005820160029054906101000a900460ff16151515158152505091505090565b60606000611ddb6007612918565b905060008167ffffffffffffffff811115611df957611df8614059565b5b604051908082528060200260200182016040528015611e3257816020015b611e1f613803565b815260200190600190039081611e175790505b50905060008080600090505b848110156121155760011515600b6000600184611e5b91906147e4565b815260200190815260200160002060050160019054906101000a900460ff161515148015611ebc575060001515600b6000600184611e9991906147e4565b815260200190815260200160002060050160029054906101000a900460ff161515145b1561210257600181611ece91906147e4565b91506000600b60008481526020019081526020016000209050806040518061010001604052908160008201548152602001600182018054611f0e906143fc565b80601f0160208091040260200160405190810160405280929190818152602001828054611f3a906143fc565b8015611f875780601f10611f5c57610100808354040283529160200191611f87565b820191906000526020600020905b815481529060010190602001808311611f6a57829003601f168201915b50505050508152602001600282018054611fa0906143fc565b80601f0160208091040260200160405190810160405280929190818152602001828054611fcc906143fc565b80156120195780601f10611fee57610100808354040283529160200191612019565b820191906000526020600020905b815481529060010190602001808311611ffc57829003601f168201915b505050505081526020016003820160009054906101000a900473ffffffffffffffffffffffffffffffffffffffff1673ffffffffffffffffffffffffffffffffffffffff1673ffffffffffffffffffffffffffffffffffffffff168152602001600482015481526020016005820160009054906101000a900460ff161515151581526020016005820160019054906101000a900460ff161515151581526020016005820160029054906101000a900460ff1615151515815250508585815181106120e6576120e5614883565b5b60200260200101819052506001846120fe91906147e4565b9350505b808061210d9061483a565b915050611e3e565b508294505050505090565b600b600082815260200190815260200160002060040154341015612179576040517f08c379a000000000000000000000000000000000000000000000000000000000815260040161217090614b40565b60405180910390fd5b600b600082815260200190815260200160002060030160009054906101000a900473ffffffffffffffffffffffffffffffffffffffff1673ffffffffffffffffffffffffffffffffffffffff166108fc349081150290604051600060405180830381858888f193505050501580156121f5573d6000803e3d6000fd5b5061220130338361261e565b61220b3082610877565b33600b600083815260200190815260200160002060030160006101000a81548173ffffffffffffffffffffffffffffffffffffffff021916908373ffffffffffffffffffffffffffffffffffffffff1602179055506000600b600083815260200190815260200160002060050160016101000a81548160ff0219169083151502179055506000600b600083815260200190815260200160002060050160006101000a81548160ff0219169083151502179055507fbfb65628138c09651e2d128ff7666423c766f5abf98df843204ee859d30af4b3338260008060006040516122f7959493929190614cb3565b60405180910390a150565b6000600560008473ffffffffffffffffffffffffffffffffffffffff1673ffffffffffffffffffffffffffffffffffffffff16815260200190815260200160002060008373ffffffffffffffffffffffffffffffffffffffff1673ffffffffffffffffffffffffffffffffffffffff16815260200190815260200160002060009054906101000a900460ff16905092915050565b60006123a26007612918565b905090565b60006123b36007612bfe565b60006123bf6007612918565b90506123cb3382612c14565b6123d58187612c32565b6123e181868686612ca6565b80915050949350505050565b600960009054906101000a900473ffffffffffffffffffffffffffffffffffffffff1681565b60007f01ffc9a7000000000000000000000000000000000000000000000000000000007bffffffffffffffffffffffffffffffffffffffffffffffffffffffff1916827bffffffffffffffffffffffffffffffffffffffffffffffffffffffff1916149050919050565b61248681612eea565b6124c5576040517f08c379a00000000000000000000000000000000000000000000000000000000081526004016124bc906148fe565b60405180910390fd5b50565b600033905090565b816004600083815260200190815260200160002060006101000a81548173ffffffffffffffffffffffffffffffffffffffff021916908373ffffffffffffffffffffffffffffffffffffffff160217905550808273ffffffffffffffffffffffffffffffffffffffff166125438361118f565b73ffffffffffffffffffffffffffffffffffffffff167f8c5be1e5ebec7d5bd14f71427d1e84f3dd0314c0f7b2291e5b200ac8c7c3b92560405160405180910390a45050565b6000806125958361118f565b90508073ffffffffffffffffffffffffffffffffffffffff168473ffffffffffffffffffffffffffffffffffffffff1614806125d757506125d68185612302565b5b8061261557508373ffffffffffffffffffffffffffffffffffffffff166125fd84610831565b73ffffffffffffffffffffffffffffffffffffffff16145b91505092915050565b8273ffffffffffffffffffffffffffffffffffffffff1661263e8261118f565b73ffffffffffffffffffffffffffffffffffffffff1614612694576040517f08c379a000000000000000000000000000000000000000000000000000000000815260040161268b90614d78565b60405180910390fd5b600073ffffffffffffffffffffffffffffffffffffffff168273ffffffffffffffffffffffffffffffffffffffff161415612704576040517f08c379a00000000000000000000000000000000000000000000000000000000081526004016126fb90614e0a565b60405180910390fd5b6127118383836001612f2b565b8273ffffffffffffffffffffffffffffffffffffffff166127318261118f565b73ffffffffffffffffffffffffffffffffffffffff1614612787576040517f08c379a000000000000000000000000000000000000000000000000000000000815260040161277e90614d78565b60405180910390fd5b6004600082815260200190815260200160002060006101000a81549073ffffffffffffffffffffffffffffffffffffffff02191690556001600360008573ffffffffffffffffffffffffffffffffffffffff1673ffffffffffffffffffffffffffffffffffffffff168152602001908152602001600020600082825403925050819055506001600360008473ffffffffffffffffffffffffffffffffffffffff1673ffffffffffffffffffffffffffffffffffffffff16815260200190815260200160002060008282540192505081905550816002600083815260200190815260200160002060006101000a81548173ffffffffffffffffffffffffffffffffffffffff021916908373ffffffffffffffffffffffffffffffffffffffff160217905550808273ffffffffffffffffffffffffffffffffffffffff168473ffffffffffffffffffffffffffffffffffffffff167fddf252ad1be2c89b69c2b068fc378daa952ba7f163c4a11628f55a4df523b3ef60405160405180910390a46129138383836001613051565b505050565b600081600001549050919050565b60006002600083815260200190815260200160002060009054906101000a900473ffffffffffffffffffffffffffffffffffffffff169050919050565b61296c81613057565b600060066000838152602001908152602001600020805461298c906143fc565b9050146129b3576006600082815260200190815260200160002060006129b29190613864565b5b50565b8173ffffffffffffffffffffffffffffffffffffffff168373ffffffffffffffffffffffffffffffffffffffff161415612a25576040517f08c379a0000000000000000000000000000000000000000000000000000000008152600401612a1c90614e76565b60405180910390fd5b80600560008573ffffffffffffffffffffffffffffffffffffffff1673ffffffffffffffffffffffffffffffffffffffff16815260200190815260200160002060008473ffffffffffffffffffffffffffffffffffffffff1673ffffffffffffffffffffffffffffffffffffffff16815260200190815260200160002060006101000a81548160ff0219169083151502179055508173ffffffffffffffffffffffffffffffffffffffff168373ffffffffffffffffffffffffffffffffffffffff167f17307eab39ab6107e8899845ad3d59bd9653f200f220920489ca2b5937696c3183604051612b1691906139fb565b60405180910390a3505050565b612b2e84848461261e565b612b3a848484846131a5565b612b79576040517f08c379a0000000000000000000000000000000000000000000000000000000008152600401612b7090614f08565b60405180910390fd5b50505050565b606060405180602001604052806000815250905090565b6060612ba18261247d565b6000612bab612b7f565b90506000815111612bcb5760405180602001604052806000815250612bf6565b80612bd58461333c565b604051602001612be6929190614c8f565b6040516020818303038152906040525b915050919050565b6001816000016000828254019250508190555050565b612c2e828260405180602001604052806000815250613414565b5050565b612c3b82612eea565b612c7a576040517f08c379a0000000000000000000000000000000000000000000000000000000008152600401612c7190614f9a565b60405180910390fd5b80600660008481526020019081526020016000209080519060200190612ca19291906138a4565b505050565b600a54341015612ceb576040517f08c379a0000000000000000000000000000000000000000000000000000000008152600401612ce29061502c565b60405180910390fd5b60008111612d2e576040517f08c379a0000000000000000000000000000000000000000000000000000000008152600401612d25906150be565b60405180910390fd5b6040518061010001604052808581526020018481526020018381526020013373ffffffffffffffffffffffffffffffffffffffff16815260200182815260200160011515815260200160011515815260200160001515815250600b6000868152602001908152602001600020600082015181600001556020820151816001019080519060200190612dc09291906138a4565b506040820151816002019080519060200190612ddd9291906138a4565b5060608201518160030160006101000a81548173ffffffffffffffffffffffffffffffffffffffff021916908373ffffffffffffffffffffffffffffffffffffffff1602179055506080820151816004015560a08201518160050160006101000a81548160ff02191690831515021790555060c08201518160050160016101000a81548160ff02191690831515021790555060e08201518160050160026101000a81548160ff021916908315150217905550905050612e9d33308661261e565b7f5727b12237e80d9214b2661c2a41ba39d27fb93c2008820e559063f931728c1184848433856001806000604051612edc9897969594939291906150de565b60405180910390a150505050565b60008073ffffffffffffffffffffffffffffffffffffffff16612f0c83612926565b73ffffffffffffffffffffffffffffffffffffffff1614159050919050565b600181111561304b57600073ffffffffffffffffffffffffffffffffffffffff168473ffffffffffffffffffffffffffffffffffffffff1614612fbf5780600360008673ffffffffffffffffffffffffffffffffffffffff1673ffffffffffffffffffffffffffffffffffffffff1681526020019081526020016000206000828254612fb7919061516a565b925050819055505b600073ffffffffffffffffffffffffffffffffffffffff168373ffffffffffffffffffffffffffffffffffffffff161461304a5780600360008573ffffffffffffffffffffffffffffffffffffffff1673ffffffffffffffffffffffffffffffffffffffff168152602001908152602001600020600082825461304291906147e4565b925050819055505b5b50505050565b50505050565b60006130628261118f565b9050613072816000846001612f2b565b61307b8261118f565b90506004600083815260200190815260200160002060006101000a81549073ffffffffffffffffffffffffffffffffffffffff02191690556001600360008373ffffffffffffffffffffffffffffffffffffffff1673ffffffffffffffffffffffffffffffffffffffff168152602001908152602001600020600082825403925050819055506002600083815260200190815260200160002060006101000a81549073ffffffffffffffffffffffffffffffffffffffff021916905581600073ffffffffffffffffffffffffffffffffffffffff168273ffffffffffffffffffffffffffffffffffffffff167fddf252ad1be2c89b69c2b068fc378daa952ba7f163c4a11628f55a4df523b3ef60405160405180910390a46131a1816000846001613051565b5050565b60006131c68473ffffffffffffffffffffffffffffffffffffffff1661346f565b1561332f578373ffffffffffffffffffffffffffffffffffffffff1663150b7a026131ef6124c8565b8786866040518563ffffffff1660e01b815260040161321194939291906151f3565b602060405180830381600087803b15801561322b57600080fd5b505af192505050801561325c57506040513d601f19601f820116820180604052508101906132599190615254565b60015b6132df573d806000811461328c576040519150601f19603f3d011682016040523d82523d6000602084013e613291565b606091505b506000815114156132d7576040517f08c379a00000000000000000000000000000000000000000000000000000000081526004016132ce90614f08565b60405180910390fd5b805181602001fd5b63150b7a0260e01b7bffffffffffffffffffffffffffffffffffffffffffffffffffffffff1916817bffffffffffffffffffffffffffffffffffffffffffffffffffffffff191614915050613334565b600190505b949350505050565b60606000600161334b84613492565b01905060008167ffffffffffffffff81111561336a57613369614059565b5b6040519080825280601f01601f19166020018201604052801561339c5781602001600182028036833780820191505090505b509050600082602001820190505b600115613409578080600190039150507f3031323334353637383961626364656600000000000000000000000000000000600a86061a8153600a85816133f3576133f2615281565b5b049450600085141561340457613409565b6133aa565b819350505050919050565b61341e83836135e5565b61342b60008484846131a5565b61346a576040517f08c379a000000000000000000000000000000000000000000000000000000000815260040161346190614f08565b60405180910390fd5b505050565b6000808273ffffffffffffffffffffffffffffffffffffffff163b119050919050565b600080600090507a184f03e93ff9f4daa797ed6e38ed64bf6a1f01000000000000000083106134f0577a184f03e93ff9f4daa797ed6e38ed64bf6a1f01000000000000000083816134e6576134e5615281565b5b0492506040810190505b6d04ee2d6d415b85acef8100000000831061352d576d04ee2d6d415b85acef8100000000838161352357613522615281565b5b0492506020810190505b662386f26fc10000831061355c57662386f26fc10000838161355257613551615281565b5b0492506010810190505b6305f5e1008310613585576305f5e100838161357b5761357a615281565b5b0492506008810190505b61271083106135aa5761271083816135a05761359f615281565b5b0492506004810190505b606483106135cd57606483816135c3576135c2615281565b5b0492506002810190505b600a83106135dc576001810190505b80915050919050565b600073ffffffffffffffffffffffffffffffffffffffff168273ffffffffffffffffffffffffffffffffffffffff161415613655576040517f08c379a000000000000000000000000000000000000000000000000000000000815260040161364c906152fc565b60405180910390fd5b61365e81612eea565b1561369e576040517f08c379a000000000000000000000000000000000000000000000000000000000815260040161369590615368565b60405180910390fd5b6136ac600083836001612f2b565b6136b581612eea565b156136f5576040517f08c379a00000000000000000000000000000000000000000000000000000000081526004016136ec90615368565b60405180910390fd5b6001600360008473ffffffffffffffffffffffffffffffffffffffff1673ffffffffffffffffffffffffffffffffffffffff16815260200190815260200160002060008282540192505081905550816002600083815260200190815260200160002060006101000a81548173ffffffffffffffffffffffffffffffffffffffff021916908373ffffffffffffffffffffffffffffffffffffffff160217905550808273ffffffffffffffffffffffffffffffffffffffff16600073ffffffffffffffffffffffffffffffffffffffff167fddf252ad1be2c89b69c2b068fc378daa952ba7f163c4a11628f55a4df523b3ef60405160405180910390a46137ff600083836001613051565b5050565b604051806101000160405280600081526020016060815260200160608152602001600073ffffffffffffffffffffffffffffffffffffffff168152602001600081526020016000151581526020016000151581526020016000151581525090565b508054613870906143fc565b6000825580601f1061388257506138a1565b601f0160209004906000526020600020908101906138a0919061392a565b5b50565b8280546138b0906143fc565b90600052602060002090601f0160209004810192826138d25760008555613919565b82601f106138eb57805160ff1916838001178555613919565b82800160010185558215613919579182015b828111156139185782518255916020019190600101906138fd565b5b509050613926919061392a565b5090565b5b8082111561394357600081600090555060010161392b565b5090565b6000604051905090565b600080fd5b600080fd5b60007fffffffff0000000000000000000000000000000000000000000000000000000082169050919050565b6139908161395b565b811461399b57600080fd5b50565b6000813590506139ad81613987565b92915050565b6000602082840312156139c9576139c8613951565b5b60006139d78482850161399e565b91505092915050565b60008115159050919050565b6139f5816139e0565b82525050565b6000602082019050613a1060008301846139ec565b92915050565b600081519050919050565b600082825260208201905092915050565b60005b83811015613a50578082015181840152602081019050613a35565b83811115613a5f576000848401525b50505050565b6000601f19601f8301169050919050565b6000613a8182613a16565b613a8b8185613a21565b9350613a9b818560208601613a32565b613aa481613a65565b840191505092915050565b60006020820190508181036000830152613ac98184613a76565b905092915050565b6000819050919050565b613ae481613ad1565b8114613aef57600080fd5b50565b600081359050613b0181613adb565b92915050565b600060208284031215613b1d57613b1c613951565b5b6000613b2b84828501613af2565b91505092915050565b600073ffffffffffffffffffffffffffffffffffffffff82169050919050565b6000613b5f82613b34565b9050919050565b613b6f81613b54565b82525050565b6000602082019050613b8a6000830184613b66565b92915050565b613b9981613b54565b8114613ba457600080fd5b50565b600081359050613bb681613b90565b92915050565b60008060408385031215613bd357613bd2613951565b5b6000613be185828601613ba7565b9250506020613bf285828601613af2565b9150509250929050565b600080600060608486031215613c1557613c14613951565b5b6000613c2386828701613ba7565b9350506020613c3486828701613ba7565b9250506040613c4586828701613af2565b9150509250925092565b60008060408385031215613c6657613c65613951565b5b6000613c7485828601613af2565b9250506020613c8585828601613af2565b9150509250929050565b600081519050919050565b600082825260208201905092915050565b6000819050602082019050919050565b613cc481613ad1565b82525050565b600082825260208201905092915050565b6000613ce682613a16565b613cf08185613cca565b9350613d00818560208601613a32565b613d0981613a65565b840191505092915050565b6000613d1f82613b34565b9050919050565b613d2f81613d14565b82525050565b613d3e816139e0565b82525050565b600061010083016000830151613d5d6000860182613cbb565b5060208301518482036020860152613d758282613cdb565b91505060408301518482036040860152613d8f8282613cdb565b9150506060830151613da46060860182613d26565b506080830151613db76080860182613cbb565b5060a0830151613dca60a0860182613d35565b5060c0830151613ddd60c0860182613d35565b5060e0830151613df060e0860182613d35565b508091505092915050565b6000613e078383613d44565b905092915050565b6000602082019050919050565b6000613e2782613c8f565b613e318185613c9a565b935083602082028501613e4385613cab565b8060005b85811015613e7f5784840389528151613e608582613dfb565b9450613e6b83613e0f565b925060208a01995050600181019050613e47565b50829750879550505050505092915050565b60006020820190508181036000830152613eab8184613e1c565b905092915050565b613ebc81613ad1565b82525050565b6000602082019050613ed76000830184613eb3565b92915050565b600060208284031215613ef357613ef2613951565b5b6000613f0184828501613ba7565b91505092915050565b600061010083016000830151613f236000860182613cbb565b5060208301518482036020860152613f3b8282613cdb565b91505060408301518482036040860152613f558282613cdb565b9150506060830151613f6a6060860182613d26565b506080830151613f7d6080860182613cbb565b5060a0830151613f9060a0860182613d35565b5060c0830151613fa360c0860182613d35565b5060e0830151613fb660e0860182613d35565b508091505092915050565b60006020820190508181036000830152613fdb8184613f0a565b905092915050565b613fec816139e0565b8114613ff757600080fd5b50565b60008135905061400981613fe3565b92915050565b6000806040838503121561402657614025613951565b5b600061403485828601613ba7565b925050602061404585828601613ffa565b9150509250929050565b600080fd5b600080fd5b7f4e487b7100000000000000000000000000000000000000000000000000000000600052604160045260246000fd5b61409182613a65565b810181811067ffffffffffffffff821117156140b0576140af614059565b5b80604052505050565b60006140c3613947565b90506140cf8282614088565b919050565b600067ffffffffffffffff8211156140ef576140ee614059565b5b6140f882613a65565b9050602081019050919050565b82818337600083830152505050565b6000614127614122846140d4565b6140b9565b90508281526020810184848401111561414357614142614054565b5b61414e848285614105565b509392505050565b600082601f83011261416b5761416a61404f565b5b813561417b848260208601614114565b91505092915050565b6000806000806080858703121561419e5761419d613951565b5b60006141ac87828801613ba7565b94505060206141bd87828801613ba7565b93505060406141ce87828801613af2565b925050606085013567ffffffffffffffff8111156141ef576141ee613956565b5b6141fb87828801614156565b91505092959194509250565b6000806040838503121561421e5761421d613951565b5b600061422c85828601613ba7565b925050602061423d85828601613ba7565b9150509250929050565b600067ffffffffffffffff82111561426257614261614059565b5b61426b82613a65565b9050602081019050919050565b600061428b61428684614247565b6140b9565b9050828152602081018484840111156142a7576142a6614054565b5b6142b2848285614105565b509392505050565b600082601f8301126142cf576142ce61404f565b5b81356142df848260208601614278565b91505092915050565b6000806000806080858703121561430257614301613951565b5b600085013567ffffffffffffffff8111156143205761431f613956565b5b61432c878288016142ba565b945050602085013567ffffffffffffffff81111561434d5761434c613956565b5b614359878288016142ba565b935050604085013567ffffffffffffffff81111561437a57614379613956565b5b614386878288016142ba565b925050606061439787828801613af2565b91505092959194509250565b6143ac81613d14565b82525050565b60006020820190506143c760008301846143a3565b92915050565b7f4e487b7100000000000000000000000000000000000000000000000000000000600052602260045260246000fd5b6000600282049050600182168061441457607f821691505b60208210811415614428576144276143cd565b5b50919050565b7f4552433732313a20617070726f76616c20746f2063757272656e74206f776e6560008201527f7200000000000000000000000000000000000000000000000000000000000000602082015250565b600061448a602183613a21565b91506144958261442e565b604082019050919050565b600060208201905081810360008301526144b98161447d565b9050919050565b7f4552433732313a20617070726f76652063616c6c6572206973206e6f7420746f60008201527f6b656e206f776e6572206f7220617070726f76656420666f7220616c6c000000602082015250565b600061451c603d83613a21565b9150614527826144c0565b604082019050919050565b6000602082019050818103600083015261454b8161450f565b9050919050565b7f4552433732313a2063616c6c6572206973206e6f7420746f6b656e206f776e6560008201527f72206f7220617070726f76656400000000000000000000000000000000000000602082015250565b60006145ae602d83613a21565b91506145b982614552565b604082019050919050565b600060208201905081810360008301526145dd816145a1565b9050919050565b7f53656e6420656e6f75676820657468657220746f2073656c6c206120736e656160008201527f6b6572732028302e303120657468657229000000000000000000000000000000602082015250565b6000614640603183613a21565b915061464b826145e4565b604082019050919050565b6000602082019050818103600083015261466f81614633565b9050919050565b7f596f75277265206e6f742061206f776e6572206f66207468697320736e65616b60008201527f6572000000000000000000000000000000000000000000000000000000000000602082015250565b60006146d2602283613a21565b91506146dd82614676565b604082019050919050565b60006020820190508181036000830152614701816146c5565b9050919050565b7f4e487b7100000000000000000000000000000000000000000000000000000000600052601160045260246000fd5b600061474282613ad1565b915061474d83613ad1565b9250817fffffffffffffffffffffffffffffffffffffffffffffffffffffffffffffffff048311821515161561478657614785614708565b5b828202905092915050565b600060a0820190506147a66000830188613eb3565b6147b36020830187613eb3565b6147c060408301866139ec565b6147cd60608301856139ec565b6147da60808301846139ec565b9695505050505050565b60006147ef82613ad1565b91506147fa83613ad1565b9250827fffffffffffffffffffffffffffffffffffffffffffffffffffffffffffffffff0382111561482f5761482e614708565b5b828201905092915050565b600061484582613ad1565b91507fffffffffffffffffffffffffffffffffffffffffffffffffffffffffffffffff82141561487857614877614708565b5b600182019050919050565b7f4e487b7100000000000000000000000000000000000000000000000000000000600052603260045260246000fd5b7f4552433732313a20696e76616c696420746f6b656e2049440000000000000000600082015250565b60006148e8601883613a21565b91506148f3826148b2565b602082019050919050565b60006020820190508181036000830152614917816148db565b9050919050565b7f4552433732313a2061646472657373207a65726f206973206e6f74206120766160008201527f6c6964206f776e65720000000000000000000000000000000000000000000000602082015250565b600061497a602983613a21565b91506149858261491e565b604082019050919050565b600060208201905081810360008301526149a98161496d565b9050919050565b7f596f75277265206e6f74207468652061646d696e000000000000000000000000600082015250565b60006149e6601483613a21565b91506149f1826149b0565b602082019050919050565b60006020820190508181036000830152614a15816149d9565b9050919050565b7f4f6e6c79206f776e65722063616e207769746864726177000000000000000000600082015250565b6000614a52601783613a21565b9150614a5d82614a1c565b602082019050919050565b60006020820190508181036000830152614a8181614a45565b9050919050565b7f536e65616b6572206973206e6f7420696e2073656c6c00000000000000000000600082015250565b6000614abe601683613a21565b9150614ac982614a88565b602082019050919050565b60006020820190508181036000830152614aed81614ab1565b9050919050565b7f4e6f7420656e6f7567682066756e647300000000000000000000000000000000600082015250565b6000614b2a601083613a21565b9150614b3582614af4565b602082019050919050565b60006020820190508181036000830152614b5981614b1d565b9050919050565b600060c082019050614b756000830189613b66565b614b826020830188613eb3565b614b8f6040830187613eb3565b614b9c60608301866139ec565b614ba960808301856139ec565b614bb660a08301846139ec565b979650505050505050565b7f4f6e6c79206f776e65722063616e20757064617465206c697374696e6720707260008201527f6963650000000000000000000000000000000000000000000000000000000000602082015250565b6000614c1d602383613a21565b9150614c2882614bc1565b604082019050919050565b60006020820190508181036000830152614c4c81614c10565b9050919050565b600081905092915050565b6000614c6982613a16565b614c738185614c53565b9350614c83818560208601613a32565b80840191505092915050565b6000614c9b8285614c5e565b9150614ca78284614c5e565b91508190509392505050565b600060a082019050614cc86000830188613b66565b614cd56020830187613eb3565b614ce260408301866139ec565b614cef60608301856139ec565b614cfc60808301846139ec565b9695505050505050565b7f4552433732313a207472616e736665722066726f6d20696e636f72726563742060008201527f6f776e6572000000000000000000000000000000000000000000000000000000602082015250565b6000614d62602583613a21565b9150614d6d82614d06565b604082019050919050565b60006020820190508181036000830152614d9181614d55565b9050919050565b7f4552433732313a207472616e7366657220746f20746865207a65726f2061646460008201527f7265737300000000000000000000000000000000000000000000000000000000602082015250565b6000614df4602483613a21565b9150614dff82614d98565b604082019050919050565b60006020820190508181036000830152614e2381614de7565b9050919050565b7f4552433732313a20617070726f766520746f2063616c6c657200000000000000600082015250565b6000614e60601983613a21565b9150614e6b82614e2a565b602082019050919050565b60006020820190508181036000830152614e8f81614e53565b9050919050565b7f4552433732313a207472616e7366657220746f206e6f6e20455243373231526560008201527f63656976657220696d706c656d656e7465720000000000000000000000000000602082015250565b6000614ef2603283613a21565b9150614efd82614e96565b604082019050919050565b60006020820190508181036000830152614f2181614ee5565b9050919050565b7f45524337323155524953746f726167653a2055524920736574206f66206e6f6e60008201527f6578697374656e7420746f6b656e000000000000000000000000000000000000602082015250565b6000614f84602e83613a21565b9150614f8f82614f28565b604082019050919050565b60006020820190508181036000830152614fb381614f77565b9050919050565b7f486f706566756c6c792073656e64696e672074686520636f727265637420707260008201527f6963650000000000000000000000000000000000000000000000000000000000602082015250565b6000615016602383613a21565b915061502182614fba565b604082019050919050565b6000602082019050818103600083015261504581615009565b9050919050565b7f4d616b652073757265207468652070726963652069736e2774206e656761746960008201527f7665000000000000000000000000000000000000000000000000000000000000602082015250565b60006150a8602283613a21565b91506150b38261504c565b604082019050919050565b600060208201905081810360008301526150d78161509b565b9050919050565b6000610100820190506150f4600083018b613eb3565b8181036020830152615106818a613a76565b9050818103604083015261511a8189613a76565b90506151296060830188613b66565b6151366080830187613eb3565b61514360a08301866139ec565b61515060c08301856139ec565b61515d60e08301846139ec565b9998505050505050505050565b600061517582613ad1565b915061518083613ad1565b92508282101561519357615192614708565b5b828203905092915050565b600081519050919050565b600082825260208201905092915050565b60006151c58261519e565b6151cf81856151a9565b93506151df818560208601613a32565b6151e881613a65565b840191505092915050565b60006080820190506152086000830187613b66565b6152156020830186613b66565b6152226040830185613eb3565b818103606083015261523481846151ba565b905095945050505050565b60008151905061524e81613987565b92915050565b60006020828403121561526a57615269613951565b5b60006152788482850161523f565b91505092915050565b7f4e487b7100000000000000000000000000000000000000000000000000000000600052601260045260246000fd5b7f4552433732313a206d696e7420746f20746865207a65726f2061646472657373600082015250565b60006152e6602083613a21565b91506152f1826152b0565b602082019050919050565b60006020820190508181036000830152615315816152d9565b9050919050565b7f4552433732313a20746f6b656e20616c7265616479206d696e74656400000000600082015250565b6000615352601c83613a21565b915061535d8261531c565b602082019050919050565b6000602082019050818103600083015261538181615345565b905091905056fea2646970667358221220df4e5354931090d2184e567967634d8defcd04c17cf383f17c9a19584946de7b64736f6c63430008090033",
  "linkReferences": {},
  "deployedLinkReferences": {}
}